:020000040800F2
:10000000300400209D240008A5240008A72400082F
:10001000A9240008AB240008AD240008000000005B
:10002000000000000000000000000000AF240008F5
:10003000B124000800000000B3240008B524000823
:10004000B7240008B7240008B7240008B724000824
:10005000B7240008B7240008B7240008B724000814
:10006000B7240008B7240008B7240008B724000804
:10007000B7240008B7240008B7240008B7240008F4
:10008000B7240008B7240008B7240008B7240008E4
:10009000E9020008B7240008B7240008B7240008C4
:1000A000B7240008B7240008B7240008B7240008C4
:1000B000B7240008B7240008B7240008B7240008B4
:1000C000B7240008B7240008B7240008B7240008A4
:1000D000B7240008B7240008B7240008B724000894
:1000E000B7240008B7240008B7240008DFF80CD0B4
:1000F00002F0E8FA0048004701010008300400203F
:1001000000F008F800F01EF900F068F801E000F0D7
:1001100055F8FCE700B589B00121042000F052FD3C
:100120004020ADF8140003208DF8160018208DF83B
:10013000170005A9264800F08FFA0121022000F0DF
:100140004EFDEF20ADF8180041F27070ADF81C00C4
:100150000020ADF81E00ADF81A0006A91D4800F0F9
:100160006DFE7020ADF804000120ADF806000420FB
:10017000ADF808000020ADF80A00ADF80C0008202A
:10018000ADF80E004001ADF810000020ADF81200EF
:1001900001A9104800F08FFE08210E4801F0DAFA9C
:1001A00001210C4801F0A6FA01210A4801F0AEF93C
:1001B0000121084801F09EF909B000BD10B50648BC
:1001C000006802F06BFA03493431088010BD00006A
:1001D00000080140000400400000002000B589B084
:1001E0000121480600F0FBFC0121052000F0EAFC9B
:1001F0004FF40060ADF8100048208DF81300032084
:100200008DF8120004A94B4800F026FA4FF48050F4
:10021000ADF8100018208DF8130003208DF812009F
:1002200004A9444800F018FA434801F041FC0020BA
:100230008DF80A008DF80B008DF80C008DF80D007C
:100240008DF80E0001208DF80F0000208DF80600BB
:100250008DF8070004208DF8080002208DF80900B1
:100260000320ADF8040001A9334801F03AFC142042
:100270008DF8000001208DF801008DF802008DF846
:100280000300684600F01FF900208DF81E008DF86D
:100290001F0001208DF82000284800884005000C30
:1002A000ADF8140025480078002141EA405080B2A2
:1002B000ADF816004FF6FF70ADF81800ADF81A0053
:1002C0000020ADF81C0001208DF8210005A801F0E8
:1002D00092FC01220221184801F08CFF02211648ED
:1002E00002F089F809B000BD00B585B002211248BE
:1002F00001F0E7FFE0B102210F4802F07CF86A4606
:1003000000210D4801F05BFE9DF8080080B99DF8C2
:10031000090068B9094909880098884208D19DF800
:100320000A00082804D10DF10B01054800F072F80D
:1003300005B000BD0008014000640040040000203A
:100340000000002008B50121082000F03BFC4FF41C
:100350008070ADF8000003208DF8020010208DF8A9
:10036000030069460D4800F077F94FF40070ADF8CE
:10037000000003208DF8020010208DF8030069466C
:10038000064800F069F94FF48071044800F00FFA54
:100390004FF40071014800F00CFA08BD000C014058
:1003A00008B50022009202680092BDF800200A7091
:1003B000BDF80020120A4A70BDF802208A70BDF80C
:1003C0000220120ACA7008BD08B5002200920B78FC
:1003D0004A7843EA0222ADF800208B78CA7843EAD3
:1003E0000222ADF80220009A026008BD08B5002282
:1003F000009202680092BDF800200A70BDF800204B
:10040000120A4A70BDF802208A70BDF80220120A52
:10041000CA7008BD08B5002200920B784A7843EAFA
:100420000222ADF800208B78CA7843EA0222ADF8A8
:100430000220009A026008BD02780A700288120A3F
:100440004A7070470A784B7842EA032212B202805F
:10045000704702780A70028812124A7070470A7850
:100460004B7842EA032202807047027802F03F0292
:1004700030320A700288C2F3851230324A707047F7
:100480000A78303A4B78303B42EA83120280704758
:1004900030B50246138804200CE00A2493FBF4F5DF
:1004A00004FB153430340C540A2493FBF4F4A3B247
:1004B000441E60B20028F0DA30BD0000314901432B
:1004C000314A1160704770B5002100230F22C478B3
:1004D0000CB32D4C246804F4E064C4F5E064210AF4
:1004E000C1F10403CA40447804FA03F1847814404B
:1004F00021430901254C0678A155047804F01F0515
:100500000124AC4005786D114FF0E02606EB85051F
:10051000C5F8004109E0047804F01F050124AC404F
:100520001B4D0678761145F8264070BD194A0A40E1
:100530000243154B1B1F1A60704739B1124A121D36
:1005400012680243104B1B1D1A6006E00E4A121D72
:10055000126882430C4B1B1D1A607047042808D197
:100560004FF0E021096941F004014FF0E0221161F0
:1005700007E04FF0E021096921F004014FF0E0228B
:10058000116170470000FA050CED00E000E400E0A6
:1005900080E100E080FFFF1F10B50446CA48844296
:1005A00008D10121042000F027FB0021042000F0E5
:1005B00023FB46E0C548844208D10121082000F011
:1005C0001BFB0021082000F017FB3AE0C0488442E2
:1005D00008D10121102000F00FFB0021102000F0B5
:1005E0000BFB2EE0BB48844208D10121202000F003
:1005F00003FB0021202000F0FFFA22E0B6488442ED
:1006000008D10121402000F0F7FA0021402000F03D
:10061000F3FA16E0B148844208D10121802000F0AD
:10062000EBFA0021802000F0E7FA0AE0AC488442AF
:1006300007D10121801500F0DFFA0021A01500F09C
:10064000DBFA10BD10B50121084600F0D5FA0021F3
:10065000012000F0D1FA10BD2DE9F041024600253D
:100660000026002000230024002791F803C00CF08E
:100670000F0591F803C01CF0100F03D091F802C0D1
:100680004CEA050591F800C0BCF1000F31D01468A8
:1006900000202BE04FF0010C0CFA00F3B1F800C081
:1006A0000CEA03069E4220D183004FF00F0C0CFA97
:1006B00003F7BC4305FA03FC4CEA040491F803C0B9
:1006C000BCF1280F06D14FF0010C0CFA00FCC2F867
:1006D00014C00AE091F803C0BCF1480F05D14FF0F7
:1006E000010C0CFA00FCC2F810C0401C0828D1D341
:1006F0001460B1F800C0BCF1FF0F34DD5468002075
:100700002EE000F1080C4FF0010808FA0CF3B1F8E4
:1007100000C00CEA03069E4221D183004FF00F0C6B
:100720000CFA03F7BC4305FA03FC4CEA040491F805
:1007300003C0BCF1280F05D100F1080C08FA0CF831
:10074000C2F8148091F803C0BCF1480F07D100F142
:10075000080C4FF0010808FA0CF8C2F81080401C91
:100760000828CED35460BDE8F0814FF6FF710180B8
:10077000022181700421C1707047024600209368F5
:100780000B4201D0012000E000207047014688683C
:1007900080B2704702460020D3680B4201D001208E
:1007A00000E0002070470146C86880B270470161D0
:1007B0007047416170470AB1016100E041617047D3
:1007C000C16070474FF480320A4382618161826167
:1007D00082698269704702460020424B18684FF6D2
:1007E0008073184040EA021008433E4B186070477F
:1007F0003D49C8617047F0B50A4600230024002136
:10080000002500F00046B6F1004F02D1354EF169E7
:1008100001E0344E7168C0F3034583B200F4401622
:10082000B6F5401F08D121F070612E4E766826F093
:1008300070662C4F7E6012E000F48016B6F5801FC3
:1008400006D1032606FA05F4A14341F0706106E0E3
:10085000460D360103FA06F6B14341F0706122B14C
:10086000460D360103FA06F6314300F00046B6F1B4
:10087000004F02D11B4EF16101E01A4E7160F0BDD4
:1008800030B500228B071C0F0F2303FA04F2154B1F
:1008900008338C1053F824309343124C08348D10D5
:1008A00044F8253023468C1053F824308C07240F4D
:1008B00000FA04F423430B4C08348D1044F825301F
:1008C00030BD0A490860704700080140000C014033
:1008D000001001400014014000180140001C0140BC
:1008E000002001400000014000002042DC002042C6
:1008F000DD48006840F00100DB49086008464068B8
:10090000DA490840D849486008460068D849084094
:10091000D54908600846006820F480200860084631
:10092000406820F4FE0048604FF41F008860704764
:10093000CD49096821F48031CB4A1160114609681C
:1009400021F480211160B0F5803F03D0B0F5802FF5
:100950000ED106E0C449096841F48031C24A1160F1
:1009600007E0C149096841F4A021BF4A116000E0D5
:1009700000BF00BF704710B50146002200230020D1
:100980004A11012A02D1B84C236806E0022A02D19A
:10099000B54C236A01E0B44C636A01F01F020124E4
:1009A00094401C4201D0012000E0002010BD38B569
:1009B000002000900024002500BF3120FFF7DBFF5E
:1009C00005460098401C00900098B0F5A06F01D03B
:1009D000002DF2D03120FFF7CEFF08B1012400E056
:1009E0000024204638BD014600209F4A106820F0B0
:1009F000F80040EAC100106070479E4908607047E7
:100A000002460020984B586820F47C1042EA01030B
:100A10001843954B586070479649086670470146E1
:100A20000020914A506820F003000843506070474E
:100A30008D48406800F00C007047014600208A4A4B
:100A4000506820F0F00008435060704701460020D5
:100A5000854A506820F4E0600843506070470146C2
:100A60000020814A506820F4605040EAC100506084
:100A7000704729B17C4A527A02437B4B5A7204E098
:100A8000794A527A8243784B5A7270477A490860A1
:100A9000704701460020744A506820F440400843E3
:100AA000506070470021754A11706F4A82F820101B
:100AB000012802D0042808D103E001216F4A1170F7
:100AC00004E005216D4A117000E000BF00BF7047CF
:100AD0006B49086070476449096A0143624A1162C0
:100AE0007047674944390860704730B500210022DB
:100AF000002400235C4D6D6805F00C0121B1042930
:100B000005D0082923D105E05E4D056022E05D4D4A
:100B100005601FE0544D6D6805F47012524D6D680C
:100B200005F48034022505EB92421CB9564D55431D
:100B300005600BE04C4D6D6815F4003F03D0524D3D
:100B40005543056002E04F4D5543056002E04D4DB1
:100B5000056000BF00BF444D6D6805F0F001090954
:100B60004A4D6B5C0568DD4045603F4D6D6805F49E
:100B7000E061090A454D6B5C4568DD4085603A4D92
:100B80006D6805F46051C90A404D6B5C4568DD40F5
:100B9000C560354D6D6805F44041890B3C4D6B5C7B
:100BA000C568B5FBF3F5056130BD29B12E4A526920
:100BB00002432D4B5A6104E02B4A526982432A4B6F
:100BC0005A61704729B1284A92690243264B9A61BB
:100BD00004E0254A92698243234B9A61704729B108
:100BE000214AD2690243204BDA6104E01E4AD269ED
:100BF00082431D4BDA61704729B11B4AD268024318
:100C0000194BDA6004E0184AD2688243164BDA6066
:100C1000704729B1144A12690243134B1A6104E068
:100C2000114A12698243104B1A61704714494039C6
:100C3000086070470F49C86470470B49C871704716
:100C40000948406A40F08070074948627047014691
:100C50000020054A92680A4201D0012000E00020ED
:100C60007047014988727047001002400000FFF889
:100C7000FFFFF6FE00004242D80042422010024030
:100C80008004424200127A0000093D000600002064
:100C90001600002010B50446FE48844208D1012108
:100CA000C014FFF7A9FF0021E014FFF7A5FFC4E07F
:100CB000B4F1804F08D101210846FFF7AAFF0021B7
:100CC0000120FFF7A6FFB8E0F348844208D10121D4
:100CD0000220FFF79EFF00210220FFF79AFFACE001
:100CE000EE48844208D101210420FFF792FF002141
:100CF0000420FFF78EFFA0E0E948844208D10121DB
:100D00000820FFF786FF00210820FFF782FF94E00C
:100D1000E448844208D101211020FFF77AFF002126
:100D20001020FFF776FF88E0DF48844208D10121D8
:100D30002020FFF76EFF00212020FFF76AFF7CE0F4
:100D4000DA48844208D101214014FFF755FF002101
:100D50006014FFF751FF70E0D548844209D10121AA
:100D6000C804FFF749FF00214FF40020FFF744FFBC
:100D700063E0D048844209D101210805FFF73CFF18
:100D800000214FF48010FFF737FF56E0CA48844235
:100D900009D101214805FFF72FFF00214FF4001072
:100DA000FFF72AFF49E0C548844208D101214020CD
:100DB000FFF72FFF00214020FFF72BFF3DE0C04849
:100DC000844208D101218020FFF723FF00218020E9
:100DD000FFF71FFF31E0BB48844208D10121801595
:100DE000FFF717FF0021A015FFF713FF25E0B64816
:100DF000844209D101210804FFF7FEFE00214FF4CF
:100E00008030FFF7F9FE18E0B048844209D1012193
:100E10004804FFF7F1FE00214FF40030FFF7ECFE2D
:100E20000BE0AB48844208D101218804FFF7E4FEBF
:100E300000214FF48020FFF7DFFE10BD0022028862
:100E4000944B98420ED0994B98420BD0B0F1804F02
:100E500008D0914B984205D0904B984202D0904BCD
:100E6000984204D14FF68F731A404B881A438D4B2A
:100E7000984207D08C4B984204D04FF6FF431A405B
:100E8000CB881A4302808B8883850B880385814B2E
:100E900098420BD0854B984208D08B4B984205D096
:100EA0008A4B984202D08A4B984201D10B7A038632
:100EB00001238382704770B5002400220023058C33
:100EC0004FF6FE7635400584028C8388048B4FF6FE
:100ED0008F752C40B51E2C400D882C43751E2A4062
:100EE0000D892A434D882A436A4DA8420BD06F4D85
:100EF000A84208D0744DA84205D0744DA84202D033
:100F0000734DA84213D14FF6F7752A404D892A43F5
:100F10004FF6FB752A408D882A434FF6FF652B401C
:100F20004FF6FF552B408D892B43CD892B43838072
:100F30000483CD888586028470BD70B500240022AC
:100F40000023058C4FF6EF7635400584028C8388AC
:100F5000048B48F6FF752C404FF6FF452C400D885A
:100F60004FF6FF7606EA05252C434FF6DF752A403B
:100F70000D8906EA05152A434D8806EA05152A4318
:100F8000444DA84202D0494DA8421DD14FF67F756D
:100F90002A404D894FF6FF7606EA05152A434FF69B
:100FA000BF752A408D8806EA05152A434FF6FF359E
:100FB0002B404FF2FF752B408D8906EA85052B43A8
:100FC000CD8906EA85052B4383800483CD88058778
:100FD000028470BD70B5002400220023058C4FF6FA
:100FE000FF6635400584028C8388848B4FF68F75AD
:100FF0002C404FF6FC752C400D882C434FF6FF55C6
:101000002A400D894FF6FF7606EA05252A434D88CA
:1010100006EA05252A431F4DA84202D0234DA842C7
:101020001DD14FF2FF752A404D894FF6FF7606EA33
:1010300005252A434FF6FF352A408D8806EA052507
:101040002A434EF6FF752B404DF6FF752B408D89D8
:1010500006EA05152B43CD8906EA05152B43838047
:101060008483CD888587028470BD70B500220023FB
:101070000024058C4EF6FF7635400584038C848869
:10108000828B48F6FF752A404FF6FF452A400D88AF
:1010900020E00000002C0140000400400008004057
:1010A000000C0040001000400014004000340140DB
:1010B000004C014000500140005401400018004025
:1010C000001C00400020004000400140004401405E
:1010D000004801404FF6FF7606EA05252A434DF603
:1010E000FF752B400D8906EA05352B434D8806EA2E
:1010F00005352B43FA4DA84202D0FA4DA84208D13B
:101100004BF6FF752C408D894FF6FF7606EA851564
:101110002C4384808283CD88A0F84050038470BD26
:10112000828B4FF2FF331A408283828B4FF6FF731C
:1011300003EA01231A4382837047F0B50C46154633
:10114000002200210026078C4EF6FF7C07EA0C07E0
:101150000784828B018C4FF6FF7707EA043640F64E
:10116000FF473A404FF6FF7707EA05273A434FF625
:10117000FF7707EA03373A43D94FB8420ED0D94F29
:10118000B8420BD0B0F1804F08D0D74FB84205D04D
:10119000D64FB84202D0D64FB84206D14DF6FF77AF
:1011A000394046F48057394305E047F6FF57394048
:1011B00044F48057394382830184F0BD828B4FF61B
:1011C000F3731A408283828B0A4382837047F0B59F
:1011D0000C461546002200210026078C4FF6FF6CB6
:1011E00007EA0C070784828B018C4FF6FF7707EA2A
:1011F00004264FF60C773A404FF6FF7707EA0317BD
:101200002F433A43B64FB8420ED0B64FB8420BD038
:10121000B0F1804F08D0B44FB84205D0B34FB842B8
:1012200002D0B34FB84206D14FF6FF57394046F4CB
:101230008077394305E04FF2FF57394044F4807717
:10124000394382830184F0BD028B4FF2FF331A4091
:101250000283028B4FF6FF7303EA01231A430283D2
:101260007047F0B50C461546002200210026078C79
:101270004FF6EF7C07EA0C070784028B018C4FF6D0
:10128000FF7707EA041640F6FF473A404FF6FF772C
:1012900007EA03373A434FF6FF7707EA05273A4351
:1012A0008F4FB8420ED08F4FB8420BD0B0F1804F65
:1012B00008D08D4FB84205D08C4FB84202D08C4F29
:1012C000B84206D14FF6DF77394046F01007394370
:1012D00005E04FF65F77394044F010073943028349
:1012E0000184F0BD028B4FF6F3731A400283028B28
:1012F0000A4302837047F0B50C46154600220021D0
:10130000068C4FF6FE773E400684028B018C4FF62A
:101310000C7632407E1C06EA03162E433243704E92
:10132000B0420ED06F4EB0420BD0B0F1804F08D01B
:101330006D4EB04205D06D4EB04202D06C4EB04200
:1013400006D14FF6FD76314044F00106314305E009
:101350004FF6F576314044F00106314302830184B3
:10136000F0BD70B505460C465D4885420ED05D481F
:1013700085420BD0B5F1804F08D05B48854205D03F
:101380005A48854202D05A48854200D100E000BF49
:10139000208850B92389A28861882846FFF7ABFFCF
:1013A000E1882846FFF79EFF25E0208804280AD11F
:1013B0002389A28861882846FFF753FFE1882846E1
:1013C000FFF742FF17E0208808280AD12389A28866
:1013D00061882846FFF7FBFEE1882846FFF7EEFE0E
:1013E00009E02389A28861882846FFF7A6FEE188E4
:1013F0002846FFF795FE70BD2DE9F04105460C46E5
:1014000000260127608808B9022600E00026A0888F
:10141000012801D1022700E001272088A0B92389F3
:10142000A28861882846FFF766FFE1882846FFF713
:1014300059FF23893A4631462846FFF712FFE188D3
:101440002846FFF701FF13E02389A2886188284618
:10145000FFF707FFE1882846FFF7F6FE23893A46A3
:1014600031462846FFF747FFE1882846FFF73AFF55
:10147000BDE8F0810A884B881A438B881A43CB88D1
:101480001A430B891A434B891A438B891A43A0F8D4
:10149000442070474FF6FF71818000210180C18098
:1014A0004180017270470021018041808180C180AC
:1014B000018141818181C18170470021018041808A
:1014C000012181800021C1800181704700210180BC
:1014D00041808180C180018141818181704700000C
:1014E000002C01400034014000040040000800408E
:1014F000000C004021B1028842F00102028004E0A9
:1015000002884FF6FE731A400280704731B1B0F87E
:10151000442042F40042A0F8442005E0B0F8442002
:10152000C2F30E02A0F8442070471AB183890B431E
:10153000838102E083898B43838170478182704776
:1015400041EA0203A0F8483070471AB183890B437F
:10155000838102E083898B438381704701894FF641
:10156000F8721140018170470A46002101894FF647
:101570008F73194011430181704730B504460D4601
:1015800029462046FFF7F0FF208940F00700208120
:1015900030BD2DE9F04104460D4616461F46602D2C
:1015A00006D13B46012231462046FFF75AFE05E0B0
:1015B0003B46012231462046FFF79DFE2946204644
:1015C000FFF7D2FF208940F007002081BDE8F081BD
:1015D00030B50C4600210189C9B24FF6FF7505EA06
:1015E0000325154325432943018130BD2DE9F041F1
:1015F00005460E4617469846002443463A4631466D
:101600002846FFF7E5FF2C894FF6F870044044F0B8
:1016100007044FF68F70044044F070042C81BDE83D
:10162000F081F0B504460D4616461F463B4632464D
:1016300029462046FFF7CCFF208940F480402081D6
:10164000F0BD0185828270470A46002101884FF66D
:101650008F731940114301807047F0B50C46154651
:101660001E460021002200230189028B038C4FF6C5
:10167000F877394021434FF6FC473A4040F20117D2
:101680003A434FF6DD773B404FF6FF7707EA061700
:101690002F433B43018102830384F0BD0A460021AE
:1016A000018B4FF68F7319401143018370470A462F
:1016B0000021018B48F6FF7319404FF6FF7303EAD0
:1016C00002231943018370470A460021818B4FF69C
:1016D0008F7319401143818370470A460021818B23
:1016E00048F6FF7319404FF6FF7303EA02231943CC
:1016F0008183704721B1028842F08002028004E0B9
:1017000002884FF67F731A400280704721B18288A9
:1017100042F00402828004E082884FF6FB731A4094
:101720008280704721B1828842F00802828004E002
:1017300082884FF6F7731A408280704721B1828801
:1017400042F00102828004E082884FF6FE731A4064
:10175000828070470A460021018B4FF6F7731940CB
:101760001143018370470A460021018B4FF2FF733A
:1017700019404FF6FF7303EA0223194301837047B0
:101780000A460021818B4FF6F7731940114381837C
:1017900070470A460021818B4FF2FF7319404FF6C4
:1017A000FF7303EA02231943818370470A4600212D
:1017B000018B4FF6FB7319401143018370470A46B2
:1017C0000021018B4FF6FF3319404FF6FF7303EAF8
:1017D00002231943018370470A460021818B4FF68B
:1017E000FB7319401143818370470A460021818BA6
:1017F0004FF6FF3319404FF6FF7303EA02231943F4
:10180000818370470A460021018B4FF67F73194090
:101810001143018370470A460021018BC1F30E0179
:101820004FF6FF7303EA02231943018370470A4608
:101830000021818B4FF67F731940114381837047DC
:101840000A460021818BC1F30E014FF6FF7303EAB4
:1018500002231943818370470A460021018C4FF609
:10186000FD7319401143018470470A460021018C21
:101870004FF6F77319401143018470470A4600215F
:10188000018C4FF6DF7319404FF6FF7303EA021322
:101890001943018470470A460021018C4FF67F737B
:1018A00019404FF6FF7303EA02131943018470478E
:1018B0000A460021018C4FF6FF5319404FF6FF7383
:1018C00003EA02231943018470470A460021018C70
:1018D0004FF2FF7319404FF6FF7303EA02231943D7
:1018E000018470470A460021018C4DF6FF731940B0
:1018F0004FF6FF7303EA023319430184704730B592
:10190000002301248C40A3B2048C9C430484048CE7
:1019100002FA01F5ADB22C43048430BD30B500238A
:1019200004248C40A3B2048C9C430484048C02FAEB
:1019300001F5ADB22C43048430BD70B503460020E0
:1019400000241846183001258D40ACB21D8CA543EB
:101950001D8409B1082909D100EB6100056825F053
:10196000700505600568154305600EE00D1FC5F3A1
:101970004E052844056825F4E045056005684FF6E6
:10198000FF7606EA02263543056070BD21B1028864
:1019900042F00202028004E002884FF6FD731A4012
:1019A0000280704721B1028842F00402028004E004
:1019B00002884FF6FB731A400280704721B182887B
:1019C00042F08002828004E082884FF67F731A40E2
:1019D0008280704702884FF6F7731A4002800288AF
:1019E0000A430280704782884FF68F731A408280C4
:1019F00082880A438280704702894FF6F8731A4042
:101A0000028102890A430281704702894FF67F737F
:101A10001A40028102890A4302817047818470471B
:101A2000818570478186704701877047818770473D
:101A3000A0F84010704702884FF6FF431A4002801A
:101A400002880A43028070470146888E704701462B
:101A5000088F70470146888F70470146B1F84000F3
:101A600070470146888C70470146088D70470246D2
:101A70000020138A0B4201D0012000E000207047B3
:101A8000CA430282704730B502460020002300247A
:101A9000158A05EA0103958905EA010413B10CB121
:101AA000012000E0002030BDCA43028270470000E0
:101AB00010B50446FE48844209D101214806FFF7CB
:101AC000A8F800214FF00070FFF7A3F808E001210B
:101AD0008806FFF79EF800214FF08060FFF799F825
:101AE00010BD30B5024600200023146824F0020423
:101AF0001460146844F00104146000E05B1C546836
:101B000014F0010F03D1A3F57F44FF3CF6D15468D4
:101B100014F0010F01D100206CE08C79012C04D16C
:101B2000146844F08004146003E0146824F0800416
:101B30001460CC79012C04D1146844F04004146082
:101B400003E0146824F0400414600C7A012C04D1E2
:101B5000146844F02004146003E0146824F02004A6
:101B600014604C7A012C04D1146844F01004146001
:101B700003E0146824F0100414608C7A012C04D162
:101B8000146844F00804146003E0146824F00804A6
:101B90001460CC7A012C04D1146844F0040414605D
:101BA00003E0146824F0040414608C78A407CD7852
:101BB00044EA05640D7944EA05444D7944EA055444
:101BC0000D886D1E2C43D461146824F00104146048
:101BD000002300E05B1C546814F0010F03D0A3F550
:101BE0007F44FF3CF6D1546814F0010F01D000206F
:101BF00000E0012030BD10B50021837A012202FAF5
:101C000003F1AC4A126842F00102AA4B1A60A94AD9
:101C10001C3212688A43A74B1C331A60027BCAB974
:101C2000A44A0C3212688A43A24B0C331A604288D1
:101C3000C38842EA03439F4A4032847A42F83430F0
:101C40000288838842EA03439A4A4032847A02EB4C
:101C5000C4025360027B012A19D1964A0C321268E1
:101C60000A43944B0C331A604288038842EA0343C8
:101C7000904A4032847A42F83430C288838842EAFB
:101C800003438C4A4032847A02EBC4025360C27A26
:101C90003AB9884A121D12688A43864B1B1D1A6086
:101CA00006E0844A121D12680A43824B1B1D1A600B
:101CB000028932B97F4A143212688A437D4B143349
:101CC0001A600289012A06D17A4A143212680A433C
:101CD000784B14331A60427B012A06D1754A1C32B4
:101CE00012680A43734B1C331A60724A126822F05E
:101CF0000102704B1A6010BD00218171C171017227
:101D000041728172C1728170C1700321017102211F
:101D100041710121018070476649096841F0010164
:101D2000644A11601146096843F60E729143614A94
:101D300011601146096841EA0021116011460968E5
:101D400021F001011160704721B1026842F4803234
:101D5000026003E0026822F4803202607047E1B161
:101D6000026842F0800202604FF4C272125842F4DC
:101D700080734FF4C27213504FF4CA72125842F477
:101D800080734FF4CA7213504FF4D272125842F457
:101D900080734FF4D27213501BE0026822F080026D
:101DA00002604FF4C272125822F480734FF4C27270
:101DB00013504FF4CA72125822F480734FF4CA724F
:101DC00013504FF4D272125822F480734FF4D2722F
:101DD0001350704710B502460020936803F08063EB
:101DE000B3F1806F00D110E0936803F00063B3F1AA
:101DF000006F01D1012008E0936803F08053B3F134
:101E0000805F01D1022000E00420042879D002F58F
:101E1000C07303EB00131B6803F0010402F5C073E9
:101E200003EB00131C600B7A7BB94B7A0C8843EAF6
:101E3000445302F5C07404EB00142468234302F5F4
:101E4000C07404EB0014236010E00B7A4C6843EA82
:101E5000C4034C7A234302F5C07404EB00142468D5
:101E6000234302F5C07404EB001423608B7A03F063
:101E70000F038B7202F5C07303EB00135B6823F052
:101E80000F0402F5C07303EB00135C6002F5C0732E
:101E900003EB00135B688C7A234302F5C07404EBF8
:101EA000001463608B7B1C064B7B44EA034403E015
:101EB00000640040006600400B7B44EA0323CC7AB8
:101EC000234302F5C07404EB0014A3608B7C1C0652
:101ED0004B7C44EA03440B7C44EA0323CC7B23433E
:101EE00002F5C07404EB0014E36002F5C07303EB69
:101EF00000131B6843F0010402F5C07303EB0013E9
:101F00001C6010BD10B50246002321B1012907D085
:101F100002290FD109E09068F84C00EA04030BE0B5
:101F20009068F74C00EA040306E09068F54C00EA7C
:101F3000040301E0002300BF00BFF34C181BA342C1
:101F400016D007DC83B16FF0806018180ED002281D
:101F500018D111E0B0F5007F10D0EC4C001909D079
:101F6000B0F5003F0ED10BE002230DE000230BE0A3
:101F7000002309E0002307E0012305E0012303E03B
:101F8000012301E0002300BF00BFD8B210BD21B182
:101F9000012907D002290FD109E0826842F08002AE
:101FA00082600AE0826842F40042826005E0826852
:101FB00042F40002826000E000BF00BF704710B52D
:101FC00000F5D87303EB01131B6803F004031372CD
:101FD000137A53B900F5D87303EB01131B6840F271
:101FE000FF7404EA5353136009E000F5D87303EB60
:101FF00001131B686FF0604404EAD303536000F5DB
:10200000D87303EB01131B6803F00203537200F54E
:10201000D87303EB01135B6803F00F03937200F5B1
:10202000D87303EB01135B681B0AD37400F5D873F4
:1020300003EB01139B68D37200F5D87303EB011314
:102040009B681C0A147300F5D87303EB01139B689B
:102050001C0C547300F5D87303EB01139B681B0E23
:10206000937300F5D87303EB0113DB68D37300F5AA
:10207000D87303EB0113DB681C0A147400F5D873E2
:1020800003EB0113DB681C0C547400F5D87303EBED
:102090000113DB681B0E937421B9C36843F020035E
:1020A000C36003E0036943F02003036110BD21B95D
:1020B000C26842F02002C26003E0026942F02002DE
:1020C000026170470246002019B9D36803F003008B
:1020D00006E0012903D1136903F0030000E00020AA
:1020E000704710B502460B4600204FF6FF71BBB992
:1020F000146824F0020444F00104146000E0491E56
:10210000546804F00304012C01D00029F7D154686D
:1021100004F00304012C01D0002032E0012030E063
:10212000012B13D1146824F00304146000E0491E4D
:10213000546814F0030F01D00029F8D1546814F04A
:10214000030F01D000201CE001201AE0022B17D160
:10215000146824F0010444F00204146000E0491EF5
:10216000546804F00304022C01D00029F7D154680C
:1021700004F00304022C01D0002002E0012000E062
:10218000002010BD014600200A6822F0010242F042
:1021900002020A604A6802F00302022A00D101200A
:1021A000704701464FF6FF7200200B6823F00203D0
:1021B0000B6000E0521E4B6803F00203022B01D1BA
:1021C000002AF7D14B6803F00203022B00D0012054
:1021D0007047014600208A6902F07000704701468E
:1021E00000208A69100E7047014600208A69C2F3F8
:1021F000074070471AB143690B43436102E04369EA
:102200008B434361704710B50246002011F4700FF4
:1022100008D09369C1F31304234201D001202DE0BB
:1022200000202BE011F0807F08D05368C1F3130425
:10223000234201D0012021E000201FE011F0006FB7
:1022400008D09368C1F31304234201D0012015E0A4
:10225000002013E011F0007F08D0D368C1F313040D
:10226000234201D0012009E0002007E01369C1F3F7
:102270001304234201D0012000E0002010BD002201
:10228000234B994202D10023836111E0C1F3130271
:1022900011F0007F01D0C2600AE011F0806F01D020
:1022A000026105E011F0006F01D0826000E0426041
:1022B0007047024600200A4201D0012000E00020C1
:1022C000704770B504460D4600266069284272D0FA
:1022D000B5F5807F69D01DDC082D42D006DC012DCC
:1022E0002DD0022D31D0042D7FD134E0102D3ED0E1
:1022F000202D42D0402D78D145E00000030000049D
:102300000003000800000310000100080001FFF7AF
:102310007000F030B5F5004F61D009DCB5F5007FF5
:102320004AD0B5F5806F4DD0B5F5006F5DD150E066
:10233000B5F5803F2DD0B5F5003F56D12FE0A06810
:102340005549FFF7B6FF064651E0E0680321FFF765
:10235000B0FF06464BE0E0680821FFF7AAFF0646FB
:1023600045E0E0681021FFF7A4FF06463FE0206942
:102370000321FFF79EFF064639E020690821FFF799
:1023800098FF064633E020691021FFF792FF0646CA
:102390002DE060680821FFF78CFF064627E06068A3
:1023A0001021FFF786FF064621E0A0690121FFF713
:1023B00080FF06461BE01BE0A0690221FFF779FFC2
:1023C000064614E0A0690421FFF773FF06460EE0FD
:1023D0000BE0A0697021FFF76CFF064607E060681C
:1023E0000421FFF766FF064601E0002600BF00E07B
:1023F0000026304670BDB1F5007F3AD00FDC2029B1
:1024000028D006DC01291CD004291DD0082940D180
:102410001DE0402921D0B1F5807F3AD126E0B1F509
:10242000004F31D006DCB1F5806F25D0B1F5006FDB
:102430002FD124E0B1F5803F12D0B1F5003F28D173
:1024400011E0154A826025E00822C26022E01022D5
:10245000C2601FE0082202611CE01022026119E044
:102460000822426016E01022426013E0042242601B
:1024700010E0042242600DE0042242600AE00022E3
:1024800082610422426005E00022826104224260EF
:1024900000E000BF00BF704701010100064880470F
:1024A00006480047FEE7FEE7FEE7FEE7FEE7FEE739
:1024B000FEE7FEE7FEE7FEE79D250008ED000008C9
:1024C0000CB50020019000906B48006840F480300B
:1024D0006949086000BF6848006800F40030009057
:1024E0000198401C0190009818B90198B0F5A06FB0
:1024F000F1D16148006810F4003F02D00120009043
:1025000001E0002000900098012842D15B4800685B
:1025100040F01000594908600846006820F00300A8
:1025200008600846006840F00200086052484068B1
:10253000514948600846406848600846406840F491
:10254000806048600846406820F47C104860084677
:10255000406840F4E81048600846006840F0807029
:10256000086000BF4448006810F0007FFAD042487D
:10257000406820F00300404948600846406840F049
:102580000200486000BF3C48406800F00C0008288A
:10259000F9D10CBD10B5FFF793FF10BD10B536484B
:1025A000006840F00100344908600846406834493A
:1025B00008403149486008460068324908402E49C1
:1025C00008600846006820F48020086008464068DB
:1025D00020F4FE0048604FF41F008860FFF7DAFF28
:1025E0004FF000602849086010BD10B500210020A0
:1025F0000022214B5B6803F00C0121B1042906D0B5
:10260000082928D107E0214B214C236027E01F4BEC
:102610001F4C236023E0184B5B6803F47010164BCB
:102620005B6803F48032022303EB904022B9194B1C
:102630004343174C23600DE00F4B5B6813F4003FDE
:1026400004D0144B4343124C236003E00F4B43432D
:102650000F4C236003E00D4B0D4C236000BF00BF07
:10266000054B5B68C3F303130B4CE15C084B1B6821
:10267000CB40074C236010BD0010024000200240F8
:102680000000FFF8FFFFF6FE08ED00E000127A0000
:102690001C00002000093D002000002020F0004028
:1026A000C10DC0F3160040F400007F2901DA0020BC
:1026B0007047962903DCC1F19601C84070479639EE
:1026C00088407047064C074D06E0E06840F0010383
:1026D00094E8070098471034AC42F6D3FDF70AFDA2
:1026E000082700082827000802E008C8121F08C1B0
:1026F000002AFAD170477047002001E001C1121F83
:10270000002AFBD1704700002827000800000020A5
:1027100030000000E826000858270008300000209C
:1027200000040000F82600080000E1434501000015
:102730000000010203040102030406070809020461
:102740000608000000A24A0400000000000000008B
:08275000010203040607080959
:04000005080000ED02
:00000001FF
