:020000040800F2
:10000000D8F80120A15F0008910A0008930A0008AF
:10001000970A00089B0A00089F0A000800000000D9
:10002000000000000000000000000000A30A00081B
:10003000A50A000800000000A70A0008B95F000830
:10004000BB5F0008BB5F0008BB5F0008BB5F000828
:10005000BB5F0008BB5F0008BB5F0008BB5F000818
:10006000BB5F0008BB5F0008BB5F0008BB5F000808
:10007000BB5F0008BB5F0008BB5F0008BB5F0008F8
:10008000BB5F0008BB5F0008BB5F0008BB5F0008E8
:10009000BB5F0008BB5F0008BB5F0008BB5F0008D8
:1000A000BB5F0008BB5F0008BB5F0008BB5F0008C8
:1000B0008532000851310008BB5F0008BB5F0008B3
:1000C000BB5F0008BB5F0008BB5F0008BB5F0008A8
:1000D000BB5F0008BB5F0008772E0008BB5F00080D
:1000E000BB5F0008BB5F0008BB5F0008BB5F000888
:1000F000BB5F0008BB5F0008BB5F0008BB5F000878
:10010000BB5F0008BB5F0008BB5F0008BB5F000867
:10011000BB5F0008BB5F0008BB5F0008BB5F000857
:10012000BB5F0008A9090008BB5F0008BB5F0008AF
:10013000BB5F0008BB5F0008BB5F0008BB5F000837
:10014000BB5F0008BB5F0008BB5F0008BB5F000827
:10015000BB5F0008BB5F0008BB5F0008BB5F000817
:10016000BB5F0008BB5F0008BB5F0008BB5F000807
:10017000BB5F0008BB5F0008BB5F0008BB5F0008F7
:10018000BB5F0008BB5F0008DFF80CD006F0E0F9A9
:1001900000480047CD080008D8F8012010B50146F6
:1001A000C1F3C404C1F38523C1F3C442D00200EB00
:1001B0004310204480B210BD2DE9F84F0646884612
:1001C00014461F46DDE90A9A00250DE0CDF800A08F
:1001D00014F8012B082101FB056188B24B4641460A
:1001E00001F089FC681CC5B2BD42EFDBBDE8F88FA9
:1001F0002DE9FE4F82468B4691469846C34511D164
:10020000CA4501DC544601E04C46D14606E0594659
:1002100020460C9A01F0FEFB601C84B24C45F6DDD2
:10022000BDE8FE8FC34503DDABEB080087B202E0FB
:10023000A8EB0B0087B2CA4510D1C34501DC5D466F
:1002400001E04546D84606E0294650460C9A01F0A2
:10025000E1FB681C85B24545F6DDE1E7CA4507DDEF
:10026000AAEB090086B24C46D1464546D84604E082
:10027000A9EB0A0086B254465D46BE4211D10DE09C
:10028000601C84B2454502DD681E85B201E0681C31
:1002900085B2294620460C9A01F0BCFB4C45EFDDA7
:1002A000A2E0294620460C9A01F0B4FB45454DDA00
:1002B000BE4225DDC6EB470000B20290780000B2D6
:1002C0000190B81B400000B2009016E0601C84B2A0
:1002D0000298002805DADDE90110084400B2029016
:1002E00006E0681C85B200990298084400B20290AA
:1002F000294620460C9A01F08DFB4C45E6DB73E065
:10030000C7EB460000B20290700000B20190F01BF3
:10031000400000B2009016E0681C85B202980028E8
:1003200005DADDE90110084400B2029006E0601C25
:1003300084B200990298084400B2029029462046EF
:100340000C9A01F067FB4545E6DB4DE0BE4225DD3A
:10035000C6EB470000B20290780000B20190B81BD3
:10036000400000B2009016E0601C84B202980028A1
:1003700005DADDE90110084400B2029006E0681ECB
:1003800085B200990298084400B20290294620469E
:100390000C9A01F03FFB4C45E6DB25E0C7EB46003D
:1003A00000B20290700000B20190F01B400000B259
:1003B000009016E0681E85B20298002805DADDE993
:1003C0000110084400B2029006E0601C84B200995B
:1003D0000298084400B20290294620460C9A01F087
:1003E00019FBA845E6DB00BF00BF19E72DE9F84F70
:1003F00006460F469146984600244D460320A0EB42
:1004000049000FFA80FAA6E00A98E0B307EB050C62
:100410001FFA8CF3A6EB040C1FFA8CF207EB050C09
:100420001FFA8CF106EB040C1FFA8CF0CDF800805B
:10043000FFF7DEFEA7EB050C1FFA8CF3A6EB040C0E
:100440001FFA8CF2A7EB050C1FFA8CF106EB040CDB
:100450001FFA8CF0CDF80080FFF7CAFE07EB040C02
:100460001FFA8CF3A6EB050C1FFA8CF207EB040CB9
:100470001FFA8CF106EB050C1FFA8CF0CDF800800A
:10048000FFF7B6FE00E014E0A7EB040C1FFA8CF3B4
:10049000A6EB050C1FFA8CF2A7EB040C1FFA8CF1EB
:1004A00006EB050C1FFA8CF0CDF80080FFF7A0FEDC
:1004B00037E07A1991B2321990B2424601F0AAFAA5
:1004C0007A1991B2321B90B2424601F0A3FA7A1B1C
:1004D00091B2321990B2424601F09CFA7A1B91B265
:1004E000321B90B2424601F095FA3A1991B2721954
:1004F00090B2424601F08EFA3A1991B2721B90B254
:10050000424601F087FA3A1B91B2721990B2424604
:1005100001F080FA3A1B91B2721B90B2424601F090
:1005200079FA601C84B2BAF1000F0EDB681E85B246
:10053000A0000FFA80FBABEB85000FFA80FB0BF1FC
:100540000A0050440FFA80FA05E0062000EB840010
:1005500050440FFA80FAA5423FF756AFBDE8F88F36
:100560002DE9F84F0546884616469946DDE90A7A90
:10057000BAF1000F13D0B54202DD34462E4600E03A
:100580002C4608E04B462246414620460097FFF79E
:100590002FFE601C84B2B442F4DDBDE8F88F4B46F8
:1005A0002A46414628460097FFF722FE4B46324630
:1005B000494628460097FFF71BFE43463246494608
:1005C00030460097FFF714FE43462A464146304620
:1005D0000097FFF70DFE00BFDFE72DE9FC41054660
:1005E0000E4614461F46DDF82080301983B22819C4
:1005F00082B231462846CDE90078FFF7B1FFBDE869
:10060000FC8100001CB50021084600F0A6FB22205A
:10061000F24908804FF6FF7000210923F0A2CDE9CE
:1006200000103C210020FFF7C7FDF04890ED000AC4
:10063000B8EEC00A3C21782002F0C1FD4FF6FF70F1
:1006400000210C23EAA2CDE9001050210020FFF781
:10065000B3FDEB4890ED000AB8EEC00A50217820B7
:1006600002F0ADFD4FF6FF7000210823E5A2CDE9B1
:10067000001064210020FFF79FFDE54890ED000A7F
:10068000B8EEC00A6421782002F099FD4FF6FF70A1
:1006900000210923DFA2CDE9001078210020FFF717
:1006A0008BFDDF4890ED000AB8EEC00A78210846BD
:1006B00002F085FD4FF6FF7000210B23D9A2CDE992
:1006C00000108C210020FFF777FDDA4890ED000A3A
:1006D000B8EEC00A8C21782002F071FD4FF6FF7051
:1006E00000210523D4A2CDE90010A0210020FFF7AE
:1006F00063FDD34890ED000AB8EEC00AA02178202F
:1007000002F05DFD4FF6FF7000210E23CDA2CDE972
:100710000010B4210020FFF74FFDCE4890ED000AF5
:10072000B8EEC00AB421782002F049FD1CBD70B5B6
:100730000021084600F011FB2220A849088000246F
:1007400019E000250AE004EB8400C349096801EBC5
:100750000010405DA149891C08806D1C502DF2DB02
:10076000502604E000209D49891C0880761CB6F5BF
:10077000A07FF7DB641C322CE3DB70BDB748007848
:10078000282807DAB5480078002803DD0120B4499D
:1007900008600AE0B1480078282806DDAF480078F4
:1007A000502802DA0020AE490860AD4800680128F0
:1007B00006D1AA48007818B90020A849087008E0B6
:1007C000A748006828B9A548007810B95020A34967
:1007D00008707047704710B59F480168A14801F044
:1007E00048FE01F0D8FE9C48006801F07DFF9A4861
:1007F000006802F02AF910BD10B5974801689948C1
:1008000001F037FE01F0C7FE9348006801F06CFF6D
:100810009148006802F019F910BD10B58E480168C2
:10082000904801F026FE01F0B6FE8B48006801F00A
:100830005BFF8948006802F008F910BD10B58648D2
:100840000168884801F015FE01F0A5FE10BD10B545
:1008500081480168834801F092FD7F48006801F0FB
:1008600043FF7D48006802F0F0F810BD10B57A48EB
:1008700001687C4801F083FD7748006801F034FF8F
:100880007548006802F0E1F810BD10B50446072C69
:100890001AD2DFE804F004070A0D10131600FFF760
:1008A000E5FF11E0FFF7D3FF0EE0FFF7C7FF0BE016
:1008B000FFF7B3FF08E0FFF79FFF05E0FFF78BFFAF
:1008C00002E0FFF787FF00BF00BF10BD05F0CFFAC1
:1008D0004FF4A06002F090FD00F002F900F09FFAE2
:1008E0004FF4E13002F06CFA40F6B831642002F0C7
:1008F0009BFC08E05C48406980F400405A4948612C
:10090000322000F0D1F801F0BDFA0128F2D04FF406
:100910000041554802F0CCFEC82000F0C5F801F0B7
:1009200099FAC82000F0C0F84FF47A71C82002F09C
:10093000E9FA38E04D48006878B100204B4908607A
:1009400002224B494B4802F02FFD494800783C49B0
:10095000086047484078374908604748006870B1E8
:1009600037480078454908703248007848700020C0
:1009700041490860022241493E4802F0CCFC40480F
:10098000007880B101F04DFE18480068FFF77DFF48
:10099000FFF7F4FEFFF7CBFEFFF734FE3848007890
:1009A000401E37490870C5E710B53649364804F08F
:1009B00032FC90B13549344804F0FCFB31493248EF
:1009C00004F052FC002004F055FA2D480078401C39
:1009D0002B490870012004F04DFA10BDFEFF1F6C7A
:1009E0005461736B5F666C61673A0000840000209D
:1009F000436F6C756D6E5F706F696E743A000000C6
:100A000058000020526F775F4D6964703A00000013
:100A100074000020626C61636B5F6E756D3A00005C
:100A200020000020636F6C6F725F54687265733AC8
:100A3000000000003000002054687265733A000026
:100A4000280000206469735F64657465635F666C89
:100A500061673A00340000201C000020670000207D
:100A600014000020D80000200000024008000020F0
:100A70001800002004C000080C0000201100002015
:100A800000000020008800102864024000080010C8
:100A9000704700BFFEE700BFFEE700BFFEE700BFF4
:100AA000FEE770477047704710B5002107E04AF233
:100AB000104200BF1300A2F10102FBD1491C814288
:100AC000F5D310BD10B5002106E0282200BF1300A9
:100AD000A2F10102FBD1491C8142F6D310BD0000F6
:100AE0001CB50121084602F0ADFF4FF40040009014
:100AF00001208DF8040000208DF8060001208DF8FB
:100B0000050000208DF807006946044802F054FDF6
:100B10004FF40041014802F0CDFD1CBD0000024031
:100B20001CB50121084602F0AFFF0121FA2002F0B6
:100B300089FF0C220021F74802F0C9FD0C22012197
:100B4000F44802F0C4FD0C220421F24802F0BFFD7B
:100B50000C220521EF4802F0BAFD0C220821ED48D5
:100B600002F0B5FD0C220921EA4802F0B0FD0C228A
:100B70000A21E84802F0ABFD0C220E21E54802F004
:100B8000A6FD0C220F21E34802F0A1FD4CF23370C8
:100B9000009003208DF8050002208DF8040000204D
:100BA0008DF806008DF807006946DA4802F004FD6A
:100BB0000C220721D84802F08AFD0C220821D648D1
:100BC00002F085FD0C220921D34802F080FD0C22A1
:100BD0000A21D14802F07BFD0C220B21CE4802F005
:100BE00076FD0C221146CC4802F071FD0C220D213D
:100BF000C94802F06CFD0C220E21C74802F067FDC7
:100C00000C220F21C44802F062FD4FF68070009064
:100C10006946C14802F0D0FC0C220421BE4802F013
:100C200056FD102000906946BB4802F0C5FC0C221E
:100C30001146BA4802F04BFD4FF4805000906946CF
:100C4000B64802F0B9FC4020009002208DF8050063
:100C500001208DF8040000208DF806008DF80700B3
:100C60006946AF4802F0A8FC4021AD4802F022FDE1
:100C70001CBD00B597B0052001900020029009200E
:100C8000039000200490059006900790062008909D
:100C9000002009900A9010200B9000200C900E90DC
:100CA0000F9010904FF480501190002012901390EC
:100CB000149001A81590169008A804F015FB0121C6
:100CC000062004F0BAFB17B000BD10B5FFF728FFEF
:100CD000FFF7CFFF10BD934A1080921C1180704720
:100CE0000146904A921C108870478E4908887047C8
:100CF0008C490880704722208A49088070478949BA
:100D0000891C088070472222864B1A809A1C118801
:100D10004A1C91B29A1C1088704710B503460C46C5
:100D200021120620FFF7D7FF21460720FFF7D3FF48
:100D300019120220FFF7CFFF19460320FFF7CBFF60
:100D400010BD014606E040F6FF7200E0521E002A88
:100D5000FCD1491E0029F6D1704710B503460C4658
:100D600071480088A0F5094189390BD121464E20F0
:100D7000FFF7B1FF40F23F10C01A81B24F20FFF7DA
:100D8000AAFF19E068480088A0F51941193908D16F
:100D900019464E20FFF79FFF21464F20FFF79BFF8C
:100DA0000AE021462020FFF796FF40F23F10C01ACC
:100DB00081B22120FFF78FFF10BDF0B504460F462A
:100DC00015461E4639462046FFF7C7FF21465020EC
:100DD000FFF781FF39465220FFF77DFF294651205A
:100DE000FFF779FF31465320FFF775FFF0BD30B5AF
:100DF0000446002500210846FFF7AFFFFFF77BFF01
:100E000000BF03E04748801C04806D1CB5F5963F89
:100E1000F8D330BD01B50098FFF746FE08BD10B508
:100E2000FFF753FF1920FFF73FFE0020FFF758FFA1
:100E30003D4908800520FFF737FE0020FFF750FFEF
:100E40003949088008460088A0F51341253905D0A6
:100E500035480088A0F51341283967D14021304832
:100E600002F026FC43F20801E320FFF734FF1221D1
:100E7000E720FFF730FF41F23121EF20FFF72BFF92
:100E800001210020FFF727FF4FF480710120FFF7B9
:100E900022FF4FF4E0610220FFF71DFF41F208013D
:100EA0000320FFF718FF00210420FFF714FF40F292
:100EB00007210820FFF70FFF00210920FFF70BFF94
:100EC00000210A20FFF707FF01210C20FFF703FF95
:100ED00000210D20FFF7FFFE00210F20FFF7FBFE92
:100EE00000211020FFF7F7FE07211120FFF7F3FE86
:100EF00000211220FFF7EFFE00211320FFF7EBFE89
:100F00004CF2503401E0601E84B2002CFBDC4CF249
:100F100050340EE0000C0240001002400018024065
:100F2000001C0240FEFF1F6C1A000020FDE0601E46
:100F300084B2002CFBDC41F290511020FFF7CBFE75
:100F400040F227211120FFF7C6FE4CF2503401E099
:100F5000601E84B2002CFBDC4CF2503401E0601EB9
:100F600084B2002CFBDC9C211220FFF7B4FE4CF273
:100F7000503401E0601E84B2002CFBDC4CF2503493
:100F800001E0601E84B2002CFBDC4FF4C85113203A
:100F9000FFF7A1FE23212920FFF79DFE0E212B2024
:100FA000FFF799FE4CF2503401E0601E84B2002C31
:100FB000FBDC4CF2503401E0601E84B2002CFBDC00
:100FC00000212020FFF787FE00212120FFF783FE6C
:100FD0004CF2503401E0601E84B2002CFBDC4CF279
:100FE000503401E0601E84B2002CFBDC072130206D
:100FF000FFF771FE40F207713120FFF76CFE06210A
:101000003220FFF768FE40F204713520FFF763FEDF
:1010100041F604713620FFF75EFE04213720FFF70A
:101020005AFE00213820FFF756FE40F206713920A3
:10103000FFF751FE40F201713C20FFF74CFE0F21FB
:101040003D20FFF748FE4CF2503401E0601E84B2B0
:10105000002CFBDC4CF2503401E0601E84B2002C0A
:10106000FBDC00215020FFF736FEEF215120FFF777
:1010700032FE00215220FFF72EFE40F23F11532096
:10108000FFF729FE4FF427416020FFF724FE0121DE
:101090006120FFF720FE00216A20FFF71CFE0021DF
:1010A0008020FFF718FE00218120FFF714FE0021A9
:1010B0008220FFF710FE00218320FFF70CFE0021A5
:1010C0008420FFF708FE00218520FFF704FE102191
:1010D0009020FFF700FE4FF4C0619220FFF7FBFD68
:1010E000FE480088A0F51341283910D10321932030
:1010F000FFF7F1FD4FF488719520FFF7ECFD00211B
:101100009720FFF7E8FD00219820FFF7E4FD40F26B
:1011100033110720FFF7DFFD00212020FFF7DBFD63
:1011200000212120FFF7D7FD5DE2EC480088A0F503
:101130001341203904D0E9480088B0F5134F7CD121
:1011400000210846FFF7C7FD4FF480710120FFF72B
:10115000C2FD4FF4E0610220FFF7BDFD41F218012E
:101160000320FFF7B8FD00210420FFF7B4FD40F293
:1011700002210820FFF7AFFD00210920FFF7ABFD9A
:1011800000210A20FFF7A7FD01210C20FFF7A3FD96
:1011900000210D20FFF79FFD00210F20FFF79BFD91
:1011A0004CF2503401E0601E84B2002CFBDC4CF2A7
:1011B000503401E0601E84B2002CFBDC40F20111CF
:1011C0000720FFF788FD4CF2503401E0601E84B226
:1011D000002CFBDC4CF2503401E0601E84B2002C89
:1011E000FBDC4FF486511020FFF775FD072111201D
:1011F000FFF771FD4FF488711220FFF76CFD4FF47B
:1012000030611320FFF767FD00212920FFF763FD00
:1012100044F210012B20FFF75EFD00215020FFF764
:101220005AFDEF215120FFF756FD00215220FFF714
:1012300052FD40F23F11532000E045E0FFF74BFD27
:101240004FF41C516020FFF746FD01216120FFF79C
:1012500042FD00216A20FFF73EFD00218020FFF7BC
:101260003AFD00218120FFF736FD00218220FFF7A3
:1012700032FD00218320FFF72EFD00218420FFF79F
:101280002AFD00218520FFF726FD10219020FFF781
:1012900022FD00219220FFF71EFD01219320FFF780
:1012A0001AFD4FF488719520FFF715FD0021972056
:1012B000FFF711FD00219820FFF70DFD40F273119B
:1012C0000720FFF708FD70E384480088A0F513416C
:1012D00031397CD141F21401E720FFF7FCFC4FF4D7
:1012E00080710120FFF7F7FC4FF400710220FFF737
:1012F000F2FC41F230010320FFF7EDFC40F2022145
:101300000820FFF7E8FC00210920FFF7E4FC00219A
:101310000A20FFF7E0FC00210C20FFF7DCFC002195
:101320000D20FFF7D8FC00210F20FFF7D4FC00218F
:101330001020FFF7D0FC07211120FFF7CCFC002183
:101340001220FFF7C8FC00211320FFF7C4FCC820BF
:10135000FFF760FD41F290611020FFF7BCFC40F206
:1013600027211120FFF7B7FC3220FFF753FD0C2196
:101370001220FFF7B0FC3220FFF74CFD4FF4006164
:101380001320FFF7A8FC11212920FFF7A4FC0B2153
:101390002B20FFF7A0FC3220FFF73CFD002120208E
:1013A000FFF799FC00212120FFF795FC0021302058
:1013B000FFF791FC4FF483713120FFF78CFC002183
:1013C0003220FFF788FC4FF40171352000E075E012
:1013D000FFF781FC41F20A613620FFF77CFC40F206
:1013E00007713720FFF777FC4FF483713820FFF740
:1013F00072FC40F207713920FFF76DFC40F20241A8
:101400003C20FFF768FC40F60F413D20FFF763FCEE
:1014100000215020FFF75FFCEF215120FFF75BFC1C
:1014200000215220FFF757FC40F23F115320FFF7F5
:1014300052FC4FF41C516020FFF74DFC012161204C
:10144000FFF749FC00216A20FFF745FC00218020BE
:10145000FFF741FC00218120FFF73DFC00218220A5
:10146000FFF739FC00218320FFF735FC00218420A1
:10147000FFF731FC00218520FFF72DFC1021902083
:10148000FFF729FC4FF4C0619220FFF724FC2121D3
:101490000720FFF720FC3220FFF7BCFC612107206A
:1014A000FFF719FC3220FFF7B5FC40F2331107209B
:1014B000FFF711FC3220FFF7ADFC76E20748008809
:1014C000A0F5194119397DD106212820FFF703FC29
:1014D00001210020FFF7FFFB002101E01A0000209E
:1014E0001020FFF7F8FB47F2EF210120FFF7F3FB95
:1014F0004FF4C0610220FFF7EEFB46F638210320CF
:10150000FFF7E9FB46F674011120FFF7E4FB002129
:101510000F20FFF7E0FB45F208310B20FFF7DBFB64
:1015200003210C20FFF7D7FB0A210D20FFF7D3FB87
:101530004FF438510E20FFF7CEFBBE211E20FFF7DF
:10154000CAFB4FF400412520FFF7C5FB4FF4F041E3
:101550002620FFF7C0FB78212720FFF7BCFB0021E6
:101560004E20FFF7B8FB00214F20FFF7B4FB40F6F9
:10157000D9011220FFF7AFFB00213020FFF7ABFBB2
:101580004FF482713120FFF7A6FB4FF480713220B7
:10159000FFF7A1FB40F205313320FFF79CFB40F23F
:1015A00005513420FFF797FB40F205313520FFF756
:1015B00092FB40F207713620FFF78DFB4FF440712C
:1015C000372000E010E0FFF786FB4FF490513A20FF
:1015D000FFF781FB4FF400613B20FFF77CFB3321D9
:1015E0000720FFF778FBE0E1FB480088A0F5A85151
:1015F00005397DD10720FFF76EFB0520FFF70AFCB8
:101600004FF48E711220FFF766FB0121A420FFF733
:1016100062FB0F210820FFF75EFB08210A20FFF77D
:101620005AFB08210D20FFF756FB40F207713020CE
:10163000FFF751FB07213120FFF74DFB40F203611B
:101640003220FFF748FB4FF4E0613320FFF743FB04
:1016500040F202213420FFF73EFB02213520FFF744
:101660003AFB41F60F713620FFF735FB40F2077168
:101670003720FFF730FB00213820FFF72CFB00213B
:101680003920FFF728FB40F207713A20FFF723FBD0
:1016900000213B20FFF71FFB07213C20FFF71BFB2E
:1016A00000213D20FFF717FB0520FFF7B3FB0121C9
:1016B0000720FFF710FB01211720FFF70CFB052087
:1016C000FFF7A8FB4FF4BD511020FFF704FB40F2D9
:1016D00017211120FFF7FFFA4FF48F711220FFF747
:1016E000FAFA4FF470611320FFF7F5FA002100E0D9
:1016F00094E02A20FFF7EFFA0A212920FFF7EBFAFE
:101700004FF49F711220FFF7E6FA00215020FFF7F7
:10171000E2FAEF215120FFF7DEFA00215220FFF715
:10172000DAFA40F23F115320FFF7D5FA4FF41C517B
:101730006020FFF7D0FA01216120FFF7CCFA0021E9
:101740006A20FFF7C8FA00218020FFF7C4FA0021C1
:101750008120FFF7C0FA00218220FFF7BCFA0021A8
:101760008320FFF7B8FA00218420FFF7B4FA0021A4
:101770008520FFF7B0FA13219020FFF7ACFA4FF461
:1017800040719220FFF7A7FA05219320FFF7A3FAF3
:1017900000219520FFF79FFA00219720FFF79BFA81
:1017A00000219820FFF797FA4FF480710120FFF78E
:1017B00092FA4FF4E0610220FFF78DFA41F2300116
:1017C0000320FFF788FA00210420FFF784FA0021A4
:1017D0000C20FFF780FA00210F20FFF77CFA002190
:1017E0002020FFF778FA00212120FFF774FA212149
:1017F0000720FFF770FA1420FFF70CFB6121072088
:10180000FFF769FA1420FFF705FB40F27311072078
:10181000FFF761FA1420FFF7FDFAC6E06E48008872
:10182000A0F509418939F8D101210020FFF753FAC9
:101830004AF6A4010320FFF74EFA00210C20FFF71F
:101840004AFA40F60C010D20FFF745FA4FF42C51EF
:101850000E20FFF740FAB0211E20FFF73CFA42F6B7
:101860003F310120FFF737FA4FF4C0610220FFF744
:1018700032FA00211020FFF72EFA46F278011120EB
:10188000FFF729FA00210520FFF725FA002106209D
:10189000FFF721FA4EF61C711620FFF71CFA032100
:1018A0001720FFF718FA40F233210720FFF713FA49
:1018B00000210B20FFF70FFA00210F20FFF70BFA92
:1018C00000214120FFF707FA00214220FFF703FA29
:1018D00000214820FFF7FFF940F23F114920FFF7B0
:1018E000FAF900214A20FFF7F6F900214B20FFF713
:1018F000F2F94FF46F414420FFF7EDF90021452044
:10190000FFF7E9F940F23F114620FFF7E4F940F212
:1019100007713020FFF7DFF94FF401713120FFF735
:10192000DAF94FF401713220FFF7D5F940F2025194
:101930003320FFF7D0F940F207513420FFF7CBF9FD
:101940004FF401713520FFF7C6F94FF401713620CD
:10195000FFF7C1F940F202513720FFF7BCF940F21E
:1019600002313A20FFF7B7F940F202313B20FFF78E
:10197000B2F900212320FFF7AEF900212420FFF760
:10198000AAF94FF400412520FFF7A5F900214E20C8
:10199000FFF7A1F900214F20FFF79DF90020FFF785
:1019A00026FA40210D4801F083FE4CF2503401E04C
:1019B000601E84B2002CFBDC4FF4FA70FFF774F861
:1019C0001F20FFF714FA4FF4FA70FFF76DF84FF489
:1019D0007840FFF70CFA10BD1A000020001C0240EE
:1019E00030B5014601F01F04C1F34513CA0AE502F0
:1019F00005EB43151544A8B230BD70B504460D463D
:101A000029462046FFF7A9F9FFF77DF90646FFF7BB
:101A1000E7FF70BD70B506460C461546B6F5A07FCB
:101A200001DCF02C00DD70BD21463046FFF795F952
:101A3000FFF761F92846FFF762F900BFF3E72DE9E8
:101A4000FF4F83B082460E461F46109CD146354656
:101A50000599A1EB0A01491CBA1B521C01FB02F0BB
:101A600000EBD07149100191002002903CE034F865
:101A700002BB34F8028B4FF4FC6000EA6B10CBF32E
:101A8000C40108434FF4784101EA0821084300905B
:101A900029464846009AFFF7BDFF681C85B2BD4243
:101AA00004DD09F101001FFA80F93546C34634F818
:101AB000028B4FF4FC6000EAC80040EADB2008F427
:101AC00078410843009029464846009AFFF7A2FF54
:101AD000681C85B2BD4204DD09F101001FFA80F9DE
:101AE00035460298401C0290DDE901108842BED3C1
:101AF00007B0BDE8F08F2DE9F04F06460F4690463F
:101B00009946DDF824A000240025A346BAF1010F70
:101B100021D100BF1CE0A8F1200004EB00102A49ED
:101B200011F800B000250FE0C5F107004BFA00F0F6
:101B300010F0010F06D03A1991B2721990B24A46CC
:101B4000FFF768FF681C85B2082DEDDB601C84B2CE
:101B5000102CE0DB28E0002424E0A8F1200004EBB6
:101B60000010194911F800B0002517E0C5F1070071
:101B70004BFA00F010F0010F07D03A1991B2721928
:101B800090B24A46FFF746FF06E03A1991B2721941
:101B900090B25246FFF73EFF681C85B2082DE5DB88
:101BA000601C84B2102CD8DBBDE8F08F10B5044661
:101BB000012C04DB4021054801F07AFD03E04021BF
:101BC000024801F077FD10BDAC6E0008001C024019
:101BD0001CB5012140F2831001F034FF0D220421D5
:101BE000C24801F074FD0D220621C04801F06FFDCE
:101BF0000D220921BD4801F06AFD0D220A21BB48D2
:101C000001F065FD0D220621B94801F060FD0D22AD
:101C10000721B74801F05BFD0D220B21B54801F00B
:101C200056FD0D220C21B34801F051FD0D220E216D
:101C3000B04801F04CFD0D220621AF4801F047FDF0
:101C40000D220721AC4801F042FD4FF4CA6000901C
:101C500002208DF8040003208DF8050000208DF887
:101C6000060001208DF807006946A04801F0A4FC99
:101C7000C020009069469E4801F09EFC4FF4B040A1
:101C8000009069469B4801F097FCC020009069468F
:101C9000994801F091FC0121402001F0D3FE4FF45E
:101CA000C070009001208DF8040003208DF805001D
:101CB00000208DF806008DF8070069468F4801F076
:101CC0007BFC80218D4801F0F5FC4FF480718B483E
:101CD00001F0EEFC00F01CF900220821834801F01D
:101CE000F6FC4FF48070009003208DF80500022070
:101CF0008DF8040000208DF8060001208DF8070003
:101D000069467A4801F058FC0021084601F0BAFD06
:101D10001CBD1FB50121084601F0A5FE0020ADF84D
:101D20000000ADF802002020ADF804008020ADF8DE
:101D300006000020ADF80800ADF80A00ADF80C0070
:101D4000684603F029F81FBD30B591B005460C4632
:101D50000121880501F076FE39208DF8040003206A
:101D60008DF805008DF8060001208DF8070001A808
:101D700001F047FB624803F0C9F84FF00070029091
:101D800060480390049500200590069407904FF456
:101D9000806008908000099040000A9040110B90EC
:101DA00040020C9004200D9003200E9000200F9014
:101DB000109001221021524803F010FA02A9504855
:101DC00003F046F911B030BDF8B506460F4614468B
:101DD0001D46C5F347012C2000F0CAF969462A20A8
:101DE00000F0F1F905F001009DF8001001EA800013
:101DF00000909DF800102A2000F0BAF9C4F3870182
:101E0000292000F0B5F969462A2000F0DCF904F039
:101E100003009DF80010084000909DF800102A2053
:101E200000F0A6F9F8BD10B500240FE0364A02EB29
:101E300044025178344A12F8140000F099F901284C
:101E400000D110BD0520FEF72FFE641C4E2CEDD3F3
:101E50000020F6E710B50121294803F033F90120ED
:101E600002F0F9FF012003F005F810BD10B50021C4
:101E7000234803F027F9002002F0EDFF002002F0D4
:101E8000F9FF10BD08B500200090FFF7A1FE0A2061
:101E9000FEF70AFE8021122000F06AF9012800D125
:101EA00008BD0A20FEF700FE69461C2000F08BF9F1
:101EB000012800D1F4E79DF800007F2801D001201F
:101EC000EEE7FFF726FF4FF4FA411048FFF73CFF1B
:101ED000FFF7A9FF012800D1E2E7C8234FF4A07261
:101EE00000210846FFF770FF0020D9E700000240FC
:101EF00000040240001C0240002002400018024082
:101F000028640240280005507C860008D800002084
:101F10001CB50121022001F095FD4FF440600090B6
:101F200003208DF8050001208DF804008DF80600CF
:101F300000208DF807006946C04801F03DFB1CBD3C
:101F4000642001E0411EC8B20028FBD1704700B5F3
:101F50004FF48060B9491A310880FFF7F1FF4FF460
:101F60000060B6491A310880FFF7EAFF4FF480603D
:101F7000B24918310880FFF7E3FF4FF40060AF4922
:101F800018310880FFF7DCFF00BD00B54FF400609A
:101F9000AA491831088040100880FFF7D1FFA748F0
:101FA0001030006808B9012000E0002010F4006F34
:101FB00001D0002000BD4FF40060A0491A31088014
:101FC000FFF7BEFF9D481030006810F4006F01D08D
:101FD0000020EFE74FF4006098491A310880FFF7BE
:101FE000AFFF0120E6E700B54FF4806093491A3156
:101FF0000880FFF7A5FF4FF4006090491A31088070
:10200000FFF79EFF4FF480608C4918310880FFF77E
:1020100097FF4FF4806089491A310880FFF790FFDD
:1020200000BD00B54FF4806084491A310880FFF785
:1020300087FF4FF40060814918310880FFF780FF67
:102040004FF480607D4918310880FFF779FF4FF425
:1020500080607A491A310880FFF772FF00BD00B531
:102060004FF4806075491A310880FFF769FF4FF41B
:102070000060724918310880FFF762FF4FF48060FA
:102080006E4918310880FFF75BFF6C48103000681C
:1020900010F4006F08D04FF4806068491A3108804E
:1020A000FFF74EFF002000BD4FF4806063491A31F6
:1020B0000880FFF745FF0120F5E700B50246082339
:1020C0001FE04FF480605D491A310880FFF738FF48
:1020D00012F0800F05D04FF4006058491831088085
:1020E00004E04FF4006055491A3108805006020E92
:1020F000FFF726FF4FF48060504918310880FFF742
:102100001FFF1800A3F10101CBB2DAD14FF48060B8
:102110004A491A31088000BD00B508230022180280
:1021200046491831088017E05006020E4FF48060CF
:1021300042491A310880FFF703FF4FF480603F499E
:1021400018310880FFF7FCFE3C481030006810F49E
:10215000006F01D042F001021800A3F10101CBB2DF
:10216000E2D14FF4806035491A310880104600BD35
:1021700030B505460C46FFF708FF4220FFF79DFFEC
:10218000FFF76DFF18B9FFF7E2FE012030BDFFF742
:10219000D7FE2846FFF791FFFFF761FF18B9FFF759
:1021A000D6FE0120F2E7FFF7CBFE2046FFF785FFC2
:1021B000FFF755FF18B9FFF7CAFE0120E6E7FFF762
:1021C000C6FE0020E2E770B506460D46FFF7DDFECD
:1021D0004220FFF772FFFFF742FF18B9FFF7B7FE83
:1021E000012070BDFFF7ACFE3046FFF766FFFFF73A
:1021F00036FF18B9FFF7ABFE0120F2E7FFF7A7FEA5
:10220000FFF79EFEFFF7C1FE4320FFF756FFFFF7E3
:1022100026FF18B9FFF79BFE0120E2E7FFF790FECB
:10222000FFF77AFF04462C70FFF78AFEFFF7F9FEEE
:10223000FFF786FEFFF78BFE0020D2E70004024086
:102240000146002903DA4842C0B2014600E000BF5F
:10225000704770B502460B46002000210024F94D5E
:102260002C6000BF32E000212DE0840004EB8404E8
:1022700002EBC4148D0034F81540241200EB8005E5
:1022800003EB05156C5400EB800401EB0414EE4DD8
:102290002D682C5D322C0DDA002400EB800501EB5B
:1022A0000515E94E36687455E64C2468641CE54D06
:1022B0002C6007E0F02400EB800501EB0515E24EF1
:1022C00036687455491C5029CFD3401C3228CAD3D4
:1022D00070BDF0B502460B460020002100BF4BE068
:1022E000002146E0840004EB840402EBC4148D005A
:1022F00034F8154004F478442412D44D2C70840032
:1023000004EB840402EBC4148D0034F8154004F48B
:10231000FC64E410CE4D2C70840004EB840402EBCA
:10232000C4148D0014F81540E406240EC94D2C7019
:10233000C64D2D784D2615FB06F5C54E3678C6EBF5
:10234000061606EB860605EB4605C24E367806EB0A
:102350004607C7EB4616354405F18004E51704EB44
:102360001565C5F3072500EB800603EB06167554CB
:10237000491C5029B6D3401C3228B1D3F0BDF0B56A
:1023800002460B46002000210024AE4D2C6000BF09
:102390006CE0002167E0840004EB840402EBC414C9
:1023A0008D0034F8154004F478442412A74D2C70A5
:1023B000840004EB840402EBC4148D0034F815404F
:1023C00004F4FC64E410A24D2C70840004EB84043B
:1023D00002EBC4148D0014F81540E406240E9D4D44
:1023E0002C709A4D2D784D2615FB06F5984E3678B3
:1023F000C6EB061606EB860605EB4605954E3678C7
:1024000006EB4607C7EB4616354405F18004E51791
:1024100004EB1565C5F3072500EB800603EB0616F4
:10242000755400EB800401EB0414874D2D682C5D7E
:10243000894D2D68AC4208DDF02400EB800501EBEE
:102440000515814E366874550CE0002400EB8005BC
:1024500001EB05157C4E366874557A4C2468641C73
:10246000784D2C60491C502995D3401C322890D3BC
:10247000F0BDF0B502460B46002000210024714D4E
:102480002C6000BF6EE0002169E0840004EB84044E
:1024900002EBC4148D0034F8154004F4784424127F
:1024A0006A4D2C70840004EB840402EBC4148D008C
:1024B00034F8154004F4FC64E410654D2C7084007D
:1024C00004EB840402EBC4148D0014F81540E406F8
:1024D000240E604D2C705D4D2D784D2615FB06F5B4
:1024E0005B4E3678C6EB061606EB860605EB46060F
:1024F000584D2D7805EB4507C7EB4515354405F1DB
:102500008004E51704EB1565C5F3072500EB80068D
:1025100003EB061675544D4C24784E4D2D78641BF4
:102520004E4D2D68AC4211DD484C2478C82C0DDA94
:10253000002400EB800501EB0515434E3668745509
:10254000404C2468641C3F4D2C6007E0F02400EBF5
:10255000800501EB05153C4E36687455491C502921
:1025600093D3401C32288ED3364C2468042C11DCC3
:1025700000200DE0002108E0F02400EB800501EBD5
:102580000515314E36687455491C5029F4D3401C4A
:102590003228EFD3F0BD2B4800685A2808DD2948BF
:1025A0000068B0F5FA7F03DA01202D49086002E0E7
:1025B00000202B4908607047F0B50246002000213A
:1025C00000230024002500260027DFF878C0CCF87F
:1025D000007000BF22E000211DE000EB800701EB4E
:1025E0000717D75D142F07DDF02700EB800C01EBF8
:1025F0000C1C02F80C700DE0002700EB800C01EBC6
:102600000C1C02F80C700F4F3F687F1CDFF834C0C1
:10261000CCF80070491C5029DFD3401C3228DAD393
:10262000F0BD10B507480068052805DC4FF40041EF
:102630000C4801F03FF804E04FF40041094801F074
:1026400037F810BD200000201C000020640000208E
:1026500065000020660000202800002030000020D7
:102660003400002000000240F0B5024600200021A6
:102670000024002300BF0DE0F02500EB80060027BA
:1026800007EB0616955500EB80064F2707EB06165D
:102690009555401C3228EFD3002022E001210FE0A5
:1026A0004D1E00EB800605EB0615555D00EB800620
:1026B00001EB0616965D741B0CB15D1CEBB2491C58
:1026C0005029EDD3022B0AD1002106E0F02500EBC2
:1026D000800601EB06169555491C5029F6D30023B8
:1026E000401C3228DAD3F0BD2DE9F04F2DED048BDC
:1026F0008DB005464FF00009CA4600200C900B90A3
:1027000080460024002600270A9009900890079030
:10271000069005900490039002900190834600BFBC
:1027200017E0002408E008EB880004EB0010285CA8
:1027300008B90BF1010B641C502CF4D3BBF1040F4E
:1027400003DD47464FF0000B06E04FF0000B08F1A9
:102750000108B8F1320FE4D300BF0020099007EB65
:102760008700002101EB0010285CF02830D107EB36
:1027700087004F2101EB0010285CF02828D10124AC
:1027800023E0601E07EB870100EB0110285C07EBDC
:10279000870104EB0111695CA1EB0009B9F1640F39
:1027A00001DB601E0B90601E07EB870100EB011040
:1027B000285C07EB870104EB0111695CA1EB000ABF
:1027C0001AF1640F00DC0C94641C502CD9D33FE048
:1027D00007EB8700002101EB0010285CC8B9012439
:1027E00014E001200C90601E07EB870100EB011044
:1027F000285C07EB870104EB0111695CA1EB000980
:10280000B9F1640F01DB601E0B90641C502CE8D3FF
:102810001EE007EB87004F2101EB0010285CB8B9E0
:10282000012413E0601E07EB870100EB0110285C18
:1028300007EB870104EB0111695CA1EB000A1AF1B7
:10284000640F00DC0C9450200B90641C502CE9D3D6
:10285000DDE90B21881803F024FC41EC100BB0EEED
:10286000409AF0EE609A9FEDFE0B53EC102B51EC6A
:10287000190B03F0A7FB41EC100BB0EE408AF0EE11
:10288000608A51EC180B03F03CFCF74908704FF0DC
:10289000310817E0002408E008EB880004EB001082
:1028A000285C08B90BF1010B641C502CF4D3BBF16C
:1028B000040F03DD46464FF0000B06E04FF0000B1F
:1028C000A8F10108B8F1000FE4D100BF0020099081
:1028D00006EB8600002101EB0010285CF02830D1C7
:1028E00006EB86004F2101EB0010285CF02828D170
:1028F000012423E0601E06EB860100EB0110285C3A
:1029000006EB860104EB0111695CA1EB0009B9F14A
:10291000640F01DB601E0B90601E06EB860100EB6E
:102920000110285C06EB860104EB0111695CA1EB48
:10293000000A1AF1640F00DC0C94641C502CD9D3EB
:102940003FE006EB8600002101EB0010285CC8B9CF
:10295000012414E001200C90601E06EB860100EBC0
:102960000110285C06EB860104EB0111695CA1EB08
:102970000009B9F1640F01DB601E0B90641C502C40
:10298000E8D31EE006EB86004F2101EB0010285C27
:10299000B8B9012413E0601E06EB860100EB0110BC
:1029A000285C06EB860104EB0111695CA1EB000ACF
:1029B0001AF1640F00DC0C9450200B90641C502C16
:1029C000E9D3DDE90B21881803F06BFB41EC100B18
:1029D000B0EE409AF0EE609A9FEDA10B53EC102BF5
:1029E00051EC190B03F0EEFA41EC100BB0EE408AFB
:1029F000F0EE608A51EC180B03F083FB9B490870E2
:102A00000978994A1278881803F04BFB41EC100BB7
:102A1000B0EE409AF0EE609A9FED910B53EC102BC4
:102A200051EC190B03F0CEFA41EC100BB0EE408ADA
:102A3000F0EE608A51EC180B03F044FB8C490860FF
:102A40000DB0BDEC048BBDE8F08F2DE9F04F2DEDFE
:102A5000048B81B005460027B846BA46BB4600261F
:102A6000002400200090814600BF17E0002408E009
:102A700004EB840006EB0010285C08B909F1010999
:102A8000641C322CF4D3B9F1040F04DD79480660DC
:102A90004FF0000904E04FF00009761C502EE5D3FA
:102AA00000BF0020009073480068285CF02833D1F4
:102AB0007048006800F57560285CF0282CD101246E
:102AC00027E020466B490968502202FB0010295C70
:102AD000601E684A1268502303FB0020285C0F1A0E
:102AE000642F01DBA4F1010A2046624909685022E3
:102AF00002FB0010295C601E5E4A1268502303FB33
:102B00000020285CA1EB000818F1640F00DCA3464C
:102B1000641C322CD5D33FE056480068285CD0B9FD
:102B2000012415E04FF0010B20465249096850225C
:102B300002FB0010295C601E4E4A1268502303FB02
:102B40000020285C0F1A642F01DBA4F1010A641C29
:102B5000322CE7D320E04748006800F57560285C18
:102B6000D0B9012416E0204642490968502202FBF0
:102B70000010295C601E3F4A1268502303FB0020AE
:102B8000285CA1EB000818F1640F00DCA3464FF0AD
:102B9000320A641C322CE6D30BEB0A0003F081FAF4
:102BA00041EC100BB0EE409AF0EE609A9FED2C0BCA
:102BB00053EC102B51EC190B03F004FA41EC100B01
:102BC000B0EE408AF0EE608A51EC180B03F07AFA0E
:102BD000294908604F2617E0002408E004EB840030
:102BE00006EB0010285C08B909F10109641C322CBD
:102BF000F4D3B9F1040F04DD204806604FF000095A
:102C000004E04FF00009761E002EE5D100BF002041
:102C100000901A480068285CF02845D117480068E1
:102C200000F57560285CF0283ED1012439E020468B
:102C300012490968502202FB0010295C601E0F4AED
:102C40001268502303FB0020285C0F1A642F01DB5D
:102C5000A4F1010A204609490968502210E0000049
:102C60000000000000000040680000206700002015
:102C7000580000205C0000206C0000206000002054
:102C800002FB0010295C601E494A1268502303FBB6
:102C90000020285CA1EB000818F1640F00DCA346BB
:102CA000641C322CC3D33FE041480068285CD0B993
:102CB000012415E04FF0010B20463D4909685022E0
:102CC00002FB0010295C601E394A1268502303FB86
:102CD0000020285C0F1A642F01DBA4F1010A641C98
:102CE000322CE7D320E03248006800F57560285C9C
:102CF000D0B9012416E020462D490968502202FB74
:102D00000010295C601E2A4A1268502303FB002031
:102D1000285CA1EB000818F1640F00DCA3464FF01B
:102D2000320A641C322CE6D30BEB0A0003F0B9F92B
:102D300041EC100BB0EE409AF0EE609A1FED380BAC
:102D400053EC102B51EC190B03F03CF941EC100B38
:102D5000B0EE408AF0EE608A51EC180B03F0B2F945
:102D60001449086014490968124A1268881803F067
:102D700098F941EC100BB0EE409AF0EE609A1FED1E
:102D8000480B53EC102B51EC190B03F01BF941ECE1
:102D9000100BB0EE408AF0EE608A51EC180B03F095
:102DA00091F90649086001B0BDEC048BBDE8F08FD5
:102DB00060000020700000206C00002074000020E3
:102DC00010B588B004460121084600F03BFE012101
:102DD000480400F06AFE07220221434800F077FC15
:102DE00007220321404800F072FC0C2006900220CC
:102DF0008DF81C008DF81D0000208DF81E000120AC
:102E00008DF81F0006A9384800F0D6FB0294002078
:102E1000ADF80C00ADF80E00ADF81000ADF81400E0
:102E20000C20ADF8120002A9304801F0E9FD0122A2
:102E300040F225512D4801F021FF26208DF8040095
:102E400002208DF805008DF8060001208DF807009E
:102E500001A800F0D6FA40F22551244801F040FFC5
:102E600040F22551214801F07BFF01211F4801F06C
:102E70004FFE08B010BD10B540F225511B4801F0BF
:102E800038FF01282FD140F22551184801F068FF82
:102E9000164801F06CFE16490870084600780A28AA
:102EA00004DC08460078134908601CE010480078EC
:102EB0000A280CDD0E4800786E2808DC0C480078E3
:102EC0000A380D49086001200C4908600BE00848E9
:102ED00000786E2807DD064800786E3808490860DB
:102EE00001200649086010BD000002400044004077
:102EF0007800002084000020300000200C0000201A
:102F0000280000207FB505460C460121022000F074
:102F1000CCFDADF8045002940020ADF80600ADF8E9
:102F20000C0001A9924800F078FF01221146904858
:102F300001F014FC1D208DF8000001208DF8010027
:102F400003208DF8020001208DF80300684600F090
:102F500058FA0121864800F0E9FF7FBD10B5854889
:102F6000007801280AD184480088643081B28348FF
:102F700001F0F9FD00207F4908701FE07D480078CE
:102F800048B97F48008881B27C4801F0ECFD0220FE
:102F90007849087012E07748007802280ED1794805
:102FA000006820B1C821754801F0DDFD03E0C921AA
:102FB000724801F0D8FD01206E49087010BD10B5AF
:102FC0006C48007801280AD16B480088643081B2CF
:102FD0006A4801F0C8FD0020664908701FE0654896
:102FE000007848B96648008881B2644801F0BBFDAA
:102FF00002206049087012E05E48007802280ED175
:103000006048006820B1C8215C4801F0ACFD03E0D5
:10301000C9215A4801F0A7FD01205649087010BD8A
:1030200010B55448007801280AD15348008864300C
:1030300081B2524801F097FD00204E4908701FE010
:103040004C48007848B94E48008881B24B4801F09E
:103050008AFD02204749087012E04648007802289D
:103060000ED14848006820B1C821444801F07BFDDA
:1030700003E0C921414801F076FD01203D49087077
:1030800010BD10B53F48008881B23C4801F06BFD8F
:1030900010BD10B53748007801280AD1364800889D
:1030A000643081B2354801F05EFD0020314908707E
:1030B00013E03048007848B93148008881B22F4881
:1030C00001F051FD02202B49087006E029480078E4
:1030D000022802D101202749087010BD10B52548EB
:1030E000007801280AD124480088643081B223483E
:1030F00001F039FD00201F4908700BE01D480078E1
:1031000040B91F48008881B21C4801F02CFD012005
:103110001849087010BD10B50446062C16D2DFE819
:1031200004F00306090C0F12FFF7D8FF0EE0FFF7BB
:10313000B0FF0BE0FFF7A5FF08E0FFF771FF05E028
:10314000FFF73DFF02E0FFF709FF00BF00BF10BD22
:1031500010B50121064801F018FB012807D1012113
:10316000034801F023FB08480068FFF7D4FF10BDB7
:10317000000400409400002058000020004400405B
:10318000740000203400002084000020FEB50446B6
:103190000D4617461E462048006802903A461FA179
:1031A00002A803F009FA4FF6FF700021B3B2CDE98F
:1031B0000010A9B2A0B202AAFCF7FEFFFEBD30B516
:1031C0002DED048B85B004460D46B0EE408A1249C1
:1031D000091D03C9CDE9030118EE100A02F0AAFF88
:1031E00041EC100BB0EE409AF0EE609A53EC192BC4
:1031F0000BA103A803F0E0F94FF6FF700021CDE921
:103200000010A9B2A0B2052303AAFCF7D5FF05B0B0
:10321000BDEC048B30BD0000AC87000825640000C5
:1032200025352E32660000007FB505460C4601218B
:10323000084600F03AFCADF8045002940020ADF8C6
:103240000600ADF80C0001A94FF0804000F0E5FD4C
:1032500001221146900701F081FA1C208DF8000030
:1032600004208DF8010003208DF8020001208DF864
:103270000300684600F0C5F800214FF0804000F0E0
:1032800055FE7FBD10B50121880701F07EFA0128A7
:1032900003D10121800701F089FA10BD01460868B9
:1032A000704701464848814201D200207047474894
:1032B000814201D20820F9E74548814201D210201D
:1032C000F4E74448814201D21820EFE742488142A6
:1032D00001D22020EAE74148814201D22820E5E7D7
:1032E0003F48814201D23020E0E73E48814201D28E
:1032F0003820DBE73C48814201D24020D6E73B48FA
:10330000814201D24820D1E73948814201D2502080
:10331000CCE75820CAE72DE9F04704460E46174689
:103320004FF008080025A946B4F1006F02D314F04D
:10333000030F01D0BDE8F08702F006FB002002F089
:10334000E6FA254604EB87092A48854215D211E0A2
:103350002846FFF7A3FF401C0BD02846FFF7A1FF2C
:103360008246022102F03CFB8046B8F1080F01D0F2
:1033700002E02D1D4D45EBD300BFB8F1080F0CD175
:1033800008E02046316802F0D5FB082800D003E0B1
:10339000241D361D4C45F4D300BF012002F0B7FABE
:1033A00002F0DFFA00BFC5E730B503460C4615460C
:1033B000002206E01846FFF771FF44F822001B1DAB
:1033C000521CAA42F6D330BD00400008008000081D
:1033D00000C0000800000108000002080000040806
:1033E000000006080000080800000A0800000C0899
:1033F00000000E080000FF1F33490143334A1160EB
:10340000704770B5002100230F22C47824B32F4CDD
:10341000246804F4E064C4F5E064C4F30721C1F156
:103420000404E3B20A4144789C40E1B28478144039
:1034300021430C07210E264C05786155047804F0D1
:103440001F050124AC4005786D114FF0E02606EB16
:103450008505C5F8004109E0047804F01F04012542
:10346000A5401C4C0678761144F8265070BD1A4AC7
:103470000A400243154B1B1F1A60704739B1134AAB
:10348000121D12680243114B1B1D1A6006E00F4A01
:10349000121D126882430D4B1B1D1A6070470428D1
:1034A00008D14FF0E021096941F004014FF0E0221A
:1034B000116107E04FF0E021096921F004014FF0AC
:1034C000E0221161704700000000FA050CED00E0F9
:1034D00000E400E080E100E080FFFF1F10B504463B
:1034E0008C48844208D10121084600F000FB0021ED
:1034F000012000F0FCFA5EE08748844208D10121F7
:10350000022000F0F4FA0021022000F0F0FA52E06C
:103510008248844208D10121042000F0E8FA002109
:10352000042000F0E4FA46E07D48844208D10121FD
:10353000082000F0DCFA0021082000F0D8FA3AE078
:103540007848844208D10121102000F0D0FA0021EF
:10355000102000F0CCFA2EE07348844208D10121FB
:10356000202000F0C4FA0021202000F0C0FA22E060
:103570006E48844208D10121402000F0B8FA0021B1
:10358000402000F0B4FA16E06948844208D10121D5
:10359000802000F0ACFA0021802000F0A8FA0AE0B8
:1035A0006448844207D10121801500F0A0FA00216F
:1035B000A01500F09CFA10BDF0B50A4600210023CA
:1035C000002400BF3DE0012505FA01F3156805EA76
:1035D00003049C4234D105684F000326BE40B54326
:1035E000056015794E00B5400668354305601579CC
:1035F000012D02D01579022D16D185684F000326C2
:10360000BE40B543856055794E00B5408668354368
:103610008560456801268E40B543456045689679CA
:103620008E40B6B235434560C5684F000326BE40A4
:10363000B543C560D5794E00B540C6683543C56011
:10364000491C1029BFD3F0BD4FF6FF710160002166
:10365000017141718171C171704708B54FF48032B9
:103660000092009A0A430092009AC261C161009AD6
:10367000C261C2690092C269009208BD0246002080
:1036800013690B4201D0012000E000207047014681
:10369000086980B270470246002053690B4201D08E
:1036A000012000E0002070470146486980B2704761
:1036B00001837047418370470AB1018300E0418371
:1036C00070474161704742694A4042617047F0B5B6
:1036D000002300244D07ED0E02FA05F3CE1000F191
:1036E000200555F826504E07F70E0F26BE40B5436D
:1036F000CF1000F1200646F82750CE1000F120052B
:1037000055F8265045EA0304CE1000F1200545F88F
:103710002640F0BD000002400004024000080240C4
:10372000000C024000100240001402400018024049
:10373000001C024000200240FA48006840F00100EE
:10374000F84908600020F74908310860F54800682A
:10375000F5490840F3490860F448091D0860081F4E
:10376000006820F48020091F08600020ED490C311A
:10377000086070470021EB4A921C117011460870D6
:10378000704710B501460022002300204A11012A8B
:1037900002D1E44C236808E0022A03D1E14C7034E2
:1037A000236802E0DF4C7434236801F01F02012417
:1037B00094401C4201D0012000E0002010BD38B52B
:1037C000002000900024002500BF3120FFF7D9FF22
:1037D00005460098401C00900098B0F5A06F01D0FD
:1037E000002DF2D03120FFF7CCFF08B1012400E01A
:1037F0000024204638BD01460020CA4A106820F047
:10380000F80040EAC10010607047C949086070477D
:103810000021C44A703211701170012802D00428AE
:103820000AD104E00121BF4A7032117005E0052180
:10383000BC4A7032117000E000BF00BF7047BD4944
:103840000860704770B5049C41EA82150126C6EBFA
:10385000530645EA0645054345EA0465B14E361D63
:10386000356070BDB24908667047820142EA017254
:10387000AC4B84331A607047AD4988667047AC49D9
:10388000C864704702460020A64B0833186820F031
:10389000EC6042EA01031843A24B083318607047FA
:1038A000024600209F4B0833186820F0784042EA17
:1038B000010318439B4B08331860704701460020F2
:1038C000984A0832106820F00300084310607047DF
:1038D00094480830006800F00C0070470146002052
:1038E000904A0832106820F0F000084310607047DA
:1038F000014600208B4A0832106820F4E05008434B
:103900001060704701460020864A0832106820F493
:10391000604040EAC10010607047F0B5002100220D
:1039200000240225002602237E4F08373F6807F057
:103930000C0121B1042905D0082937D105E07E4FBB
:10394000076036E07D4F076033E0764F3F1D3F68EC
:10395000C7F38056734F3F1D3F6807F03F036EB1BA
:10396000764FB7FBF3F7DFF8BCC10CF1040CDCF8C1
:1039700000C0CCF3881C07FB0CF40CE06E4FB7FBC7
:10398000F3F7DFF8A0C10CF1040CDCF800C0CCF3B5
:10399000881C07FB0CF4634F3F1D3F68C7F30147CA
:1039A0007F1C7D00B4FBF5F7076002E0624F076003
:1039B00000BF00BF5B4F08373F6807F0F0010909FF
:1039C0005F4F7A5C0768D7404760564F08373F68BB
:1039D00007F4E051890A5A4F7A5C4768D7408760FC
:1039E000504F08373F6807F46041490B544F7A5CE9
:1039F0004768D740C760F0BD002100F44072B2F5BF
:103A0000407F0AD1474A0832116821F4F8114D4A23
:103A100002401143434A08321160424A7032126830
:103A2000C0F30B031A433F4B70331A607047414990
:103A30004439086070473F4940390860704742493F
:103A40000860704739B1374A303212680243354B4B
:103A500030331A6006E0334A303212688243314B09
:103A600030331A60704739B12E4A3432126802433B
:103A70002C4B34331A6006E02A4A343212688243EF
:103A8000284B34331A60704739B1264A38321268ED
:103A90000243244B38331A6006E0224A3832126857
:103AA0008243204B38331A60704739B11D4A403287
:103AB000126802431B4B40331A6006E0194A403239
:103AC00012688243174B40331A60704739B1154A68
:103AD000443212680243134B44331A6006E0114A21
:103AE0004432126882430F4B44331A60704739B135
:103AF0000C4A1032126802430A4B10331A6006E077
:103B0000084A103212688243064B10331A6070471D
:103B1000E1B1044A143212680243024B14331A60B2
:103B200019E0000000380240FFFFF6FE10300024CC
:103B300000004742800E47420024F40040787D0197
:103B4000B4000020FFFCFF0F5C0147425B4A126893
:103B500082435A4B1A60704739B1584A121D126895
:103B60000243564B1B1D1A6006E0544A121D126890
:103B70008243524B1B1D1A60704739B14F4A0C32B9
:103B8000126802434D4B0C331A6006E04B4A0C326C
:103B900012688243494B0C331A60704739B1474A67
:103BA000103212680243454B10331A6006E0434A54
:103BB000103212688243414B10331A60704739B19A
:103BC0003E4A3C32126802433C4B3C331A6006E0EA
:103BD0003A4A3C3212688243384B3C331A60704791
:103BE00039B1364A403212680243344B40331A60CE
:103BF00006E0324A403212688243304B40331A604A
:103C0000704739B12D4A4432126802432B4B44337A
:103C10001A6006E0294A443212688243274B443333
:103C20001A60704739B1254A4C3212680243234B5F
:103C30004C331A6006E0214A4C32126882431F4B13
:103C40004C331A60704739B11C4A50321268024333
:103C50001A4B50331A6006E0184A503212688243F9
:103C6000164B50331A60704739B1144AD21F12787C
:103C70000243124BDB1F1A7006E0104AD21F127863
:103C800082430E4BDB1F1A7070470C48603000688F
:103C900040F080700949603108607047014600209B
:103CA000064A083A12680A4201D0012000E00020CA
:103CB00070470249891F087070470000143802409D
:103CC00010B50446FE48844208D101210846FFF79A
:103CD00065FF00210120FFF761FF9DE0B4F1804FF7
:103CE00008D101210846FFF748FF00210120FFF716
:103CF00044FF91E0F348844208D101210220FFF7FC
:103D00003CFF00210220FFF738FF85E0EE488442A7
:103D100008D101210420FFF730FF00210420FFF724
:103D20002CFF79E0E948844208D101210820FFF7FF
:103D300024FF00210820FFF720FF6DE0E4488442C3
:103D400008D101211020FFF718FF00211020FFF7F4
:103D500014FF61E0DF48844208D101212020FFF7F1
:103D60000CFF00212020FFF708FF55E0DA488442CD
:103D700008D101210220FFF711FF00210220FFF7E7
:103D80000DFF49E0D548844209D101210804FFF71D
:103D900005FF00214FF48030FFF700FF3CE0D048E2
:103DA000844209D101214804FFF7F8FE00214FF4B5
:103DB0000030FFF7F3FE2FE0CA48844209D1012109
:103DC0008804FFF7EBFE00214FF48020FFF7E6FEAA
:103DD00022E0C548844208D101214020FFF7CDFEF2
:103DE00000214020FFF7C9FE16E0C048844208D1F8
:103DF00001218020FFF7C1FE00218020FFF7BDFEDA
:103E00000AE0BB48844207D101218015FFF7B5FEC7
:103E10000021A015FFF7B1FE10BD00220288A84BBB
:103E200098420ED0AC4B98420BD0B0F1804F08D0E6
:103E3000A44B984205D0A44B984202D0A34B984281
:103E400004D14FF68F731A404B881A43A04B984207
:103E500007D0A04B984204D04FF6FF431A400B897D
:103E60001A4302804B68C3620B880385944B9842C7
:103E700002D0994B984201D18B7A03860123838229
:103E800070474FF0FF314160002101800181418086
:103E9000817270470185828270470A46002101883D
:103EA0004FF68F731940114301807047416270478C
:103EB000C16270470146486A70470146088D7047E5
:103EC00021B1028842F00202028004E002884FF62B
:103ED000FD731A400280704721B1028842F004024B
:103EE000028004E002884FF6FB731A40028070479C
:103EF00021B1028842F08002028004E002884FF67D
:103F00007F731A400280704702884FF6F7731A4099
:103F1000028002880A430280704702884FF6FF43FE
:103F20001A40028002880A430280704721B1028849
:103F300042F00102028004E002884FF6FE731A404C
:103F40000280704770B5002400220023058C4FF6D4
:103F5000FE7635400584028C8388048B4FF68F757E
:103F60002C40B51E2C400D882C43751E2A408D898F
:103F70002A434D882A43524DA84202D0564DA842AA
:103F800013D14FF6F7752A40CD892A434FF6FB75BA
:103F90002A408D882A434FF6FF652B404FF6FF5588
:103FA0002B400D8A2B434D8A2B43838004838D68DD
:103FB0004563028470BD70B5002400220023058C87
:103FC0004FF6EF7635400584028C8388048B48F6E3
:103FD000FF752C404FF6FF452C400D884FF6FF76BD
:103FE00006EA05252C434FF6DF752A408D8906EA3F
:103FF00005152A434D8806EA05152A43304DA84287
:1040000002D0354DA8421DD14FF67F752A40CD898B
:104010004FF6FF7606EA05152A434FF6BF752A408C
:104020008D8806EA05152A434FF6FF352B404FF2DF
:10403000FF752B400D8A06EA85052B434D8A06EA5B
:1040400085052B43838004838D688563028470BD5E
:1040500070B5002400220023058C4FF6FF66354022
:104060000584028C8388848B4FF68F752C404FF625
:10407000FC752C400D882C434FF6FF552A408D8946
:104080004FF6FF7606EA05252A434D8806EA052500
:104090002A430B4DA84202D00F4DA84238D14FF20F
:1040A000FF752A40CD894FF6FF7606EA05252A439B
:1040B0004FF6FF352A408D8806EA05252A4319E088
:1040C000000001400004004000080040000C0040D7
:1040D0000010004000140040000401400040014076
:1040E000004401400048014000180040001C00400E
:1040F000002000404EF6FF752B404DF6FF752B401B
:104100000D8A06EA05152B434D8A06EA05152B4351
:10411000838084838D68C563028470BD70B500227E
:1041200000230024058C4EF6FF7635400584038C71
:104130008488828B48F6FF752A404FF6FF452A4057
:104140000D884FF6FF7606EA05252A434DF6FF75E2
:104150002B408D8906EA05352B434D8806EA053547
:104160002B43FE4DA84202D0FD4DA84208D14BF68C
:10417000FF752C400D8A4FF6FF7606EA85152C4315
:10418000848082838D680564038470BD0021018072
:104190004180818081608181C1810182418270473B
:1041A00070B50346002000241846183001258D40C4
:1041B000ACB21D8CA5431D8409B108290AD100EBBE
:1041C000610005684FF68F76354005600568154338
:1041D00005600FE00D1FC5F34E052844056848F63D
:1041E000FF763540056005684FF6FF7606EA022641
:1041F0003543056070BD4163704781637047C1639B
:104200007047016470470A460021018B4FF68F7397
:1042100019401143018370470A460021018B48F67B
:10422000FF7319404FF6FF7303EA0223194301831A
:1042300070470A460021818B4FF68F731940114356
:10424000818370470A460021818B48F6FF7319402D
:104250004FF6FF7303EA02231943818370470A462E
:104260000021018B4FF6F77319401143018370470A
:104270000A460021018B4FF2FF7319404FF6FF737E
:1042800003EA02231943018370470A460021818B08
:104290004FF6F77319401143818370470A46002196
:1042A000818B4FF2FF7319404FF6FF7303EA02232D
:1042B0001943818370470A460021018B4FF6FB7337
:1042C00019401143018370470A460021018B4FF6C4
:1042D000FF3319404FF6FF7303EA022319430183AA
:1042E00070470A460021818B4FF6FB73194011433A
:1042F000818370470A460021818B4FF6FF331940B6
:104300004FF6FF7303EA02231943818370470A467D
:104310000021018B4FF67F731940114301837047D1
:104320000A460021018BC1F30E014FF6FF7303EA29
:1043300002231943018370470A460021818B4FF6FF
:104340007F7319401143818370470A460021818B96
:10435000C1F30E014FF6FF7303EA02231943818371
:1043600070470A460021018C4FF6FD731940114336
:10437000018470470A460021018C4FF6F7731940FB
:104380001143018470470A460021018C4FF6DF7308
:1043900019404FF6FF7303EA021319430184704773
:1043A0000A460021018C4FF67F7319404FF6FF73C8
:1043B00003EA02131943018470470A460021018C65
:1043C0004FF6FF5319404FF6FF7303EA02231943D8
:1043D000018470470A460021018C4FF2FF73194097
:1043E0004FF6FF7303EA02231943018470470A461C
:1043F0000021018C4DF6FF7319404FF6FF7303EA5D
:10440000023319430184704730B5002301248C40E6
:10441000A3B2048C9C430484048C02FA01F5ADB26F
:104420002C43048430BD30B5002304248C40A3B257
:10443000048C9C430484048C02FA01F5ADB22C4335
:10444000048430BD828B4FF2FF331A408283828B0B
:104450004FF6FF7303EA01231A4382837047F0B5D6
:104460000C461546002100220026078C4EF6FF7CE4
:1044700007EA0C070784818B028C4FF6FF7707EA67
:10448000043640F6FF4739404FF6FF7707EA052725
:1044900039434FF6FF7707EA0337394345F6FF778D
:1044A0003A4046F480573A4381830284F0BD828BC0
:1044B0004FF6F3731A408283828B0A4382837047DC
:1044C000F0B50C461546002100220026078C4FF659
:1044D000FF6C07EA0C070784818B028C4FF6FF778D
:1044E00007EA04264FF60C7739404FF6FF7707EAC4
:1044F00003172F4339434FF2FF573A4046F4807772
:104500003A4381830284F0BD028B4FF2FF331A409D
:104510000283028B4FF6FF7303EA01231A430283DF
:104520007047F0B50C461546002100220026078C86
:104530004FF6EF7C07EA0C070784018B028C4FF6DD
:10454000FF7707EA041640F6FF4739404FF6FF773A
:1045500007EA033739434FF6FF7703E000000140D5
:104560000004014007EA052739434FF65F773A40D8
:1045700046F010073A4301830284F0BD028B4FF6E8
:10458000F3731A400283028B0A4302837047F0B52B
:104590000C46154600210022068C4FF6FE773E4061
:1045A0000684018B028C4FF60C7631407E1C06EAA5
:1045B00003162E4331434FF6F576324044F00106A0
:1045C000324301830284F0BD70B505460C46208855
:1045D00050B92389A28861882846FFF7D8FFE1886F
:1045E0002846FFF7CBFF25E0208804280AD123893D
:1045F000A28861882846FFF794FFE1882846FFF7E4
:1046000083FF17E0208808280AD12389A2886188BF
:104610002846FFF755FFE1882846FFF748FF09E0E5
:104620002389A28861882846FFF719FFE188284678
:10463000FFF708FF70BD00210180418001218180CA
:104640000021C180018170472DE9F04105460C46EB
:1046500000260127608808B9022600E00026A0880D
:10466000012801D1022700E001272088A0B9238971
:10467000A28861882846FFF78AFFE1882846FFF76D
:104680007DFF23893A4631462846FFF74AFFE188F5
:104690002846FFF739FF13E02389A288618828465E
:1046A000FFF73FFFE1882846FFF72EFF23893A46B0
:1046B00031462846FFF76BFFE1882846FFF75EFF8B
:1046C000BDE8F0810146486B70470146886B704732
:1046D0000146C86B70470146086C70470A884B88D2
:1046E0001A438B881A43CB881A430B891A434B8988
:1046F0001A438B891A43A0F8442070470021018097
:1047000041808180C180018141818181704731B1C7
:10471000B0F8442042F40042A0F8442005E0B0F88C
:104720004420C2F30E02A0F84420704721B18288D1
:1047300042F00402828004E082884FF6FB731A4044
:104740008280704721B1828842F00102828004E0B9
:1047500082884FF6FE731A40828070471AB18389AF
:104760000B43838102E083898B438381704781827D
:10477000704702460020138A0B4201D0012000E05E
:1047800000207047CA430282704730B502460020BD
:1047900000230024158A05EA0103958905EA01042E
:1047A00013B10CB1012000E0002030BDCA430282E9
:1047B000704741EA0203A0F8483070471AB1838974
:1047C0000B43838102E083898B438381704721B14E
:1047D000828842F00802828004E082884FF6F773F4
:1047E0001A408280704701894FF6F87211400181AA
:1047F00070470A46002101894FF68F731940114313
:104800000181704730B504460D4629462046FFF722
:10481000F0FF208940F00700208130BD2DE9F041F4
:1048200004460D4616461F46602D06D13B46012222
:1048300031462046FFF775FE05E03B460122314632
:104840002046FFF7A4FE29462046FFF7D2FF208925
:1048500040F007002081BDE8F08130B50C46002112
:104860000189C9B24FF6FF7505EA032515432543B3
:104870002943018130BD2DE9F04105460E4617461A
:104880009846002443463A4631462846FFF7E5FF5E
:104890002C894FF6F870044044F007044FF68F70EF
:1048A000044044F070042C81BDE8F081F0B504466A
:1048B0000D4616461F463B46324629462046FFF720
:1048C000CCFF208940F480402081F0BD82884FF6E3
:1048D0008F731A40828082880A43828070470289DF
:1048E0004FF6F8731A40028102890A430281704729
:1048F00002894FF67F731A40028102890A430281BE
:104900007047F0B50C4615461E46002100220023D4
:104910000189028B038C4FF6F877394021434FF61B
:10492000FC473A4040F201173A434FF6DD773B40EF
:104930004FF6FF7707EA06172F433B4301810283B7
:104940000384F0BD21B1828842F08002828004E0BD
:1049500082884FF67F731A4082807047A0F850100B
:104960007047000010B50446F748844208D1012181
:104970001020FFF713F900211020FFF70FF93EE098
:10498000F248844209D101214804FFF7F6F80021DA
:104990004FF40030FFF7F1F831E0ED48844209D1DF
:1049A00001218804FFF7E9F800214FF48020FFF788
:1049B000E4F824E0E748844209D10121C804FFF764
:1049C000DCF800214FF40020FFF7D7F817E0E248A9
:1049D000844209D101210805FFF7CFF800214FF4E7
:1049E0008010FFF7CAF80AE0DC48844207D10121B1
:1049F0002020FFF7D3F800212020FFF7CFF810BDCB
:104A00002DE9FF4705460E460024A14600BFA046FB
:104A1000B08900B100BF2C8A24F44054F0880443CC
:104A20002C82AC8941F20C608443B0883189084300
:104A3000718908430443AC81AC8A24F44074B08982
:104A40000443AC826846FEF768FFBF48854202D047
:104A5000C248854202D1DDF80C9001E0DDF80890F3
:104A6000A88910F4004F08D009EBC90000EB091029
:104A700031684900B0FBF1F707E009EBC90000EB32
:104A8000091031688900B0FBF1F76420B7FBF0F042
:104A900004012009642101FB1078A88910F4004F5B
:104AA00008D0322000EBC800B0FBF1F000F00700A6
:104AB000044308E0322000EB08106421B0FBF1F061
:104AC00000F00F0004432C81BDE8FF874FF416511E
:104AD000016000218180C18001810C214181002180
:104AE0008181704710B502460020108A20F4706062
:104AF0000B884C8823438C882343CC88234318435A
:104B0000108210BD0021018041808180C1807047EA
:104B100021B1828942F40052828104E082894DF6FB
:104B2000FF731A4082817047028B02F47F42028336
:104B3000028B0A430283704721B1828942F400420A
:104B4000828103E08289C2F30E028281704721B123
:104B5000828A42F40062828204E0828A4FF2FF730A
:104B60001A4082827047C1F3080282807047014672
:104B70008888C0F308007047028A4FF6F0731A4025
:104B80000282028A0A430282704721B1828942F07E
:104B90000202828104E082894FF6FD731A4082810D
:104BA000704782894FF2FF731A40828182890A43DB
:104BB00082817047028A4FF6DF731A400282028AAE
:104BC0000A430282704721B1028A42F48042028283
:104BD00004E0028A4BF6FF731A4002827047818913
:104BE00041F001018181704721B1828A42F00802BF
:104BF000828204E0828A4FF6F7731A4082827047FD
:104C0000028BD2B20283028B42EA012202837047F6
:104C100021B1828A42F02002828204E0828A4FF629
:104C2000DF731A408282704721B1828A42F01002FB
:104C3000828204E0828A4FF6EF731A4082827047C4
:104C4000828A4FF6FB731A408282828A0A438282EA
:104C5000704721B1828A42F00202828204E0828A95
:104C60004FF6FD731A40828270471AB1838A0B4354
:104C7000838202E0838A8B4383827047F0B50346C8
:104C80000024002600250020A1F510676A3F00D10E
:104C900000BF1846C1F3421401F01F06012707FAAE
:104CA00006F5012C01D10C3004E0022C01D11030AA
:104CB00000E014301AB107682F43076002E007686C
:104CC000AF430760F0BD02460020B1F5007F00D180
:104CD00000BF13880B4201D0012000E00020704784
:104CE00001F40072B2F5007F00D100BFCA43028018
:104CF000704770B502460024002300250020A1F56E
:104D000010666A3E00D100BFC1F3421501F01F03D7
:104D1000012606FA03F3012D02D19689334006E0FD
:104D2000022D02D1168A334001E0968A33400C12DC
:104D3000012606FA04F41688344013B10CB10120A0
:104D400000E0002070BD0000001001400044004061
:104D500000480040004C004000500040001401405A
:104D600010B500220023A1F510646A3C00D100BFF9
:104D70000A1201249440A3B2DC43048010BD000059
:104D8000002061490860C8601F20486100208861D8
:104D9000C86108624862704700215B4A126844F2A9
:104DA00001039A43584B1A601A46116840F6F27292
:104DB0009143028843881A4383881A43C3881A435D
:104DC00003891A4343891A4383891A4311434E4A7C
:104DD000116070470021018041808180C180018184
:104DE0004181818170474188028841EA0241464AF7
:104DF0001162C188828841EA0241434A5162704788
:104E000030B14149096841F004013F4A116005E0B1
:104E10003D49096821F004013B4A1160704701785F
:104E2000427841EA0221827841EA0241C27841EAAD
:104E30000261354A9161704730B13349096841F0E8
:104E40000801314A116005E02F49096821F0080185
:104E50002D4A1160704730B12B49096841F48041F7
:104E6000294A116005E02849096821F48041264A51
:104E70001160704730B12449096841F00101224AAC
:104E8000116005E02049096821F001011E4A116006
:104E900070471D48806A704729B11B4AD268024397
:104EA000194BDA6006E0184AD268C3439BB21A4035
:104EB000154BDA60704710B50146002000230A1335
:104EC00012B9114CA36806E0022A02D10E4C6368A5
:104ED00001E00D4C23690B4201D0012000E00020CD
:104EE00010BD094948617047014600200022064B69
:104EF0001B6903EA01020AB1012000E000207047AB
:104F0000014948617047000000000550016821F028
:104F1000010101600021016041608160C1600161A7
:104F200021214161DA49884204D13D21D84A103A11
:104F300091608CE0D6491831884205D14FF47461F4
:104F4000D34A103A916082E0D1493031884205D18C
:104F50004FF47411CE4A103A916078E0CC49483150
:104F6000884205D14FF07461C94A103A91606EE0F1
:104F7000C7496031884204D1C649C54A103AD16058
:104F800065E0C3497831884204D1C349C04A103A28
:104F9000D1605CE0BE499031884204D1BF49BC4A2F
:104FA000103AD16053E0BA49A831884205D14FF098
:104FB0003D51B74A103AD16049E0B949884204D11D
:104FC0003D21B74A083A116041E0B549183188429D
:104FD00005D14FF47461B24A083A116037E0B04924
:104FE0003031884205D14FF47411AD4A083A11604E
:104FF0002DE0AB494831884205D14FF07461A84A91
:10500000083A116023E0A6496031884204D1A149E1
:10501000A34A121F11601AE0A1497831884204D1D5
:105020009D499F4A121F116011E09D4990318842AD
:1050300004D19A499A4A121F116008E09849A83190
:10504000884204D14FF03D51954A121F11607047BC
:1050500010B500220268934B1A40CC680B682343BA
:105060004C6923438C692343CC6923430C6A234353
:105070004C6A23438C6A23434C6B23438C6B23433E
:105080001A430260426922F00702D1E90B3423433C
:105090001A4342610B6943604B6883608B68C3604D
:1050A00010BD0021016041608160C160016141610A
:1050B0008161C161016241628162C16201634163D8
:1050C0008163704721B1026842F00102026003E08F
:1050D000026822F001020260704721B1026842F4C6
:1050E0000042026003E0026822F40042026070475E
:1050F00021B1026842F02002026003E0026822F05F
:10510000200202607047416070470146486880B2E3
:10511000704722B1036843F40023036003E003688F
:1051200023F4002303600161704721B1026842F457
:105130008022026003E0026822F48022026070474D
:105140000AB1016100E0C1607047014600200A68B1
:1051500012F4002F01D0012000E00020704701462A
:1051600000200A6812F0010F01D0012000E00020A9
:105170007047014600204A6902F03800704730B598
:1051800003460A4600200024454DAB4202D2404966
:10519000103901E04249103912F0005F01D04C682B
:1051A00000E00C68404D2C40144201D0012000E08A
:1051B000002030BD02463A4B9A4202D234481038A1
:1051C00001E03748103811F0005F03D0364B0B4038
:1051D000C36002E0344B0B408360704710B511F0A0
:1051E000800F09D022B1436943F08003436103E09B
:1051F000436923F08003436180290BD02AB10368FF
:1052000001F01E042343036004E0036801F01E0460
:10521000A343036010BD70B50246002000240025A2
:105220001F4EB24202D21A4B103B01E01C4B103B06
:105230001E4E314206D01E2606EAD124166806EA22
:10524000040502E0566906F0800511F0005F01D008
:105250005C6800E01C68144E34400C4202D00DB172
:10526000012000E0002070BD02460D4B9A4202D2A0
:105270000748103801E00A48103811F0005F03D0E9
:10528000094B0B40C36002E0074B0B408360704743
:10529000106002403D000020400F002000003D2033
:1052A000106402403F801CF07D0F7D0F3C0F3C0FCF
:1052B00030B943F2DB014FF0204242F8201005E004
:1052C00043F2D2014FF0204242F820106FF07042BA
:1052D000411C4FF0204343F8212011461A4602EBAF
:1052E0008002C2F804117047D0E901121143C2686C
:1052F0001143026911434269114382691143C26932
:105300001143026A1143426A1143826A1143C26A1D
:105310001143026B11434FF02043026843F82210FF
:105320008168082908D11A46016852F8211041F015
:105330004001026843F82210416B0968426B5268D1
:1053400041EA0211426B926841EA0221426B928962
:1053500041EA0241426B128A41EA0251426B127DDC
:1053600041EA0261426B926911430268521C4FF09C
:10537000204343F82210C16AB1F5804F1AD1816BE6
:105380000968826B526841EA0211826B926841EAB5
:105390000221826B128A41EA0251826B127D41EA3C
:1053A0000261826B92691143026803EB8202C2F8C8
:1053B000041108E06FF070414FF02043026803EBE6
:1053C0008202C2F80411704700210160022141608D
:1053D00000218160C160016141618161C16101623F
:1053E0004FF480514162490081620021C162016332
:1053F0000F21426B1160426B5160FF21426B916043
:105400000F21426BD160426B1161426B51610021EF
:10541000426B91610F21826B1160826B5160FF21A1
:10542000826B91600F21826BD160826B1161826B04
:1054300051610021826B9161704751B14FF0204260
:1054400052F8202042F001024FF0204343F8202080
:1054500009E04FF0204252F82020F84B1A404FF05C
:10546000204343F82020704710280AD118214FF01C
:1054700020421166402151664FF0FC319166D166A1
:1054800010E01821EE4A11604FF040014FF0204229
:10549000C2F884104FF0FC31EA4A11604FF020420C
:1054A000C2F88C10704730B50021002200234468F8
:1054B00044F0080485682C43C5682C4305692C43D7
:1054C000456944EA4524856944EA4531C46924684C
:1054D000C5696D6844EA0524C5692D8944EA054417
:1054E000C5692D7B44EA0562046A2468056A6D6813
:1054F00044EA0524056A2D8944EA0544056A2D7BA2
:1055000044EA05630468102C05D14FF0204421665D
:10551000A266E36607E0CA4C21604FF02044C4F85D
:105520008820C94C236030BD1021016000214160FA
:105530008160C160016141618161FC21C2691160CA
:10554000C2695160C2699160C269D160026A11602A
:10555000026A5160026A9160026AD160704799B133
:10556000102808D14FF02042126E42F004024FF092
:1055700020431A661DE0B24A126842F004024FF05E
:105580002043C3F8802014E0102809D14FF02042B6
:10559000126EAA4BDB1E1A404FF020431A6608E039
:1055A000A74A1268A94B02EA03024FF02043C3F84E
:1055B0008020704799B1102808D14FF02042126E18
:1055C00042F040024FF020431A661DE09C4A1268E8
:1055D00042F040024FF02043C3F8802014E010282E
:1055E00009D14FF02042126E984B3C3B1A404FF0CD
:1055F00020431A6608E0924A1268954B02EA0302B9
:105600004FF02043C3F88020704701460020102946
:1056100003D14FF02042506F01E08E4A106870476E
:1056200018208D4908604FF000004FF02041C1F86C
:10563000A4004FF0FC308949086001F104010860C2
:1056400001F1040108607047016841F010014268EF
:1056500041EA4221826841EA42317F4A1160C168D1
:105660000968C268526841EA0221C268128941EAA7
:105670000241C268127B41EA0261784A1160016905
:1056800009680269526841EA02210269128941EA05
:1056900002410269127B41EA0261714A116041696B
:1056A00009684269526841EA02214269128941EA65
:1056B00002414269127B41EA02614FF02042C2F886
:1056C000B01070470021016041608160FC21C26818
:1056D0001160C2685160C2689160C268D16002699D
:1056E000116002695160026991600269D16042698A
:1056F000116042695160426991604269D1607047AE
:1057000040B15549096841F004014FF02042C2F808
:10571000A01008E0504909684C4A01EA02014FF024
:105720002042C2F8A010704710B5F2B1102807D17E
:105730004FF020435B6E0B434FF02044636632E032
:10574000B0F5807F08D1474B1B6843EA01034FF057
:105750002044C4F8843026E0434B1B6843EA01032D
:105760004FF02044C4F8A4301DE0102807D14FF0BA
:1057700020435B6E8B434FF02044636613E0B0F52B
:10578000807F08D1374B1B6823EA01034FF0204488
:10579000C4F8843007E0344B1B6823EA01034FF060
:1057A0002044C4F8A43010BD10B5024600200023E8
:1057B000102A03D14FF02044636E07E0B2F5807FDA
:1057C00002D1284C236801E0274C23680B4201D00A
:1057D000012000E0002010BD102807D14FF020422A
:1057E000526E8A434FF020435A6613E0B0F5807F33
:1057F00008D11C4A126822EA01024FF02043C3F884
:10580000842007E0184A126822EA01024FF0204380
:10581000C3F8A420704770B502460020002300247E
:105820000025102A03D14FF02046736E20E0B2F518
:10583000807F1BD10B4E33681AE00000FEFF0F0083
:10584000800000A0880000A08C0000A0FBFF0F00DB
:10585000BFFF0F00940000A0A00000A0A80000A0BF
:10586000AC0000A0840000A0A40000A0154E336886
:1058700003EA010403EAD10514B10DB1012000E0EF
:10588000002070BD102808D14FF02042526E22EA4D
:10589000D1024FF020435A6613E0B0F5807F08D163
:1058A000094A126822EAD1024FF02043C3F884204B
:1058B00007E0044A126822EAD1024FF02043C3F8FD
:1058C000A4207047A40000A0840000A0FE4A10702D
:1058D000704730B1FC49096841F48071FA4A11609F
:1058E00005E0F949096821F48071F74A11607047B1
:1058F00030B1F549096841F40071F34A116005E0DF
:10590000F149096821F40071EF4A1160704730B124
:10591000ED49096841F48061EB4A116005E0EA490C
:10592000096821F48061E84A11607047E648006820
:1059300040F40060E44908607047E348006840F4C0
:105940008050E14908607047DF481030006810F06F
:10595000004F05D0DD48DC49091D0860DC480860BF
:105960007047D9481030006840F00040D6491031E7
:10597000086070470820D4490C31096801F480316F
:10598000B1F5803F01D1012018E0CF490C31096801
:1059900011F0100F01D0052010E0CB490C3109683F
:1059A00011F0EF0F01D0062008E0C7490C3109685B
:1059B00011F0020F01D0072000E00820704708B561
:1059C00008200090FFF7D6FF009002E0FFF7D2FF1B
:1059D00000909DF800000128F8D09DF8000008BD57
:1059E00070B504460A460026082502B909E0012AD6
:1059F00001D1160205E0022A01D1160201E04FF49E
:105A00004076FFF7DCFF0546082D2DD1AE4810305B
:105A1000006820F44070AC49103108600846006806
:105A2000304308600846006820F0F8000860084627
:105A3000006844F002010843A34910310860084699
:105A4000006840F480300860FFF7B9FF05469E48C3
:105A50001030006820F002009B49103108600846B1
:105A6000006820F0F8000860284670BD30B5024696
:105A700000250824FFF7A3FF044602B909E0012A24
:105A800001D1150205E0022A01D1150201E04FF40F
:105A90004075082C20D18C481030006820F44070EC
:105AA00089491031086008460068284308600846A4
:105AB000006840F0040008600846006840F4803048
:105AC0000860FFF77CFF04467F481030006820F034
:105AD00004007D4910310860204630BD70B506468F
