:020000040800F2
:10000000C0410020A9150108B5010008B315010879
:10001000B7010008BB010008BF0100080000000094
:10002000000000000000000000000000C301000804
:10003000C501000800000000BF150108C701000845
:10004000C3150108C3150108C3150108C31501082C
:10005000C3150108C3150108C3150108C31501081C
:10006000C3150108C3150108C3150108C31501080C
:10007000C3150108C3150108C3150108C3150108FC
:10008000C3150108C3150108C3150108C3150108EC
:10009000C3150108C3150108C3150108C3150108DC
:1000A000C3150108C3150108C3150108C3150108CC
:1000B000C3150108C3150108C3150108C3150108BC
:1000C000C3150108C3150108C3150108C3150108AC
:1000D000C315010867AD0008D9010008C315010860
:1000E000C3150108C3150108C3150108C31501088C
:1000F000C3150108C3150108C3150108C31501087C
:10010000C3150108C3150108C3150108C31501086B
:10011000C3150108E1010008C3150108C315010852
:10012000C3150108C3150108C3150108C31501084B
:10013000C3150108C3150108C3150108C31501083B
:10014000C3150108C3150108C3150108EDA0000877
:10015000C3150108C3150108C3150108C31501081B
:10016000C3150108C3150108C3150108C31501080B
:10017000C3150108C3150108C3150108C3150108FB
:10018000C3150108C3150108DFF80CD015F092FA69
:1001900000480047A1010008C041002000BFFEE761
:1001A00000F05CF90249087001E000F0F9F8FCE7A2
:1001B00000000020704700BFFEE700BFFEE700BF61
:1001C000FEE77047704710B507480068401C0649B5
:1001D000086006F0C9FE10BD10B508F03EFF10BD66
:1001E00010B509F0B0F810BD640600208D48C08934
:1001F000401C8C49C88108468088401C00B2888019
:100200000846C088401C00B2C88008460089401CCF
:1002100000B2088108464089401C00B24881084667
:100220008089401C00B2888108460078012804D1EA
:1002300008464078401C487002E001207949087067
:10024000704710B5012006F0CEFE774808F08FFA0F
:1002500010BD10B52DED028B002006F0C4FEB0EEEF
:10026000408A06F051FE00EE100AB8EE400ADFEDBB
:100270006F0A80EE201A6E4880ED001A07F066FAC9
:10028000B0EE480A07F00AFD08F0CCF969480068AA
:1002900000F063FD68480068012803D1B0EE480A09
:1002A00002F0B8F806F030FE00EE100AB8EE400A90
:1002B000DFED5E0A80EE201A5D4880ED011ABDEC8C
:1002C000028B10BD10B52DED028B022006F08BFEC7
:1002D000B0EE408A06F018FE00EE100AB8EE400AB2
:1002E000DFED520A80EE201A514880ED021A534881
:1002F000D0ED063AB0EE633AD0ED053AF0EE632A5F
:10030000D0ED043AB0EE632AD0ED0C3AF0EE631A69
:10031000D0ED0B3AB0EE631AD0ED0A3AF0EE630A74
:10032000F6EE003A68EE233AB0EE630A444A4549D5
:10033000454802F063FC9FED450A414880ED000A04
:1003400000F030FD42480068012801D100F0FDFDB9
:1003500039480068012803D1B0EE480A01F0C7FA15
:1003600006F0D2FD00EE100AB8EE400ADFED2F0ACB
:1003700080EE201A2E4880ED031ABDEC028B10BDD2
:1003800010B508F009F910BD10B500F076FB10BDEE
:1003900010B505F0D1FB08F032FA0AF01DFC10BDD3
:1003A00010B52048007801283BD12A48008800B2C7
:1003B00029490880FFF745FF1A48B0F904000228D0
:1003C00004DB002017498880FFF743FF1548B0F988
:1003D0000600052804DB00201249C880FFF772FFE1
:1003E0001048B0F908000A2804DB00200D490881F4
:1003F000FFF7C6FF0B48B0F90A00142804DB002001
:1004000008494881FFF7C0FF0648B0F90C003228C0
:1004100004DB002003498881FFF7BAFF002001496F
:10042000087010BD500800201807002000247449EF
:10043000600800201C00002008000020A4340020D8
:10044000300100202C0100202801002000000000C5
:10045000F0050020740600200400002010B54FF4C1
:1004600080600AF0D1FC06F01DFD06F0B0FF06F03A
:1004700015FE4FF4C87006F037FE05F0E7FB08F0F4
:10048000D4FB4FF4C87006F063FD012019490870D1
:100490004870142007F03CFA08F084F84FF4E1307B
:1004A00008F068FD4FF416500AF0E8FB08F0A4F8D5
:1004B00000F04EFA642006F04BFD0AF087FB06F0D0
:1004C000CDFD07F043FE80F001000B4908700B489A
:1004D000007810B908F0EBFA0AE00748007810B984
:1004E00008F0FCFA04E00648007808B908F01AFBA6
:1004F000012010BDA4340020C80600208006002082
:100500004207002038B50122FBA1FC4813F05EFA37
:100510000446C4B100221146F7A014F050FA044674
:1005200014B14FF0FF3038BD0022F3A1F34813F0AF
:100530004DFA04463CB10022EFA1104613F046FAF2
:100540006FF00100EFE7EEA1EE4813F0F6FE04466F
:100550003CB10022E8A1104613F038FA6FF0020017
:10056000E1E70122E8A1EB4813F05BFA04463CB155
:100570000022E1A1104613F029FA6FF00300D2E740
:100580006B464022E449E34813F0FDFA0446009824
:1005900078B3E04813F056FD0122E0A1DD4813F0E6
:1005A00040FA04463CB10022D3A1104613F00EFAE3
:1005B0006FF00300B7E76B46C022DA49D54813F065
:1005C000E2FA0446009848B1D24813F03BFD0022FD
:1005D000C9A1104613F0FAF90120A4E7CD4813F0A1
:1005E00031FD0022C4A1104613F0F0F96FF00300B2
:1005F00099E7FFE7C74813F025FD0022BEA110468A
:1006000013F0E4F96FF004008DE738B50022BAA1C9
:10061000BA4813F0DBF90446C4B100221146B6A073
:1006200014F0CDF9044614B14FF0FF3038BD00226C
:10063000B1A1B24813F0CAF904463CB10022AEA100
:10064000104613F0C3F96FF00100EFE7ACA1AD481D
:1006500013F073FE04463CB10022A7A1104613F02C
:10066000B5F96FF00200E1E70A22A7A1A94813F04B
:10067000D8F904463CB100229FA1104613F0A6F918
:100680006FF00300D2E76B464022A349A14813F064
:1006900073FB044674BB9F4813F0D4FC0A229FA14D
:1006A0009C4813F0BEF904463CB1002292A11046CA
:1006B00013F08CF96FF00300B8E76B46C02299493C
:1006C000944813F059FB04464CB9924813F0BAFC15
:1006D000002289A1104613F079F90120A6E78D4880
:1006E00013F0B0FC002284A1104613F06FF96FF0F4
:1006F00003009BE7874813F0A5FC00227EA110466B
:1007000013F064F96FF0040090E710B58648824B4F
:10071000D3E900219B68C0E90E1342637E4BD3E905
:1007200003215B69C0E91113026480487A4B1833D6
:100730000ECB08300EC07C4A774B24330BCB58329B
:100740000BC2754890ED0D0A774880ED190A724882
:1007500090ED0E0A744880ED1A0A7548714C1ECC53
:1007600054301EC064386F49D1E905340A69C9693B
:10077000C0E91A34426601676A4BD3E909141A6A60
:10078000DB6AC0E91F43C0E91D216A48654BD3E914
:100790000C41D3E90E23C0E91541C0E91723614993
:1007A000D1E911430A6CC96CC0E91A43426601677A
:1007B0005C49D1E91434D1E91621C0E91D34C0E9FE
:1007C0001F2110BD10B500F081F906F0ACFA06F05B
:1007D000C9FA10BD10B50022012147A014F0EFF8AE
:1007E0009FED550A4F4880ED040A9FED530A80EDB6
:1007F000000A9FED510A80ED080A9FED500A80ED36
:10080000060A9FED4E0A80ED020AB7EE000A80ED5F
:100810000A0AB0EE080A80ED050AB0EE040A80ED7F
:10082000010AB7EE000A80ED090AB7EE000A80ED72
:10083000070AB7EE000A80ED030AB7EE000A80ED62
:100840000B0AB6EE000A80ED100AB6EE000A80ED43
:100850000C0A9FED3B0A80ED140A9FED380A80EDEB
:10086000120A9FED360A80ED0E0A9FED360A80EDE2
:10087000160A9FED350A80ED110A9FED330A80EDCF
:100880000D0A9FED320A80ED150AB7EE000A80EDE1
:10089000200AB7EE000A80ED220AB7EE000A80EDCA
:1008A000210AB7EE000A80ED240AB7EE000A80EDB7
:1008B000260AB7EE000A80ED250AB7EE000A80EDA1
:1008C000180AB7EE000A80ED1A0AB7EE000A80EDAA
:1008D000190AB7EE000A80ED1C0AB7EE000A80ED97
:1008E0001E0AB7EE000A80ED1D0AFFF78EFEFFF725
:1008F0000CFFFFF767FF10BD303A000074090020BD
:100900002F000000CC29002073656E736F722E6279
:10091000696E0000A4190020740800207069642E1C
:1009200062696E00B4080020A43400209C060020F8
:10093000E8290020AC2A00209A99993F0000000085
:10094000CDCC4C3ECDCC4C3D9A99993ECDCCCC3DB6
:1009500010B5FFF7D7FD0446002C04DAFFF73AFF85
:10096000012051490870FFF7D0FEFFF72BFF10BDA3
:1009700010B504464D4894E80E0034300EC04C4883
:1009800094E80E000EC0494890ED190A484880EDE1
:100990000D0AFFF73AFE10BD10B50446434894E82F
:1009A0000E0040300EC0424894E80E000C300EC0DD
:1009B0003E4890ED1A0A3E4880ED0E0AFFF725FEEC
:1009C00010BD10B504463B4894E80E0008300EC038
:1009D000374894E80E0018300EC0FFF716FE10BD21
:1009E00010B50446314894E80E0058300EC0304827
:1009F00094E80E0024300EC0FFF707FE10BD10B5BE
:100A00002D482E49D1E916344A6D096E80E81C0044
:100A1000C16001462948D0E91A34426E006FC1E92D
:100A200005340A61C8612548D0E91E34426FD0F808
:100A30008000C1E909340A62C8620A46204CD4E940
:100A40001530D4E91714C2E90E14C2E90C3010466F
:100A50001B49D1E91942D1E91B31C0E91042C0E973
:100A600012311749D1E91D42D1E91F31C0E91442C1
:100A7000C0E91631FFF7C9FD10BD10B51148008857
:100A800020B110480088401C0E4908800D4800889D
:100A90003C2807DD00200B4908800B48006808B996
:100AA000FFF7ADFF10BD000014000020A4340020AB
:100AB000740800209C060020B4080020E8290020CB
:100AC000AC2A0020660500200C010020B7EE000AC9
:100AD000FE4880ED180AB7EE000A80ED1C0AB7EE5A
:100AE000000A80ED200A9FEDFA0A80ED300A704777
:100AF000704710B5F7480068401CF6490860084682
:100B00000068B0F5FA7F07DB01200860F248008832
:100B100081B2F2480FF077FFF148006840B3F14826
:100B2000006850B1F048006818B16421EF480FF038
:100B30006AFF0020EC4908601AE0ED480068401C9C
:100B4000EB49086008460068322804DD0020086090
:100B50000120E8490860E748006830B16521E348B2
:100B60000FF051FF0120E04908600020E1490860D2
:100B7000DB48006818B96521DC480FF044FF10BD60
:100B800010B5D4480068401CD24908600846006887
:100B9000B0F5FA7F07DB01200860CF48008881B2FA
:100BA000CE480FF030FFCE48006840B3CD48006813
:100BB00050B1CD48006818B16421CC480FF023FF34
:100BC0000020C94908601AE0C9480068401CC849AB
:100BD000086008460068322804DD00200860012013
:100BE000C4490860C348006830B16521BF480FF0B0
:100BF0000AFF0120BC4908600020BE490860B848CF
:100C0000006818B96521B9480FF0FDFE10BD10B598
:100C1000B0480068401CAF49086008460068B0F55D
:100C2000FA7F07DB01200860AB48008881B2AB483F
:100C30000FF0E9FEAA48006868B1AF480068401CA0
:100C4000AD49086008460068B0F57A6F03DB012003
:100C50000860AA490870A248006840B3A14800682B
:100C600050B1A148006818B16421A0480FF0CBFE34
:100C700000209D4908601AE09D480068401C9C497E
:100C8000086008460068322804DD00200860012062
:100C9000984908609748006830B1652193480FF083
:100CA000B2FE0120904908600020924908608C48FB
:100CB000006818B965218D480FF0A5FE10BD10B56C
:100CC00084480068401C8349086008460068B0F505
:100CD000FA7F07DB012008607F48008881B27F48E7
:100CE0000FF091FE8648006860B14FF400418548DE
:100CF0000AF035FC082084494883042048830220F8
:100D0000488304E04FF400417E480AF059FC10BDCE
:100D100010B570480068401C6E49086008460068BD
:100D2000B0F5FA7F07DB012008606B48008881B2CC
:100D30006A480FF068FE6A48006868B16E4800684B
:100D4000401C6D49086008460068B0F57A6F03DB07
:100D5000012008606D49087010BD10B50446022CD2
:100D600004D04FF4004167480AF02AFC072C17D240
:100D7000DFE804F01604070A0D101300FFF7C8FFA0
:100D80000EE0FFF79CFF0BE0FFF741FF08E0FFF7E5
:100D9000F7FE05E0FFF7ADFE02E0FFF7A9FE00BF9A
:100DA00000BF10BD10B55A48006800B30020584974
:100DB000086049480068062818D2DFE800F01703E9
:100DC000070B0F132820534908600FE050205149AA
:100DD00008600BE078204F49086007E0A0204D49EB
:100DE000086003E0C8204B49086000BF00BF4948C5
:100DF000006850B14FF4804142480AF0B0FB4548CA
:100E00000068401E4349086004E04FF480413D48BB
:100E10000AF0D6FB10BD3D480078012825D13E4898
:100E2000007860B100202E4908609FED3C0A3C48E4
:100E300080ED000A9FED390A3A4880ED000A3A48F1
:100E400090ED000AF1EE080A30EE600A80ED000A2B
:100E5000364890ED000ADFED360AB4EEE00AF1EE16
:100E600010FA02D80020334908602448007858B3AB
:100E70002D4890ED000ADFED300AB4EEE00AF1EE05
:100E800010FA0CD2B0EE080A2C4880ED000AB8EE39
:100E9000080A234880ED000A002011490860224812
:100EA00090ED000AF2EE0E0A30EE600A80ED000AC4
:100EB0001E4890ED000ADFED220AB4EEE00AF1EEE2
:100EC00010FA41D800203DE03EE00000E829002073
:100ED000CDCC4C3E300000201C0000200010014012
:100EE000F0050020C007002054000020004400400E
:100EF0003800002058000020340000204C00002062
:100F000074070020000C024000100240540700202B
:100F100020000020240000205607002000000000D0
:100F200070000020B40000202C0600203C060020A9
:100F3000000082430C0100200000C8432C00002068
:100F400000009643FD490860704710B52DED048BF5
:100F5000FB480068282807DAF9480068002803DD04
:100F60000120F84908600AE0F5480068282806DDF5
:100F7000F3480068502802DA0020F2490860F1487E
:100F80000068012806D1EE48006818B90020EC4935
:100F9000086008E0EB48006828B9E948006810B923
:100FA0005020E7490860E6480068E7490968401AA8
:100FB00000EE100AB8EEC00AE44880ED000AE448EA
:100FC0000068401CE249086008460068E149096879
:100FD000884206DBDA480068DB4908600120DC490A
:100FE0000860DD480068192807DADB480068002837
:100FF00003DD0120D94908600AE0D74800681928B4
:1010000006DDD5480068322802DA0020D34908609E
:10101000D2480068012806D1CF48006818B90020DE
:10102000CD49086008E0CD48006828B9CA48006882
:1010300010B93220C8490860C7480068C849096823
:10104000401A00EE100AB8EEC00AC64880ED000A49
:10105000C5480068401CC449086008460068BD498E
:101060000968884206DBBC480068BD490860012069
:10107000BD490860BD48006801287CD1B0490968B5
:10108000C1F1280014F022F941EC190B9FEDB80BC7
:1010900053EC102B14F0A8F841EC180B14F06AF97B
:1010A000B5490860A94890ED000AB1EE400A10EE7B
:1010B000100A14F01CF941EC190B9FEDB00B53EC26
:1010C000102B14F091F841EC180B14F053F9AD49C2
:1010D0000860A948006814F00AF941EC180B9FED6C
:1010E000AA0B53EC102B14F02DF904D89FEDA80A8D
:1010F000A14880ED000AA048006814F0F8F841EC1F
:10110000180B9FEDA40B53EC102B14F003F904D82B
:101110009FEDA20A984880ED000A9A4890ED000AD7
:10112000F0EE000AB4EEE00AF1EE10FA03DBB0EEE6
:10113000000A80ED000A934890ED000AF8EE000ADC
:10114000B4EEE00AF1EE10FA03D8B8EE000A80ED32
:10115000000A894890ED000A8A48D0ED000A30EE76
:10116000200A8F4880ED000A7B490968C1F1190007
:1011700014F0ACF800E06FE041EC190B9FED890B27
:1011800053EC102B14F030F841EC180B14F0F2F87B
:1011900079490860734890ED000AB1EE400A10EEFC
:1011A000100A14F0A4F841EC190B9FED740B53ECEA
:1011B000102B14F019F841EC180B14F0DBF87149FE
:1011C00008606D48006814F092F841EC180B9FED30
:1011D0006E0B53EC102B14F0B5F804D89FED6C0A8D
:1011E000654880ED000A6448006814F080F841EC1E
:1011F000180B9FED680B53EC102B14F08BF804D8F0
:101200009FED660A5C4880ED000A5E4890ED000A9A
:10121000F0EE000AB4EEE00AF1EE10FA03DBB0EEF5
:10122000000A80ED000A574890ED000AF8EE000A27
:10123000B4EEE00AF1EE10FA03D8B8EE000A80ED41
:10124000000A4D4890ED000A4E48D0ED000A30EEFD
:10125000200A564880ED000A4448006803286CD1F3
:1012600037490968C1F1280014F030F841EC190B36
:101270009FED4F0B53EC102B13F0B6FF41EC180B06
:1012800014F078F83C490860304890ED000AB1EE5F
:10129000400A10EE100A14F02AF841EC190B9FEDE9
:1012A000370B53EC102B13F09FFF41EC180B14F08D
:1012B00061F8344908603048006814F018F841ECCF
:1012C000180B9FED3D0B53EC102B14F03BF804D89A
:1012D0009FED3B0A284880ED000A2748006814F07B
:1012E00006F841EC180B9FED370B53EC102B14F064
:1012F00011F804D89FED350A1F4880ED000A2148F7
:1013000090ED000AF1EE080AB4EEE00AF1EE10FAF0
:1013100003DBB1EE080A80ED000A1A4890ED000ADE
:10132000F9EE080AB4EEE00AF1EE10FA03D8B9EECD
:10133000080A80ED000A10484AE0C9E00C010020CC
:10134000B8070020AC00002090000020980000208A
:10135000A4000020A0000020BC070020B000002056
:10136000940000209C000020A80000201C00002009
:10137000C3F5285C8FC2C53FDC000020CDCCCCCCAF
:10138000CCCCEC3FE0000020333333333333034025
:101390009A99194033333333333303C09A9919C0C0
:1013A0007000002052B81E85EB51C83F2C00002071
:1013B0009A9999999999C93F666666666666FE3FED
:1013C0003333F33F666666666666FEBF3333F3BF4C
:1013D00090ED000AFE48D0ED000A30EE200AFD48EC
:1013E00080ED000AFC490968C1F1190013F06EFF95
:1013F00041EC190B9FEDF90B53EC102B13F0F4FE9D
:1014000041EC180B13F0B6FFF6490860F64890ED72
:10141000000AB1EE400A10EE100A13F068FF41EC2A
:10142000190B1FED2A0B53EC102B13F0DDFE41ECD2
:10143000180B13F09FFFE6490860EA48006813F0B4
:1014400056FF41EC180B1FED240B53EC102B13F03F
:1014500079FF04D81FED260AE24880ED000AE14832
:10146000006813F044FF41EC180B1FED2A0B53ECFE
:10147000102B13F04FFF04D81FED2C0AD94880ED34
:10148000000AD34890ED000AF1EE080AB4EEE00A33
:10149000F1EE10FA03DBB1EE080A80ED000ACC4849
:1014A00090ED000AF9EE080AB4EEE00AF1EE10FA47
:1014B00003D8B9EE080A80ED000ACA4890ED000A88
:1014C000C348D0ED000A30EE200AC84880ED000A7B
:1014D000C748006804287CD1C6490968C1F12800C2
:1014E00013F0F4FE41EC190B9FEDC30B53EC102BE2
:1014F00013F07AFE41EC180B13F03CFFB949086079
:10150000BF4890ED000AB1EE400A10EE100A13F049
:10151000EEFE41EC190B1FED670B53EC102B13F093
:1015200063FE41EC180B13F025FFA9490860AD4894
:10153000006813F0DCFE41EC180B1FED6D0B53EC53
:10154000102B13F0FFFE04D81FED6F0AA54880EDA5
:10155000000AA448006813F0CAFE41EC180B1FED06
:10156000730B53EC102B13F0D5FE04D81FED750A46
:101570009C4880ED000A964890ED000AF1EE080ABA
:10158000B4EEE00AF1EE10FA03DBB1EE080A80EDEA
:10159000000A8F4890ED000AF9EE080AB4EEE00A5E
:1015A000F1EE10FA03D8B9EE080A80ED000A8D4872
:1015B00090ED000A8648D0ED000A30EE200A8548FA
:1015C00080ED000A84490968C1F1190013F07EFE1C
:1015D00000E06FE041EC190B9FED8A0B53EC102BF0
:1015E00013F002FE41EC180B13F0C4FE7D490860B5
:1015F0007D4890ED000AB1EE400A10EE100A13F09B
:1016000076FE41EC190B1FEDA30B53EC102B13F0DE
:10161000EBFD41EC180B13F0ADFE6D49086071480D
:10162000006813F064FE41EC180B1FEDA90B53EC9E
:10163000102B13F087FE04D81FEDAB0A694880ED2C
:10164000000A6848006813F052FE41EC180B1FEDC9
:10165000AF0B53EC102B13F05DFE04D81FEDB10A55
:10166000604880ED000A5A4890ED000AF1EE080A41
:10167000B4EEE00AF1EE10FA03DBB1EE080A80EDF9
:10168000000A534890ED000AF9EE080AB4EEE00AA9
:10169000F1EE10FA03D8B9EE080A80ED000A5148BD
:1016A00090ED000A4A48D0ED000A30EE200A4F487B
:1016B00080ED000A4E48006805287CD14D49096834
:1016C000C1F1280013F002FE41EC190B9FED4F0B06
:1016D00053EC102B13F088FD41EC180B13F04AFE6D
:1016E00040490860464890ED000AB1EE400A10EE0D
:1016F000100A13F0FCFD41EC190B1FEDE00B53EC4D
:10170000102B13F071FD41EC180B13F033FE304930
:1017100008603448006813F0EAFD41EC180B1FED37
:10172000E60B53EC102B13F00DFE04D81FEDE80A66
:101730002C4880ED000A2B48006813F0D8FD41ECDE
:10174000180B1FEDEC0B53EC102B13F0E3FD04D83A
:101750001FEDEE0A234880ED000A1D4890ED000AB7
:10176000F1EE080AB4EEE00AF1EE10FA03DBB1EE96
:10177000080A80ED000A164890ED000AF9EE080A02
:10178000B4EEE00AF1EE10FA03D8B9EE080A80EDE3
:10179000000A144890ED000A0D48D0ED000A30EE22
:1017A000200A0C4880ED000A0B490968C1F11900B4
:1017B00013F08CFD00E097E041EC190B9FED150B49
:1017C00053EC102B13F010FD41EC180B26E0000039
:1017D000E000002070000020BC070020295C8FC2C0
:1017E000F528CC3FDC0000209C0000202C000020CD
:1017F0001C000020B8070020EC51B81E85EBC13F4B
:10180000980000207B14AE47E17AC43F3333333372
:101810003333C33FC3F5285C8FC2C53F13F0AAFD25
:10182000FE490860FE4890ED000AB1EE400A10EE55
:10183000100A13F05CFD41EC190B9FEDFA0B53EC11
:10184000102B13F0D1FC41EC180B13F093FDF7496A
:101850000860F248006813F04AFD41EC180B9FED58
:10186000F40B53EC102B13F06DFD04D89FEDF20A2E
:10187000EA4880ED000AE948006813F038FD41ECC1
:10188000180B9FEDEE0B53EC102B13F043FD04D817
:101890009FEDEC0AE14880ED000AE44890ED000A73
:1018A000F1EE080AB4EEE00AF1EE10FA03DBB1EE55
:1018B000080A80ED000ADD4890ED000AF9EE080AFA
:1018C000B4EEE00AF1EE10FA03D8B9EE080A80EDA2
:1018D000000AD24890ED000AD448D0ED000A30EE5C
:1018E000200AD94880ED000ABDEC048B10BD10B56C
:1018F0002DED028BB0EE408AD44890ED000AD4481A
:10190000D0ED000A30EE200AD24880ED000AD2481D
:1019100090ED000ACC48D0ED000A30EE200ACD4808
:1019200080ED010ACD48D0ED000ACA4890ED001ABA
:1019300070EE810ACA4890ED001A70EEC10AB0EE4E
:10194000600A02F02FF8C74880ED000AC348D0EDC6
:10195000010AC04890ED011A70EE810AC24890ED6C
:10196000001A70EEC10AB0EE600A02F01BF8BD4822
:1019700080ED010AB948D0ED020AB64890ED021A8E
:1019800070EE810AB94890ED001A70EEC10AB0EE0F
:10199000600A02F007F8B34880ED020A90ED000AF1
:1019A000B5EEC00AF1EE10FA02DD90ED000A04E097
:1019B000AC4890ED000AB1EE400AF3EE0E0A80EE5C
:1019C000201AA84880ED2D1A90ED010AB5EEC00A44
:1019D000F1EE10FA02DD90ED010A04E0A14890ED6D
:1019E000010AB1EE400AF3EE0E0A80EE201A9D487D
:1019F00080ED2E1A90ED020AB5EEC00AF1EE10FA53
:101A000002DD90ED020A04E0964890ED020AB1EE84
:101A1000400AF3EE0E0A80EE201A924880ED2F1A4B
:101A2000DFED930A80EE880AD0ED000A90ED031AEC
:101A300070EEC10A90ED161AF2EE041A21EE211A88
:101A400060EE810A60EE200A90ED2D1A9FED890A62
:101A5000DFED891A01EE810A20EE800A80ED0C0A82
:101A6000DFED830A80EE880AD0ED010A90ED041ABA
:101A700070EEC10A90ED1A1AF2EE041A21EE211A44
:101A800060EE810A60EE200A90ED2E1A9FED790A31
:101A9000DFED791A01EE810A20EE800A80ED0D0A51
:101AA000DFED730A80EE880AD0ED020A90ED051A88
:101AB00070EEC10A90ED1E1AF2EE041A21EE211A00
:101AC00060EE810A60EE200A90ED2F1A9FED690A00
:101AD000DFED691A01EE810A20EE800A80ED0E0A20
:101AE00090ED170AD0ED000A60EE200A90ED060A8C
:101AF00000EE880A80ED060A90ED1B0AD0ED010A7F
:101B000060EE200A90ED070A00EE880A80ED070AD1
:101B100090ED1F0AD0ED020A60EE200A90ED080A4F
:101B200000EE880A80ED080A544890ED000AF6EEAF
:101B3000000A20EE200AF3EE090A20EE200A4948A6
:101B400080ED090A4D4890ED000AF6EE000A20EEFD
:101B5000200AF3EE090A20EE200A424880ED0A0A24
:101B6000464890ED000AF6EE000A20EE200AF3EE59
:101B7000090A20EE200A3B4880ED0B0A90ED060A88
:101B8000D0ED090AF1EE600AB4EEE00AF1EE10FAC7
:101B900004D290ED090AB1EE400A0FE0314890ED11
:101BA000060AD0ED090AB4EEE00AF1EE10FA02DD01
:101BB00090ED090A02E02B4890ED060A294880EDD5
:101BC000060A90ED070AD0ED0A0AF1EE600AB4EEBB
:101BD000E00AF1EE10FA04D290ED0A0AB1EE400AE2
:101BE0000FE0204890ED070AD0ED0A0AB4EEE00AB3
:101BF000F1EE10FA02DD90ED0A0A02E0194890EDCC
:101C0000070A184880ED070A90ED080AD0ED0B0A84
:101C1000F1EE600AB4EEE00A32E00000DC000020E1
:101C20009C000020CDCCCCCCCCCCEC3FE000002004
:101C300033333333333303409A99194033333333D7
:101C4000333303C09A9919C02C000020E80000200B
:101C500070000020702B0020EC0000207C2B002066
:101C600028010020AC2A00202C0100203001002097
:101C70000AD7A33B6666263F3333B33E04010020F8
:101C8000F1EE10FA04D290ED0B0AB1EE400A0FE02B
:101C9000FA4890ED080AD0ED0B0AB4EEE00AF1EE36
:101CA00010FA02DD90ED0B0A02E0F44890ED080A0C
:101CB000F24880ED080A90ED000ADFEDF10AB4EE7B
:101CC000E00AF1EE10FA02D29FEDED0A0FE0EB48C8
:101CD00090ED000ADFEDEB0AB4EEE00AF1EE10FA47
:101CE00002DD9FEDE80A02E0E44890ED000AE348D7
:101CF00080ED000A90ED010ADFEDE10AB4EEE00AA2
:101D0000F1EE10FA02D29FEDDE0A0FE0DB4890ED13
:101D1000010ADFEDDC0AB4EEE00AF1EE10FA02DDB2
:101D20009FEDD80A02E0D54890ED010AD34880ED36
:101D3000010A90ED020ADFEDD20AB4EEE00AF1EEFC
:101D400010FA02D29FEDCE0A0FE0CC4890ED020AC5
:101D5000DFEDCC0AB4EEE00AF1EE10FA02DD9FED01
:101D6000C90A02E0C54890ED020AC44880ED020AA3
:101D700090ED000AD0ED0C0A30EE200AD0ED060AF4
:101D800030EE200AD0ED150A20EE200A80ED120A6E
:101D900090ED010AD0ED0D0A30EE200AD0ED070AD1
:101DA00030EE200AD0ED190A20EE200A80ED130A49
:101DB00090ED020AD0ED0E0A30EE200AD0ED080AAE
:101DC00030EE200AD0ED1D0A20EE200A80ED140A24
:101DD00090ED000A80ED030A90ED010A80ED040AFF
:101DE00090ED020A80ED050ABDEC028B10BD10B526
:101DF0002DED048B8AB0F0EE408AB0EE609AB0EE22
:101E0000418A9FEDA10AB4EEC08AF1EE10FA02D227
:101E10009FED9D0A0BE09FED9D0AB4EEC08AF1EEA6
:101E200010FA02DD9FED990A01E0B0EE480AB0EE2B
:101E3000408AB1EE680A30EE090A30EE080A8DEDEC
:101E4000040A38EE890A30EE480A8DED050A38EEAC
:101E5000C90A30EE080A8DED060AB1EE680A30EEC6
:101E6000490A30EE480A8DED070A002429E004A84B
:101E700000EB840090ED000ADFED850AB4EEE00A85
:101E8000F1EE10FA02D29FED820A13E004A800EBF3
:101E9000840090ED000ADFED7F0AB4EEE00AF1EE77
:101EA00010FA02DD9FED7B0A04E004A800EB840039
:101EB00090ED000A04A800EB840080ED000A601C8D
:101EC000C4B2042CD3DB9DED040AB5EEC00AF1EEDA
:101ED00010FA02DD9DED040A03E09DED040AB1EE67
:101EE000400ADFED6D0A60EE200A9FED6A1A80EE6F
:101EF000810ADFED6A0A30EE200ADDED040A20EEE9
:101F0000200A8DED000A9DED050AB5EEC00AF1EE3E
:101F100010FA02DD9DED050A03E09DED050AB1EE24
:101F2000400ADFED5D0A20EE200ADFED5A0A80EE5E
:101F3000201A9FED5A0A31EE000ADDED050A20EE67
:101F4000200A8DED010A9DED060AB5EEC00AF1EEFC
:101F500010FA02DD9DED060A03E09DED060AB1EEE2
:101F6000400ADFED4D0A20EE200A9FED4A1AC0EE2E
:101F7000010A9FED4A0A30EE800ADDED060A20EEE6
:101F8000200A8DED020A9DED070AB5EEC00AF1EEBA
:101F900010FA02DD9DED070A03E09DED070AB1EEA0
:101FA000400ADFED3D0A60EE200A9FED3A1A80EE0E
:101FB000810ADFED3A0A30EE200ADDED070A20EE55
:101FC000200A8DED030AFEF726FFDDED000A3448F6
:101FD00090ED000A334890ED001A01EE200A3248D5
:101FE00080ED000ADDED010A2D4890ED000A2D4834
:101FF00090ED001A01EE200A2B4880ED010ADDED7C
:10200000020A274890ED000A264890ED001A01EEDA
:10201000200A254880ED020ADDED030A204890EDF4
:10202000000A204890ED001A01EE200A1E4880EDBB
:10203000030A1E48006800B31D480078E0BB002476
:1020400047E0194800EB840090ED000AB5EEC00AA5
:10205000F1EE10FA02D29FED170A33E0124800EBBE
:10206000840090ED000ADFED0B0AB4EEE00AF1EE19
:1020700010FA22DD9FED070A24E05AE0AC2A002086
:102080000000B4C20000B4420000C8C30000C8434E
:1020900000007AC400007A446666E63ECDCC0C3F70
:1020A0006400002004010020BC2B00200C01002053
:1020B00000010020000000000EE0FB4800EB84005F
:1020C00090ED000AF84800EB840080ED000A601CE7
:1020D000C4B2042CB5DB37E0002427E0F24800EB63
:1020E000840090ED000AB5EEC00AF1EE10FA02D2BB
:1020F0001FED100A13E0EC4800EB840090ED000A9D
:102100005FED1C0AB4EEE00AF1EE10FA02DD1FEDFD
:102110001F0A04E0E44800EB840090ED000AE24866
:1021200000EB840080ED000A601CC4B2042CD5DBF7
:102130000AE01FED200ADC4880ED030A80ED020A68
:1021400080ED010A80ED000AD74890ED000ABDEE4F
:10215000C00A10EE100A00B2ADF82000D24890ED8F
:10216000010ABDEEC00A10EE100A00B2ADF822005E
:10217000CD4890ED020ABDEEC00A10EE100A00B282
:10218000ADF82400C84890ED030ABDEEC00A10EE79
:10219000100A00B2ADF826004FF47A72002108A8A8
:1021A00005F0B3F80AB0BDEC048B10BD10B52DEDF1
:1021B000028BB0EE408ABD4890ED020ADFEDBC0A0A
:1021C00030EE200ABB4880ED000AD0ED000A1FED7A
:1021D000511A80EE810AB848D0ED000A70EE600A0C
:1021E0009FEDB60A28EE001A90ED000A01EE200AD3
:1021F00080ED000A90ED000AB5EEC00AF1EE10FA8B
:1022000002D21FED540A0FE0AB4890ED000AF7EE42
:10221000000AB4EEE00AF1EE10FA02DDB7EE000AB1
:1022200002E0A54890ED000AA54880ED000AA1480B
:1022300090ED000ADFEDA30AB4EEE00AF1EE10FA29
:1022400003D20120A049087002E000209E490870D6
:102250009848D0ED000AB0EE480A04F05DFC9B48B7
:10226000006830B19A4800689A4908600020974990
:1022700008609948006800287ED09848007840BBE4
:102280009748007828BB97480068012821D19648D4
:1022900090ED000AF2EE0E0A30EE200A80ED000A00
:1022A000924890ED000ADFED920A30EE200A8E4847
:1022B000D0ED000AB4EEE00AF1EE10FA09D88B482E
:1022C00090ED000ADFED8A0A30EE200A864880EDA4
:1022D000000A8248007830B98148007818B98148EE
:1022E0000068032813D07D48007830B97C48007816
:1022F00018B97C480068042809D07848007840BBA9
:102300007748007828BB77480068052821D17648AF
:1023100090ED000AF3EE040A30EE200A80ED000A88
:10232000724890ED000ADFED720A30EE200A6E4826
:10233000D0ED000AB4EEE00AF1EE10FA09D86B48CD
:1023400090ED000ADFED6A0A30EE200A664880ED63
:10235000000A5B48D0ED000A664890ED001A9FED38
:10236000660A10EE810A5A48D0ED000AF8EEE00A3B
:1023700030EE200A614800E002E080ED000A28E02B
:102380005F480068401C5E490860084600681428E1
:1023900007D14F480068401C4D490860002058494B
:1023A00008604C480068574909680844484909686A
:1023B000884206DC47480068524909680844444995
:1023C0000860434890ED000AB8EEC00A4B4880ED23
:1023D000000A4A4890ED000AB5EEC00AF1EE10FA84
:1023E00002D21FEDCC0A0FE0444890ED000ADFED69
:1023F000460AB4EEE00AF1EE10FA02DD9FED420A61
:1024000002E03E4890ED000A3C4880ED000ABDEC39
:10241000028B10BD00B52DED028B83B0B0EE408A6B
:102420003A4890ED120AF3EE0E0A80EE201A9FED64
:10243000380A21EE000A8DED000AD0ED130AB3EE42
:102440000E1A80EE810ADFED320A20EE200A8DEDB1
:10245000010A90ED140AF3EE0E0A80EE201A9FEDA9
:102460002C0A21EE000A8DED020A9DED000A294892
:1024700080ED000A9DED010A80ED010A9DED020A42
:1024800080ED020A244890ED000A224880ED020AFD
:1024900090ED000ADFED210AB4EEE00AF1EE10FA49
:1024A0003ED29FED1E0A4BE0BC2B0020042D0020E5
:1024B0000000FA4320010020240100203433FB41B6
:1024C000040100200000C84200010020FC000020A0
:1024D000F0000020F8000020EC0500204C00002057
:1024E000540700201C0000202C060020300600208D
:1024F00000409C44E40500200000164464000020D5
:1025000008010020F400002000004844AC2A00200C
:1025100000009643942B0020B4000020000096C3D6
:10252000FE4890ED000A5FED060AB4EEE00AF1EE17
:1025300010FA02DD1FED0A0A02E0F84890ED000AE9
:10254000F64880ED000A90ED010A5FED0C0AB4EE4A
:10255000E00AF1EE10FA02D21FED100A0FE0EF4888
:1025600090ED010A5FED160AB4EEE00AF1EE10FA02
:1025700002DD1FED190A02E0E84890ED010AE74884
:1025800080ED010A90ED020A5FED1C0AB4EEE00A4C
:10259000F1EE10FA02D21FED1F0A0FE0DF4890EDB6
:1025A000020A5FED250AB4EEE00AF1EE10FA02DD50
:1025B0001FED290A02E0D94890ED020AD74880EDC4
:1025C000020ADFEDD70A80EE880AD648D0ED0A0A63
:1025D000D54890ED001A70EEC10A20EE200AD348CB
:1025E00080ED0F0ADFEDCE0A80EE880ACD48D0EDEF
:1025F0000B0AF1EE600ACC4890ED011A70EEC10AA8
:1026000020EE200AC94880ED100ADFEDC50A80EEF1
:10261000880AC448D0ED0C0AF1EE600AC24890ED79
:10262000021A70EEC10A20EE200AC04880ED110A9D
:10263000BA4890ED000ABB48D0ED0A0A30EE600AB5
:10264000F7EE000A20EE200AB84880ED000AB348F1
:1026500090ED010AB348D0ED0B0A30EE200AF7EEF8
:10266000000A20EE200AB14880ED010AAB4890ED47
:10267000020AAC48D0ED0C0A30EE200AF7EE000A50
:1026800020EE200AA94880ED020A90ED000AB5EE7E
:10269000C00AF1EE10FA02DD90ED000A04E0A34852
:1026A00090ED000AB1EE400A5FED670A80EE201A55
:1026B0009E4880ED2D1A90ED010AB5EEC00AF1EEAC
:1026C00010FA02DD90ED010A04E0984890ED010A4D
:1026D000B1EE400A5FED720A80EE201A934880ED59
:1026E0002E1A90ED020AB5EEC00AF1EE10FA02DDE4
:1026F00090ED020A04E08D4890ED020AB1EE400A26
:10270000DFED8B0A80EE201A884880ED2F1ADFED6E
:10271000840A80EE880AD0ED160A90ED0F1AFAEEC0
:10272000041A21EE211A60EE810A20EE200A80EDC3
:102730000C0ADFED7B0A80EE880AD0ED1A0A90EDD4
:10274000101AFAEE041A21EE211A60EE810A20EE28
:10275000200A80ED0D0ADFED720A80EE880AD0EDC6
:102760001E0A90ED111AFAEE041A21EE211A60EEFB
:10277000810A20EE200A80ED0E0A90ED000AD0EDCD
:102780000F0A30EE600AD0ED170A60EE200A90EDD5
:10279000060A00EE880A80ED060A90ED010AD0EDE7
:1027A000100A30EE600AD0ED1B0A60EE200A90EDB0
:1027B000070A00EE880A80ED070A90ED020AD0EDC4
:1027C000110A30EE600AD0ED1F0A60EE200A90ED8B
:1027D000080A00EE880A80ED080A564890ED000AC3
:1027E000F6EE000A20EE200A5FEDB70A20EE200A7E
:1027F0004E4880ED090A4F4890ED000AF6EE000AB7
:1028000020EE200A5FEDBE0A20EE200A474880ED48
:102810000A0A484890ED000AF6EE000A20EE200A67
:102820005FEDC50A20EE200A404880ED0B0A90EDCE
:10283000060AD0ED090AF1EE600AB4EEE00AF1EE04
:1028400010FA04D290ED090AB1EE400A0FE03748C1
:1028500090ED060AD0ED090AB4EEE00AF1EE10FAA6
:1028600002DD90ED090A02E0304890ED060A2F489B
:1028700080ED060A90ED070AD0ED0A0AF1EE600A33
:10288000B4EEE00AF1EE10FA04D290ED0A0AB1EECD
:10289000400A0FE0254890ED070AD0ED0A0AB4EE91
:1028A000E00AF1EE10FA02DD90ED0A0A02E01F489C
:1028B00090ED070A1D4880ED070A90ED080AD0ED5B
:1028C0000B0AF1EE600AB4EEE00AF1EE10FA04D25F
:1028D00090ED0B0AB1EE400A0FE0144890ED080AA3
:1028E000D0ED0B0AB4EEE00AF1EE10FA02DD90ED45
:1028F0000B0A02E00D4890ED080A0C4880ED080A2A
:1029000090ED300AF7EE000A30EEC00AD0ED150A5D
:1029100020EE200AD0ED000A0EE00000942B0020EB
:102920006F12033BA4340020A02B0020E8290020D4
:10293000000016430401002090ED0C1A70EE810A8D
:1029400090ED061A70EE810A60EE200A90ED301AC2
:102950009D48D0ED2D1A9FED9D0A9FED9D2A02EE18
:10296000210AB5EEC00AF1EE10FA02D29FED990AE3
:102970001BE09548D0ED2D1A9FED940A9FED942A07
:1029800002EE210AF7EE001AB4EEE10AF1EE10FAB7
:1029900002DDB7EE000A08E08B48D0ED2D1A9FED5E
:1029A0008B0A9FED8B2A02EE210A21EE000A8A484B
:1029B00090ED001A40EE010AB0EE080A20EE800AFF
:1029C000864880ED120A90ED300AF7EE000A30EEEC
:1029D000C00AD0ED190A20EE200AD0ED010A90EDD0
:1029E0000D1A70EE810A90ED071A70EE810A60EE02
:1029F000200A90ED301A7448D0ED2E1A9FED730A1C
:102A00009FED732A02EE210AB5EEC00AF1EE10FA2C
:102A100002D29FED700A1BE06B48D0ED2E1A9FED9D
:102A20006B0A9FED6B2A02EE210AF7EE001AB4EE54
:102A3000E10AF1EE10FA02DDB7EE000A08E06248A2
:102A4000D0ED2E1A9FED610A9FED612A02EE210A58
:102A500021EE000A604890ED011A40EE010AB0EE46
:102A6000080A20EE800A5D4880ED130A90ED300AD6
:102A7000F7EE000A30EEC00AD0ED1D0A20EE200A63
:102A8000D0ED020A90ED0E1A70EE810A90ED081A50
:102A900070EE810A60EE200A90ED301A4A48D0EDBF
:102AA0002F1A9FED4A0A9FED4A2A02EE210AB5EE3F
:102AB000C00AF1EE10FA02D29FED460A1BE042482E
:102AC000D0ED2F1A9FED410A9FED412A02EE210A17
:102AD000F7EE001AB4EEE10AF1EE10FA02DDB7EEFD
:102AE000000A08E03848D0ED2F1A9FED380A9FED14
:102AF000382A02EE210A21EE000A374890ED021A28
:102B000040EE010AB0EE080A20EE800A334880ED5C
:102B1000140AB0EE480AFFF749FB3048D0ED141A0A
:102B2000B0EE611AD0ED131AF0EE610AD0ED121A70
:102B3000B0EE610AFFF75BF9284890ED000A80EDDE
:102B4000030A90ED010A80ED040A90ED020A80ED7F
:102B5000050A234890ED0A0A224880ED000A204821
:102B600090ED0B0AB1EE400A1E4880ED010A1C48A8
:102B700090ED0C0AB1EE400A1A4880ED020A03B04B
:102B8000BDEC028B00BD10B517480068D0B14FF402
:102B90007A720021154804F0B8FB15480068401C03
:102BA0001349086008460068B0F5FA7F0ADB012087
:102BB000104908601049086000200B490860012096
:102BC0000B49086010BD0000AC2A00206666E63E96
:102BD000CDCC0C3F00000000942B0020E829002001
:102BE000A4340020A02B0020100100201801002098
:102BF00014010020080000200C01002070B52DED0C
:102C0000108BB0EE408AB0EE60EAF0EE41EAB0EE32
:102C100061FAF0EE429AB0EE629AF0EE438A044610
:102C20000D4616469FEDFB0A28EE000AF3EE040A55
:102C300020EE200AF0EE40AAF748D0ED080A60EE38
:102C4000A00A90ED091AD0ED091A41EE210A90ED83
:102C50000A1AD0ED0A1A41EE210AB0EE600A00F01D
:102C600006FDEE4880ED000A90ED000AB5EEC00AC0
:102C7000F1EE10FA38D0E84890ED080AE748D0EDB8
:102C8000000A80EE201AE64890ED000A71EE400A34
:102C900090ED000A0AEEA00A80ED000ADE4890EDF1
:102CA000090ADE48D0ED000A80EE201ADC4890EDDB
:102CB000010A71EE400A90ED010A0AEEA00A80EDC9
:102CC000010AD548D0ED0A0AD44890ED001A80EEEA
:102CD000810AD348D0ED020A70EE600A90ED020A34
:102CE0000AEEA00A80ED020ACE4ACD49CE4803F092
:102CF00088F9CC48D0ED000A60EEA00A90ED011AE8
:102D0000D0ED011A41EE210AB0EE600A00F0AFFCEE
:102D1000C64880ED000AC34890ED000AB5EEC00A2F
:102D2000F1EE10FA36D090ED010AB5EEC00AF1EEE0
:102D300010FA2FD090ED020AB5EEC00AF1EE10FAAB
:102D400028D0BA4890ED000AB5EEC00AF1EE10FAAC
:102D500020D0B44890ED000AB448D0ED000A80EECF
:102D6000201AB0EE41BAAF4890ED010AAF48D0ED5D
:102D7000000A80EE201AF0EE41BAF0EE4B0AB0EEF7
:102D80006B0A00F0B4FBDFEDAA0A20EE200AA94886
:102D900080ED000AA84890ED010AD0ED030A20EE6C
:102DA000200AD0ED000A90ED021A00EEC10AF0EE02
:102DB000000A20EE200A9C4880ED000A9E4890ED13
:102DC000000AD0ED010A20EE200AD0ED020A90EDB3
:102DD000031A00EE810AF0EE000A20EE200A924863
:102DE00080ED010A944890ED010A20EE000AD0ED32
:102DF000020A90ED021A00EE810AF7EE000AB0EE28
:102E0000001A41EE400A8848C0ED020A69EEA90A9C
:102E100049EE090A48EEA80AB0EE600A00F027FC65
:102E2000864880ED000A9FED7B0A28EE000AF2EE4C
:102E3000040A60EE200A90ED000A814890ED001A25
:102E400030EE411A90ED000A00EE810A80ED000A92
:102E5000F5EEC09AF1EE10FA02DDB0EE690A01E07B
:102E6000B1EE690ADFED770AB4EEE00AF1EE10FA8E
:102E70007DD2B5EEC09AF1EE10FA02DDB0EE490A4D
:102E800001E0B1EE490ADFED6F0AB4EEE00AF1EEBF
:102E900010FA78D2F5EEC08AF1EE10FA02DDB0EE4B
:102EA000680A01E0B1EE680ADFED660AB4EEE00AF6
:102EB000F1EE10FA67D2614890ED000AC9EE800A7F
:102EC000F0EE609A90ED000AC9EE000AB0EE609A4A
:102ED00090ED000AC8EE800AF0EE608A90ED000ADC
:102EE000DFED590AB4EEE00AF1EE10FA54DD90ED90
:102EF000000ADFED540AB4EEE00AF1EE10FA4BD20C
:102F0000494890ED020A20EE090AD0ED010A08EEC8
:102F1000E00A4E4880ED030A434890ED000A20EE97
:102F2000280AD0ED020A09EEE00A484880ED040ABA
:102F30009FED380A28EE000AF7EE000A20EE20AADC
:102F400090ED030AD0ED060A70EE600A90ED060AD5
:102F50000AEE200A80ED060A90ED040AD0ED070A79
:102F600070EE600A90ED070A0AEE200A00E00AE01F
:102F700080ED070A90ED060A80ED000A90ED070A41
:102F800080ED010A08E09FED320A304880ED000A2A
:102F90009FED2F0A80ED010A2C4890ED090AD0ED33
:102FA000000A9FED2C1A60EE810AB0EE001A60EE66
:102FB000810A00EE880A80ED090A90ED0A0AD0ED38
:102FC000010A9FED241A60EE810AB0EE001A60EE4D
:102FD000810A00EE880A80ED0A0A90ED0B0AD0ED16
:102FE000020A9FED1C1A60EE810AB0EE001A60EE34
:102FF000810A00EE880A80ED0B0A90ED090ADFEDE8
:10300000160AB4EEE00AF1EE10FA27D29FED120A8A
:1030100034E00000C3F5C8409C06002054010020A5
:10302000402C0020342C0020EC2B002050010020EC
:10303000333365425C01002034010020440100204C
:103040004C0100200080894500806D45F82B002050
:1030500000000000CDCCCC3D34FA0EBDFE4890ED12
:10306000090ADFEDFE0AB4EEE00AF1EE10FA02DD25
:103070009FEDFA0A02E0F84890ED090AF64880ED63
:10308000090A90ED0A0A5FED0C0AB4EEE00AF1EECF
:1030900010FA02D21FED100A0FE0EF4890ED0A0A75
:1030A000DFEDEE0AB4EEE00AF1EE10FA02DD9FED7C
:1030B000EB0A02E0E84890ED0A0AE74880ED0A0AC8
:1030C00090ED0B0A5FED1C0AB4EEE00AF1EE10FA87
:1030D00002D21FED1F0A0FE0DF4890ED0B0ADFED73
:1030E000DF0AB4EEE00AF1EE10FA02DD9FEDDB0A32
:1030F00002E0D94890ED0B0AD74880ED0B0AD8487A
:1031000090ED020AB5EEC00AF1EE10FA29DDD548BD
:10311000006898B1D448D0ED000AD44890ED001A68
:1031200070EEC10AB0EE600A00F03CFCDFEDD00AA0
:1031300020EE200ACF4880ED000A12E0CA48D0ED08
:10314000000ACA4890ED001A70EEC10AB0EE600A9B
:1031500000F028FCDFEDC80A20EE200AC54880ED0B
:10316000000ABD4890ED000AD0ED090A30EE200AB1
:10317000DFEDC20A20EE200AB94890ED001ABD48E2
:10318000D0ED001AF0EE4E0A41EE610A9FEDBC1A36
:1031900000EE810AB04880ED0C0A90ED010AD0EDF6
:1031A0000A0A30EE200ADFEDB50A20EE200AAC480C
:1031B00090ED011AAF48D0ED001AF0EE6E0A41EE24
:1031C000610A9FEDAF1A00EE810AA34880ED0D0A57
:1031D000A348D0ED020AA74890ED001AB0EE4F0ABE
:1031E00000EEC10ADFEDA60A20EE200A9A4880ED23
:1031F0000E0AA44890ED010AB1EE400A9648D0EDBF
:103200000C0A20EE200A9F48D0ED020A924890ED69
:103210000D1A00EEC10A9B48D0ED030A8E4890EDCE
:103220000E1A00EEC10A9748D0ED000A40EE080AD7
:10323000C0ED000A90ED000A8748D0ED0C0A20EEA0
:10324000200A9048D0ED020A834890ED0E1A00EE55
:10325000810A8C48D0ED030A7F4890ED0D1A00EEEC
:10326000C10A8848D0ED010A40EE080AC0ED010A03
:1032700090ED000A7848D0ED0D0A20EE200A814832
:10328000D0ED010A744890ED0E1A00EEC10A7D4897
:10329000D0ED030A704890ED0C1A00EE810A7948CF
:1032A000D0ED020A40EE080AC0ED020A90ED000AD5
:1032B0006948D0ED0E0A20EE200A7248D0ED010ACE
:1032C000654890ED0D1A00EE810A6E48D0ED020AB5
:1032D000614890ED0C1A00EEC10A6A48D0ED030A6D
:1032E00040EE080AC0ED030AD0ED000A60EEA00A25
:1032F00090ED011AD0ED011A41EE210A90ED021A6B
:10330000D0ED021A41EE210A90ED031AD0ED031A16
:1033100041EE210AB0EE600A00F0A9F95A4880EDAA
:10332000000A584890ED000A5748D0ED000A80EE98
:10333000201A544880ED001A90ED010A5248D0ED51
:10334000000A80EE201A4F4880ED011A90ED020A23
:103350004D48D0ED000A80EE201A4A4880ED021A4E
:1033600090ED030A4848D0ED000A80EE201A454847
:1033700080ED031A90ED011A21EE011AD0ED021A28
:1033800090ED022A01EE821AF7EE001AB0EE002A42
:1033900042EE411AF0EE610A90ED001AD0ED011AEA
:1033A00021EE211AD0ED021A90ED032A01EE821AC5
:1033B000F0EE001A21EE211AB0EE410A00F097F863
:1033C0005FEDE50A20EE200A84ED000A2D4890ED1D
:1033D000010AD0ED030A20EE200AD0ED000A90ED9C
:1033E000021A00EEC10AF0EE000A20EE200A10EEEA
:1033F000101A084611F07BFF41EC1D0BB0EE4D0A90
:10340000F0EE6D0A12F01CFAB0EE40CAF0EE60CA9F
:103410009FED1E0B53EC102B51EC1C0B11F0E4FE36
:1034200041EC1B0B11F0A6FF2860164890ED001A26
:1034300021EE011AD0ED011A90ED012A01EE821A57
:10344000F7EE001AB0EE002A52EE011AF0EE610A11
:1034500090ED011A1EE00000F82B002034FA0E3D1A
:10346000EC2B00200C0100205C010020300100202A
:1034700090C2F53D580100206766663F9A99193F52
:1034800034FA8E3C34010020480100200000006026
:1034900066A64C40B1EE411AD0ED021A21EE211A77
:1034A000D0ED001A90ED032A01EEC21AF0EE001AD8
:1034B00021EE211AB0EE410A00F019F8DFED040AFE
:1034C00020EE200A86ED000ABDEC108B70BD0000D6
:1034D00033336542F0EE400AF5EEC00AF1EE10FA21
:1034E00002DBB0EE600A7047B1EE600AFBE700B5A0
:1034F000B0EE403AB0EE602AB5EEC03AF1EE10FA06
:1035000007D1B5EEC02AF1EE10FA02D19FEDFD1AF7
:1035100099E0B0EE430AFFF7DDFFF0EE403AB0EE7F
:10352000420AFFF7D7FFF0EE402AF4EEE23AF1EE5E
:1035300010FA02D283EEA24A01E082EEA34A9FED86
:10354000F20AB4EEC04AF1EE10FA02D2F0EE441ADA
:103550002DE0DFEDEE0AB6EE000A14EE200AF0EEE2
:10356000404ABDEEE40A10EE100A00EE100AB8EE72
:10357000C00A34EEC00AF0EE404AE54901EB800192
:1035800091ED000AF0EE401AE14A411C02EB810184
:1035900091ED000A114601EB8001D1ED000A70EEB9
:1035A000600AB0EE610A00EEA40AF0EE401AF4EEF2
:1035B000E32AF1EE10FA20DDB5EEC02AF1EE10FAA2
:1035C0000ADBB5EEC03AF1EE10FA02DBB0EE611A9A
:1035D00039E0B1EE611A36E09FEDCE1AB5EEC03A91
:1035E000F1EE10FA04DB31EE610AB0EE401A2AE087
:1035F00031EEC10AB0EE401A25E0B5EEC03AF1EE68
:1036000010FA10DB9FEDC41AB5EEC02AF1EE10FAE5
:1036100004DB31EE610AB0EE401A14E031EE210A0B
:10362000B0EE401A0FE09FEDBD1AB5EEC02AF1EEE4
:1036300010FA04DB31EE210AB0EE401A03E031EE5D
:10364000610AB0EE401AB0EE410A00BD00B5B0EE1E
:10365000405AF0EE605AF0EE450AB0EE650AFFF708
:1036600046FF00BDF0EE400A20EEA00A7047B0EE23
:10367000401AB7EE080AB0EE402AB6EE000A21EE74
:10368000000AF0EE401AF0EE410A10EE900AA4494A
:10369000A1EB600000EE900A61EEA02AB7EE080AE6
:1036A00002EEE00A20EE200AF0EE400A61EEA02AC7
:1036B000B7EE080A02EEE00A20EE200AF0EE400A19
:1036C00021EE200A704710B52DED0A8BB0EE409A1E
:1036D000F0EE609A9FED930B53EC102B51EC190B0D
:1036E00011F018FE18D29FED910B53EC102B51ECFA
:1036F000190B11F079FD41EC1B0B9FED8E0B53EC78
:10370000102B11F0CAFC41EC1A0B53EC192B11F0E1
:103710006BFD41EC180B17E09FED840B53EC102B65
:1037200051EC190B11F060FD41EC1B0B9FED810B6F
:1037300053EC102B11F055FD41EC1A0B53EC192BE7
:1037400011F052FD41EC180B9FED760B53EC102B52
:1037500051EC180B11F0DEFD20D29FED780B53ECED
:10376000102B51EC180B11F098FC41EC1C0B9FED49
:10377000750B53EC102B11F037FD41EC1B0B9FED3B
:103780006F0B53EC102B11F088FC41EC1A0B53EC2F
:10379000182B11F029FD41EC180B1FE09FED670B72
:1037A00053EC102B51EC180B11F018FD41EC1C0BD5
:1037B0009FED660B53EC102B11F016FD41EC1B0B2B
:1037C0009FED5E0B53EC102B11F067FC41EC1A0BD4
:1037D00053EC182B11F008FD41EC180BB0EE480A21
:1037E000F0EE680ABDEC0A8B10BD10B52DED068B0E
:1037F000B0EE408AF0EE608A01249FED560B53EC48
:10380000102B51EC180B11F09DFD0AD89FED510BB8
:1038100053EC102B51EC180B11F0E0FC41EC180BA1
:10382000A41E204611F052FD41EC190BB0EE480ADF
:10383000F0EE680AFFF747FFB0EE40AAF0EE60AA8C
:1038400053EC192B51EC1A0B11F0CEFC41EC100B80
:10385000BDEC068B10BD10B52DED088BB0EE408A87
:10386000F0EE608A01249FED3D0B53EC102B51ECE0
:10387000180B11F012FC41EC180B9FED360B53ECBA
:10388000102B51EC180B11F05DFD0AD8A41E9FED12
:10389000310B53EC102B51EC180B11F09FFC41EC49
:1038A000180B204611F012FD41EC1A0BB0EE480A3D
:1038B000F0EE680AFFF799FFB0EE40BAF0EE60BA9A
:1038C00053EC1A2B51EC1B0B11F08EFC41EC190B35
:1038D00011F050FD00EE100ABDEC088B10BDB0EEEB
:1038E000401AB5EEC01AF1EE10FA3BDD31EE600A77
:1038F000B5EEC00AF1EE10FA3FD2DFED021AB0EEDB
:10390000610A3AE0000000008180803B00008043B3
:1039100060010020DB0F4940DB0FC93FDB0FC9BF4F
:10392000DF59375F00000000000000000000006069
:103930002FF0D93F00000060305FF43F000000002E
:103940000000F03F000000C0CCCCCCBF000000C0A5
:10395000CCCCCC3FF1D4C853FB210940F1D4C8539F
:10396000FB21F93F31EE200AB5EEC00AF1EE10FA64
:1039700003DD5FED1C1AB0EE610A7047B0EE401A2D
:10398000F1EE601AB4EEE11AF1EE10FA07DDB4EED2
:10399000E01AF1EE10FA02D21FED260A01E0B0EEB5
:1039A000410A7047F0EE400A9FED210AF4EEC00A8A
:1039B000F1EE10FA04DD9FED1F0A30EEC00A7047E9
:1039C0009FED1D0AF4EEC00AF1EE10FA04D29FED4D
:1039D000190A30EE800AF2E7B0EE600AEFE7F0EE87
:1039E000401AB7EE000AF4EEC00AF1EE10FA04DC59
:1039F000F5EEC00AF1EE10FA02D21FED3E0A704752
:103A000081EE810AB5EEC00AF1EE10FA02DD81EE18
:103A1000810A03E081EE810AB1EE400A20EE202AFD
:103A2000B7EE000A30EE600A02EE210AE7E7000076
:103A3000000034430000B443000034C370B50546B1
:103A40000C462146FE4802F008F92146FC4805F0E4
:103A5000F4FB70BD70B504460D46AA20F849087005
:103A60004870EF2088700220C870084604714571C4
:103A70000026002005E0F249095C3144CEB2411C29
:103A8000C8B20628F7DBEE4886710721FFF7D6FF9C
:103A900070BD2DE9F0432DED028B83B005460E4637
:103AA00017469846B0EE408A0024AA222146641C9C
:103AB000E34842542146641C425404222146641CBB
:103AC000425400222146641C42542146641C455441
:103AD0002146641C465401979DF807202146641C2A
:103AE00042549DF806202046611CCCB2D4490A54A9
:103AF0009DF805202046611CCCB2D1490A549DF89E
:103B000004202046611CCCB2CD490A54CDF8048073
:103B10009DF807202046611CCCB2C9490A549DF883
:103B200006202046611CCCB2C5490A549DF80520E8
:103B30002046611CCCB2C2490A549DF8042020469C
:103B4000611CCCB2BE490A549FEDBE0A28EE000AA1
:103B5000BDEEC00A10EE100A00B202909DF80920D6
:103B60002046611CCCB2B6490A549DF80820204674
:103B7000611CCCB2B2490A54201FC8704FF0000932
:103B8000002006E0AE49095C494401F0FF09411CF0
:103B9000C8B2A042F6DB2046611CCCB2A84901F8AD
:103BA00000902146A648FFF749FF03B0BDEC028B09
:103BB000BDE8F08370B52DED0A8B82B00546B0EEFE
:103BC000408AF0EE608AB0EE419AF0EE619AB0EE73
:103BD00042AAF0EE62AAB0EE43BAF0EE63BAB0EEDB
:103BE00044CA0024AA222146641C95484254214616
:103BF000641C425405F10F00C2B22146641C904877
:103C0000425400222146641C42549FED8F0A28EE44
:103C1000000ABDEEC00A10EE100A00B201909DF835
:103C200005202146641C864842549DF80420214604
:103C3000641C42549FED840A28EE800ABDEEC00A3F
:103C400010EE100A00B201909DF805202146641C78
:103C50007B4842549DF804202046611CCCB2784930
:103C60000A549FED790A29EE000ABDEEC00A10EE53
:103C7000100A00B201909DF805202046611CCCB2CC
:103C80006F490A549DF804202046611CCCB26C494F
:103C90000A549FED6D0A29EE800ABDEEC00A10EEAF
:103CA000100A00B201909DF805202046611CCCB29C
:103CB00063490A549DF804202046611CCCB2604937
:103CC0000A549FED610A2AEE000ABDEEC00A10EE0A
:103CD000100A00B201909DF805202046611CCCB26C
:103CE00057490A549DF804202046611CCCB254491F
:103CF0000A549FED550A2AEE800ABDEEC00A10EE66
:103D0000100A00B201909DF805202046611CCCB23B
:103D10004B490A549DF804202046611CCCB2484906
:103D20000A549FED490A2BEE000ABDEEC00A10EEC0
:103D3000100A00B201909DF805202046611CCCB20B
:103D40003F490A549DF804202046611CCCB23C49EE
:103D50000A549FED3D0A2BEE800ABDEEC00A10EE1C
:103D6000100A00B201909DF805202046611CCCB2DB
:103D700033490A549DF804202046611CCCB23049D6
:103D80000A549FED310A2CEE000ABDEEC00A10EE77
:103D9000100A00B201909DF805202046611CCCB2AB
:103DA00027490A549DF804202046611CCCB22449BE
:103DB0000A54201FC8700026002005E02049095C35
:103DC0003144CEB2411CC8B2A042F7DB2046611C90
:103DD000CCB21B490E5421461948FFF72FFE02B002
:103DE000BDEC0A8B70BDF8B505460E460024AA222C
:103DF0002146641C124842542146641C4254052248
:103E00002146641C425400222146641C4254009501
:103E10009DF801202146641C42549DF80020214653
:103E2000641C425400969DF801202146641C4254B3
:103E30009DF800202146601CC4B20148425405E0B0
:103E40005E2C00200000C84200007A44201FFE497A
:103E5000C8700027002005E0FB49095C3944CFB257
:103E6000411CC8B2A042F7DB2046611CCCB2F64927
:103E70000F542146F448FFF7E1FDF8BD7FB500245B
:103E8000AA222146641CF04842542146641C425434
:103E900006222146641C425400222146641C4254DE
:103EA0009DF801202146641C42549DF800202146C3
:103EB000641C42549DF805202146641C42549DF820
:103EC00004202046611CCCB2DF490A549DF8092029
:103ED0002046611CCCB2DC490A549DF808202046DB
:103EE000611CCCB2D8490A549DF80D202046611CB3
:103EF000CCB2D5490A549DF80C202146601CC4B2AE
:103F0000D14842549DF821202046611CCCB2CE49B4
:103F10000A549DF820202046611CCCB2CA490A549C
:103F20009DF825202046611CCCB2C7490A549DF853
:103F300024202046611CCCB2C3490A549DF8292094
:103F40002046611CCCB2C0490A549DF82820204666
:103F5000611CCCB2BC490A549DF82D202046611C3E
:103F6000CCB2B9490A549DF82C202046611CCCB231
:103F7000B5490A54201FC8700025002005E0B24949
:103F8000095C2944CDB2411CC8B2A042F7DB2046EF
:103F9000611CCCB2AC490D542146AB48FFF74EFD35
:103FA0007FBD7FB50024AA222146641CA648425446
:103FB0002146641C425403222146641C42540022C0
:103FC0002146641C42549DF801202146641C425441
:103FD0009DF800202146641C42549DF8052021468E
:103FE000641C42549DF804202046611CCCB29649C2
:103FF0000A549DF809202046611CCCB292490A540B
:104000009DF808202046611CCCB28F490A549DF8C7
:104010000D202046611CCCB28B490A549DF80C201F
:104020002046611CCCB288490A549DF821202046C4
:10403000611CCCB284490A549DF820202146601CA2
:10404000C4B2814842549DF825202046611CCCB260
:104050007D490A549DF824202046611CCCB27A493F
:104060000A549DF829202046611CCCB276490A5496
:104070009DF828202046611CCCB273490A549DF853
:104080002D202046611CCCB26F490A549DF82C208B
:104090002046611CCCB26C490A549DF83120204660
:1040A000611CCCB268490A549DF830202046611C3E
:1040B000CCB265490A549DF835202046611CCCB22B
:1040C00061490A549DF834202046611CCCB25E49F7
:1040D0000A54201FC8700025002005E05A49095CD9
:1040E0002944CDB2411CC8B2A042F7DB2046611C76
:1040F000CCB255490D5421465348FFF79FFC7FBD74
:1041000073B50024AA222146641C4F48425421461C
:10411000641C425407222146641C4254002221465A
:10412000641C42549DF803202146641C42549DF8AF
:1041300002202146641C42549DF801202146641C43
:1041400042549DF800202046611CCCB23E490A54DE
:104150009DF805202046611CCCB23B490A549DF8CD
:1041600004202046611CCCB237490A54201FC87075
:104170000025002005E03449095C2944CDB2411CEA
:10418000C8B2A042F7DB2046611CCCB22E490D54C8
:1041900021462D48FFF752FC7CBD2DE9F84F05461E
:1041A0000E4617469846DDE90AAB0024AA222146AE
:1041B000641C254842542146641C42540222214674
:1041C000641C425400222146641C425400959DF810
:1041D00001202146641C42549DF800202146641CA5
:1041E000425400969DF801202146641C42549DF8DB
:1041F00000202146601CC4B21348425400979DF829
:1042000001202046611CCCB20F490A549DF80020C1
:104210002046611CCCB20C490A54CDF800809DF8B0
:1042200001202046611CCCB207490A549DF80020A9
:104230002046611CCCB204490A54CDF800A09DF878
:1042400001202046611C01E05E2C0020CCB2FE491A
:104250000A549DF800202046611CCCB2FA490A5449
:10426000CDF800B09DF801202146601CC4B2F6488C
:1042700042549DF800202146601CC4B2F2484254CA
:104280000C9800909DF801202046611CCCB2EE49AC
:104290000A549DF800202046611CCCB2EA490A5419
:1042A0000D9800909DF801202046611CCCB2E64993
:1042B0000A549DF800202046611CCCB2E2490A5401
:1042C0000E9800909DF801202046611CCCB2DE497A
:1042D0000A549DF800202046611CCCB2DA490A54E9
:1042E000002000909DF801202046611CCCB2D649E8
:1042F0000A549DF800202046611CCCB2D2490A54D1
:10430000201FC8704FF00009002006E0CE49095C6C
:10431000494401F0FF09411CC8B2A042F6DB204627
:10432000611CCCB2C84901F800902146C648FFF78D
:1043300085FBBDE8F88F38B50024AA222146641C0D
:10434000C14842542146641C4254F1222146641C57
:10435000425400222146641C4254BC4890ED000A9D
:10436000BDEEC00A10EE100A00B200909DF80120C8
:104370002146641CB44842549DF800202146641C28
:104380004254B34890ED000ABDEEC00A10EE100A88
:1043900000B200909DF801202146641CAA484254B6
:1043A0009DF800202046611CCCB2A7490A54A848B9
:1043B00090ED000ABDEEC00A10EE100A00B20090A7
:1043C0009DF801202046611CCCB29F490A549DF8FB
:1043D00000202046611CCCB29B490A549D4890EDB8
:1043E000000ABDEEC00A10EE100A00B200909DF85F
:1043F00001202046611CCCB293490A549DF800204C
:104400002046611CCCB290490A54934890ED000AB2
:10441000BDEEC00A10EE100A00B200909DF8012017
:104420002046611CCCB288490A549DF800202046E1
:10443000611CCCB284490A54201FC870002500209A
:1044400005E08149095C2944CDB2411CC8B2A042B3
:10445000F7DB2046611CCCB27B490D5421467A48DB
:10446000FFF7ECFA38BD30B52DED048B81B0B0EE1E
:10447000408AF0EE608AB0EE419A0024AA222146DA
:10448000641C714842542146641C42540B2221464C
:10449000641C425400222146641C42549FED6F0A62
:1044A00028EE000ABDEEC00A10EE100A00B200901D
:1044B0009DF801202146641C634842549DF8002069
:1044C0002146641C42549FED650A28EE800ABDEE29
:1044D000C00A10EE100A00B200909DF8012021469B
:1044E000641C594842549DF800202046611CCCB2FF
:1044F00055490A549FED590A29EE000ABDEEC00A3B
:1045000010EE100A00B200909DF801202046611CB8
:10451000CCB24D490A549DF800202046611CCCB213
:1045200049490A54201FC8700025002005E046496B
:10453000095C2944CDB2411CC8B2A042F7DB204639
:10454000611CCCB240490D5421463F48FFF776FA32
:1045500001B0BDEC048B30BD2DE9F0412DED048B95
:1045600082B0B0EE408AF0EE608AB0EE419A054625
:104570000E46174600240095AA222146641C3248A4
:1045800042542146641C425401222146641C425478
:1045900000222146641C42549FED310A28EE000A95
:1045A000BDEEC00A10EE100A00B201909DF8052081
:1045B0002146641C244842549DF804202146641C72
:1045C00042549FED270A28EE800ABDEEC00A10EE85
:1045D000100A00B201909DF805202146641C1A487B
:1045E00042549DF804202046611CCCB216490A545E
:1045F0009FED1B0A29EE000ABDEEC00A10EE100A5C
:1046000000B201909DF805202046611CCCB20E49F5
:104610000A549DF804202046611CCCB20A490A5471
:104620009DF803202046611CCCB207490A549DF82E
:1046300002202046611CCCB203490A549DF8012097
:104640002046611CCCB20DE05E2C0020200600202C
:1046500008060020E005002018060020CDCCCC3D47
:104660000000C842F7490A549DF800202146601C0A
:10467000C4B2F44842542046611CCCB2F1490E54F5
:104680002046611CCCB2EF490F54201FC8704FF078
:104690000008002006E0EB49095C414401F0FF08F6
:1046A000411CC8B2A042F6DB2046611CCCB2E549F1
:1046B00001F800802146E348FFF7C0F902B0BDECE5
:1046C000048BBDE8F0817FB505460024AA2221466F
:1046D000641CDC4842542146641C4254002221469A
:1046E000641C42542146641C42542146641C4554B7
:1046F0009DF805202146641C42549DF80420214663
:10470000641C42549DF809202046611CCCB2CD495E
:104710000A549DF808202046611CCCB2C9490A54AD
:104720009DF80D202046611CCCB2C6490A549DF864
:104730000C202046611CCCB2C2490A549DF82120AD
:104740002046611CCCB2BF490A549DF82020204667
:10475000611CCCB2BB490A54201FC870002600203F
:1047600005E0B849095C3144CEB2411CC8B2A04250
:10477000F7DB2046611CCCB2B2490E542146B14849
:10478000FFF75CF97FBD10B586B0AF480078AF4940
:10479000097890FBF1F201FB1201AC480078401E51
:1047A000814202D10120AA49C870A7480078A949CE
:1047B000097890FBF1F201FB1201A6480078401E37
:1047C000814202D10120A24908719F480078A24984
:1047D000097890FBF1F201FB12019F480078801EDE
:1047E000814202D101209A49C873974800789B49B9
:1047F000097890FBF1F201FB120198480078401E05
:10480000814202D10120924988708F4800789449F2
:10481000097890FBF1F201FB120191480078401EEB
:10482000814202D101208A49C872874800788D49A7
:10483000097890FBF1F201FB12018A480078801E92
:10484000814202D10120824948737F48007886491D
:10485000097890FBF1F201FB120183480078801E79
:10486000814202D101207A498873774800787F49D4
:10487000097890FBF1F201FB12017C480078C01E20
:10488000814202D10120724908746F48007878494A
:10489000097890FBF1F201FB120175480078C01E07
:1048A000814204D16A48407C401C6949487466488A
:1048B0000078401CC0B264490870C82801DD00209F
:1048C00008706348007848B1002061490870694861
:1048D000017869480078FFF7BDF817E25C48407836
:1048E00060B100205A4948704FF4C87364224FF4F5
:1048F000967100900420FFF7E6FE07E254488078A6
:10490000E0B10020524988705C490A785C4991ED19
:10491000000A5FEDAE0A20EE200ABDEEC00A10EEDE
:10492000100A0021574B93ED001A574BD3ED000AA4
:10493000564B93ED000AFFF70FFEE7E14448007C79
:1049400060B1002042490874514890ED001ADFED33
:10495000510A9FED500AFFF786FDD7E13C48C07B26
:1049600028B100203A49C873FFF7E5FCCEE138488A
:10497000C078E8B300203649C870474890ED0A0A6D
:10498000BDEEC00A10EE100A01B2434890ED090ACC
:10499000BDEEC00A10EE100A02B23F4890ED080AC0
:1049A000BDEEC00A10EE100A00B23C4B93ED090AAE
:1049B000BDEEC00A10EE103A1BB2CDE90130CDE9D0
:1049C0000321364890ED080ABDEEC00A10EE100A29
:1049D00000B2324C009094ED070ABDEEC00A10EE12
:1049E000104A23B22D4C94ED060ABDEEC00A00E039
:1049F00015E010EE104A22B2284C94ED050ABDEEE7
:104A0000C00A10EE104A21B2244C94ED040ABDEE07
:104A1000C00A10EE104A20B2FFF7BFFB76E10C4847
:104A2000007970B100200A4908711D4800880A21E8
:104A300090FBF1F084B221461A480068FFF760FB52
:104A400064E131E05E2C002068050020690500204B
:104A50004C2C00206A0500206B0500206C0500200E
:104A60006D0500206E0500206F05002070050020F8
:104A70007105002065050020640500200C01002060
:104A800018060020300100202C0100202801002001
:104A900008060020000000009C060020A43400202E
:104AA000B007002024070020FE48C07AA8B30020E9
:104AB000FC49C87240F2DC52FB48C08900F2DC506D
:104AC00080B2F949898901F2DC5189B2CDE903024A
:104AD000F54805920291408900F2DC5080B2F2491B
:104AE000098901F2DC5189B2EF4CCDE900106488EC
:104AF00004F2DC54A3B2EC4C248804F2DC54A2B2DD
:104B0000E94CE48804F2DC54A1B2E74CA48804F236
:104B1000DC54A0B2FFF745FAF8E0FFE7E148407B3C
:104B200048B30020DF494873009001900290DF4CA9
:104B3000039094ED030ABCEEC00A10EE104AA3B233
:104B4000DA4C94ED020ABCEEC00A10EE104AA2B292
:104B5000D64C94ED010ABCEEC00A10EE104AA1B288
:104B6000D24C94ED000ABCEEC00A10EE104AA0B27E
:104B7000FFF784F9CAE0CB48807B40B10020C949E7
:104B800088734FF4E4717B20FFF72DF9BEE0C54830
:104B9000407958B30020C3494871C548D0ED1E4A3A
:104BA000B0EE644AD0ED1F4AF0EE643AD0ED1D4AF3
:104BB000B0EE643AD0ED1A4AF0EE642AD0ED1B4A0A
:104BC000B0EE642AD0ED194AF0EE641AD0ED164A20
:104BD000B0EE641AD0ED174AF0EE640AD0ED154A33
:104BE000B0EE640A0120FEF7E5FF8FE0AD48807962
:104BF00058B30020AB498871AE48D0ED1E4AB0EEE4
:104C0000644AD0ED1F4AF0EE643AD0ED1D4AB0EE92
:104C1000643AD0ED1A4AF0EE642AD0ED1B4AB0EEA9
:104C2000642AD0ED194AF0EE641AD0ED164AB0EEBF
:104C3000641AD0ED174AF0EE640AD0ED154AB0EED2
:104C4000640A0220FEF7B6FF60E09648C07958B3C8
:104C500000209449C8719848D0ED214AB0EE644ACA
:104C6000D0ED224AF0EE643AD0ED204AB0EE643A3C
:104C7000D0ED1D4AF0EE642AD0ED1E4AB0EE642A53
:104C8000D0ED1C4AF0EE641AD0ED194AB0EE641A69
:104C9000D0ED1A4AF0EE640AD0ED184AB0EE640A7C
:104CA0000320FEF787FF31E07E48007AF8B100204C
:104CB0007C4908728048D0ED251AB0EE611AD0ED1B
:104CC000261AF0EE610AD0ED241AB0EE610A1FED4B
:104CD0008F4A5FED903A1FED913A5FED922A1FEDFA
:104CE000932A5FED941A0420FEF764FF0EE06D48EE
:104CF000407C02280AD100206A4948741FED9B0AB3
:104D000000231A4619461846FEF7C3FE00F0B7FF07
:104D100006B010BD70B52DED048B04460E4600257F
:104D2000002004E0215C2944CDB2411CC8B2711EB0
:104D30008142F7DCA01910F8010CA84202D0BDECAA
:104D4000048B70BD2078AA2802D16078AF2800D0EB
:104D5000F5E7A078012822D12079012802D157490E
:104D600008701CE02079022803D1012053494870C3
:104D700015E02079032804D10120504908704870BB
:104D80000DE02079042803D101204D49087006E088
:104D90002079212802DB2079262800DD00BFA078B9
:104DA000022814D12079012806D13E494871887122
:104DB000C8710872487288722079A02802D1012037
:104DC000384948702079A12801D1FBF703FDA0786C
:104DD000032836D13B480078012802D0022000F099
:104DE000A5FE2079617941EA002037498880A079C1
:104DF000E17941EA00203449C880207A617A41EAA9
:104E0000002031490880A07AE17A41EA00202E4949
:104E10004880207B617B41EA00202B490881A07BF0
:104E2000E17B41EA002028494881207C617C41EAFD
:104E3000002025498881A07CE17C41EA00202249AC
:104E4000C881A07810287DD12179090209B2627940
:104E500041EA020010F03AFA41EC190B9FED1B0BEE
:104E600053EC102B10F0C0F941EC180B10F082FA43
:104E70000F494865A179090209B2E27941EA0200C5
:104E800010F024FA41EC190B9FED100B53EC102B92
:104E900010F0AAF941EC180B10F06CFA0449C8653F
:104EA000217A17E04C2C0020D42C0020BC2B0020B1
:104EB000E8290020AC2A0020B4080020A4340020F7
:104EC000C906002080050020902C0020FCA9F1D20A
:104ED0004D62503F090209B2627A41EA020010F0C5
:104EE000F5F941EC190B1FED070B53EC102B10F0EB
:104EF0007BF941EC180B10F03DFAFE498865A17A68
:104F0000090209B2E27A41EA020010F0DFF941EC4D
:104F1000190B1FED120B53EC102B10F065F941EC3F
:104F2000180B10F027FAF3494866217B090209B2F1
:104F3000627B41EA020010F0C9F941EC190B1FED48
:104F40001D0B00E075E053EC102B10F04DF941EC17
:104F5000180B10F00FFA0146E648C166A17B090262
:104F600009B2E27B41EA020010F0B0F941EC190B02
:104F70001FED2A0B53EC102B10F036F941EC180BF7
:104F800010F0F8F90146DB488166217C090209B27C
:104F9000627C41EA020010F099F941EC190B1FED17
:104FA000350B53EC102B10F01FF941EC180B10F0DF
:104FB000E1F9D0494867A17C090209B2E27C41EAE3
:104FC000020010F083F941EC190B1FED400B53EC7C
:104FD000102B10F009F941EC180B10F0CBF9014639
:104FE000C448C167217D090209B2627D41EA02001D
:104FF00010F06CF941EC190B1FED4C0B53EC102B1E
:1050000010F0F2F841EC180B10F0B4F90146B94871
:105010008167B948007838B90120B7490870A0788D
:10502000B6490870B6480570FBF7CCFB0120B549BE
:105030000880A07811287DD12179090209B262790E
:1050400041EA020010F042F941EC190B1FED610B2F
:1050500053EC102B10F0C8F841EC180B10F08AF943
:10506000A9494865A179090209B2E27941EA020039
:1050700010F02CF941EC190B1FED6C0B53EC102BBD
:1050800010F0B2F841EC180B10F074F99E49C865A5
:10509000217A090209B2627A41EA020010F016F997
:1050A00041EC190B1FED770B53EC102B10F09CF813
:1050B00041EC180B10F05EF993498865A17A09025A
:1050C00009B2E27A41EA020010F000F941EC190B52
:1050D0001FED820B53EC102B10F086F841EC180BEF
:1050E00010F048F988494866217B090209B2627BC1
:1050F00041EA020010F0EAF841EC190B1FED8D0BAC
:1051000053EC102B10F070F841EC180B10F032F942
:1051100001467D48C166A17B090209B2E27B41EAF2
:10512000020010F0D3F841EC190B1FED980B53EC73
:10513000102B00E05CE010F057F841EC180B10F079
:1051400019F9014670488166217C090209B2627C26
:1051500041EA020010F0BAF841EC190B1FEDA50B63
:1051600053EC102B10F040F841EC180B10F002F942
:1051700065494867A17C090209B2E27C41EA020064
:1051800010F0A4F841EC190B1FEDB00B53EC102BF1
:1051900010F02AF841EC180B10F0ECF801465A48D0
:1051A000C167217D090209B2627D41EA020010F067
:1051B0008DF841EC190B1FEDBB0B53EC102B10F0CD
:1051C00013F841EC180B10F0D5F801464E488167F2
:1051D0004948007838B9012047490870A078474904
:1051E000087047480570FBF7EDFA01204549088033
:1051F000A07812287CD12179090209B2627941EAAA
:10520000020010F063F841EC190B1FEDD00B53ECCA
:10521000102B0FF0E9FF41EC180B10F0ABF83B49F5
:105220000866A179090209B2E27941EA020010F0A8
:105230004DF841EC190B1FEDDB0B53EC102B0FF06D
:10524000D3FF41EC180B10F095F830498866217AAD
:10525000090209B2627A41EA020010F037F841EC23
:10526000190B1FEDE60B53EC102B0FF0BDFF41ECBB
:10527000180B10F07FF825494866A17A090209B297
:10528000E27A41EA020010F021F841EC190B1FED1F
:10529000F10B53EC102B0FF0A7FF41EC180B10F0A3
:1052A00069F81A490867217B090209B2627B41EA61
:1052B000020010F00BF841EC190B1FEDFC0B53EC46
:1052C000102B0FF091FF41EC180B10F053F80F4921
:1052D0008867A17B090209B2E27B41EA02000FF074
:1052E000F5FF41EC190B9FED0A0B53EC102B13E06B
:1052F0006FE00000E82900204C2C0020640500200D
:105300006505002066050020AC2A0020B4080020B6
:10531000FCA9F1D24D62503F0FF066FF41EC180B33
:1053200010F028F89C494867217C090209B2627C88
:1053300041EA02000FF0CAFF41EC190B1FED0C0B04
:1053400053EC102B0FF050FF41EC180B10F012F83B
:105350009149C1F88000A17C090209B2E27C41EACE
:1053600002000FF0B3FF41EC190B1FED170B53ECCC
:10537000102B0FF039FF41EC180B0FF0FBFF8649A3
:10538000C1F88800217D090209B2627D41EA02006C
:105390000FF09CFF41EC190B1FED230B53EC102B6E
:1053A0000FF022FF41EC180B0FF0E4FF7A49C1F82F
:1053B00084007A48007838B9012078490870A078CC
:1053C0007749087077480570FBF7FCF901207649AA
:1053D0000880A078132854D12179090209B2627992
:1053E00041EA02000FF072FF41EC190B1FED380B80
:1053F00053EC102B0FF0F8FE41EC180B0FF0BAFF36
:105400006549C1F89000A179090209B2E27941EA3F
:1054100002000FF05BFF41EC190B1FED430B53EC47
:10542000102B0FF0E1FE41EC180B0FF0A3FF5A49CF
:10543000C1F89800217A090209B2627A41EA0200B1
:105440000FF044FF41EC190B1FED4F0B53EC102BE9
:105450000FF0CAFE41EC180B0FF08CFF4E49C1F85B
:1054600094004E48007838B901204C490870A07863
:105470004B4908704B480570FBF7A4F901204A49D5
:105480000880A07814280AD14448007838B901204F
:1054900042490870A0784249087042480570A078D7
:1054A00015280AD13D48007838B901203B490870D9
:1054B000A0783B4908703B48057000BF3FE410B539
:1054C00004463A48007838B9AA2C05D1012037495A
:1054D0000870374804705DE034480078012807D12F
:1054E000AF2C05D10220314908703148447051E099
:1054F0002E480078022807D1F12C05DA03202B4929
:1055000008702B48847045E02848007803280CD1A7
:10551000322C0ADA0420254908702548C470254831
:10552000047000202449087034E0204800780428E2
:1055300019D120480078002815DD1E480078401E4B
:105540001C4908701C4800781B490978491C1A4AF4
:105550001170001D16490C5416480078D0B905206A
:105560001249087016E01148007805280FD1002074
:105570000E49087010480078001D0D490C540E4863
:105580000078401DC1B20A48FFF7C4FB02E00020CA
:105590000649087010BD0000B40800204C2C002003
:1055A00064050020650500206605002074050020C4
:1055B000A02C002072050020730500200246002068
:1055C00007E0FC4B1B5632F8133021F81030431C17
:1055D000D8B20828F5DB7047F748D0ED020A9FEDF6
:1055E000F71AF4EEC10AF1EE10FA51D2D0ED030A27
:1055F0009FEDF21AF4EEC10AF1EE10FA1AD2F04859
:10560000B0F90000401CC8B3EE480068B0B3EC48E5
:10561000B0F9000000EE900AF8EEE00A9FEDEA1AF9
:1056200041EE000AFDEEE00A10EE900A00B2E449F5
:10563000088030E0E048D0ED030A9FEDE41AF4EE74
:10564000C10AF1EE10FA1ADDDD48B0F90000401C85
:10565000A0B1DC48006888B9D948B0F9000000EE74
:10566000900AF8EEE00A9FEDD81A41EE000AFDEE2E
:10567000E00A10EE900A00B2D14908800BE0D04851
:10568000B0F90000401C30B90020CD49088002E08C
:105690000020CB490880CA48B0F90000B0F57A7FF5
:1056A00010DD4FF0FF30C6490880C648006830B9A9
:1056B0000120C44908600220C549487002E000206A
:1056C000C049086070473FB5F0EE401A0546C14832
:1056D0000078012804D1C0492846FFF76FFF07E092
:1056E000BC480078022803D1BB49BC48FFF766FFDD
:1056F000002407E2B84830F8140040F6C41188428C
:1057000005DCB54830F81400B0F5FA7F07DA01205F
:10571000B34908550020B34921F8140012E0B148FC
:1057200030F81400401CAF4921F81400084630F846
:105730001400C82806DD4FF4FA6021F81400002098
:10574000A7490855A3480078012803D0A14800784C
:1057500002287CD1A248005D0028FAD19E4830F88A
:10576000140000B22DF814009F4830F914009F492E
:1057700031F9141088426BDD9D48005D002878D116
:105780003DF91400994931F91410401A00EE100A3D
:10579000B8EEC01A944830F91400944931F9141045
:1057A000401A00EE100AB8EEC00AC1EE000A9FEDE2
:1057B000861A9FED900A10EE810ABDEEC00A10EE27
:1057C000100A00B210F5FA7F01DA8B484DE03DF97E
:1057D0001400864931F91410401A00EE100AB8EE90
:1057E000C01A814830F91400804931F91410401A68
:1057F00000EE100AB8EEC00AC1EE000A9FED721A60
:105800009FED7C0A10EE810ABDEEC00A10EE100A70
:1058100000B2B0F5FA7F02DD4FF4FA7025E03DF9F1
:105820001400724931F91410401A00EE100AB8EE53
:10583000C01A6D4830F914006C4931F91410401A3F
:1058400000EE100AB8EEC00AC1EE000A02E08AE0DB
:1058500086E00EE09FED5C1A9FED660A10EE810A6D
:10586000BDEEC00A10EE100A00B2644921F814001F
:1058700079E03DF914005D4931F91410401A00EE49
:10588000100AB8EEC01A584830F91400574931F9D7
:105890001410401A00EE100AB8EEC00AC1EE000A59
:1058A0009FED491A9FED530A10EE810ABDEEC00A22
:1058B00010EE100A00B210F5FA7F01DA4E4849E006
:1058C0003DF91400494931F91410401A00EE100A4C
:1058D000B8EEC01A444830F91400444931F91410A4
:1058E000401A00EE100AB8EEC00AC1EE000A9FEDA1
:1058F000361A9FED400A10EE810ABDEEC00A10EE86
:10590000100A00B2B0F5FA7F02DD4FF4FA7021E020
:105910003DF91400354931F91410401A00EE100A0F
:10592000B8EEC01A304830F91400304931F914107B
:10593000401A00EE100AB8EEC00AC1EE000A9FED50
:10594000221A9FED2C0A10EE810ABDEEC00A10EE5D
:10595000100A00B2404200B2284921F8140002E0C7
:105960000020184908609FED260A21EE800A25488C
:1059700080ED000A3DF9140000EE100AB8EEC00AEE
:105980000D4800EB8400D0ED000A30EE600AB5EE61
:10599000C00AF1EE10FA37DD3DF9140000EE100AEE
:1059A000B8EEC00A044800EB8400D0ED000A30EEE7
:1059B000600A38E078050020042D00200000C8C3EC
:1059C000B80500200C01002000007A440000C84304
:1059D000A434002080050020742D0020902C00208D
:1059E00081050020642D00208C0500209C050020EE
:1059F000AC0500200000FA430CFEFFFFD42C002071
:105A000034337B42B40500203DF9140000EE100A47
:105A1000B8EEC00A6A4800EB8400D0ED000A30EE10
:105A2000600AB1EE400ADFED670AB4EEE00AF1EE7B
:105A300010FA1DD2644830F9140000EE100AB8EED6
:105A4000C00A5F4800EB8400D0ED000A70EE600AE7
:105A50005B4800EB840090ED000A5C4890ED001A72
:105A600001EE200A564800EB840080ED000A20E099
:105A7000554830F9140000EE100AB8EEC00A50483C
:105A800000EB8400D0ED000A70EE600A4C4800EB99
:105A9000840090ED000A4D4890ED001AB6EE002A01
:105AA00021EE021A01EE200A454800EB840080ED49
:105AB000000A434800EB840090ED000A444800EBE4
:105AC0008400D0ED000A30EE600A424800EB84000A
:105AD00080ED000A3A4800EB840090ED000A3C4853
